{
  "_format": "hh-sol-artifact-1",
  "contractName": "Oracle",
  "sourceName": "contracts/Oracle.sol",
  "abi": [
    {
      "inputs": [
        {
          "internalType": "address",
          "name": "addrMaster",
          "type": "address"
        }
      ],
      "stateMutability": "nonpayable",
      "type": "constructor"
    },
    {
      "anonymous": false,
      "inputs": [
        {
          "indexed": true,
          "internalType": "address",
          "name": "owner",
          "type": "address"
        },
        {
          "indexed": true,
          "internalType": "address",
          "name": "approved",
          "type": "address"
        },
        {
          "indexed": true,
          "internalType": "uint256",
          "name": "tokenId",
          "type": "uint256"
        }
      ],
      "name": "Approval",
      "type": "event"
    },
    {
      "anonymous": false,
      "inputs": [
        {
          "indexed": true,
          "internalType": "address",
          "name": "owner",
          "type": "address"
        },
        {
          "indexed": true,
          "internalType": "address",
          "name": "operator",
          "type": "address"
        },
        {
          "indexed": false,
          "internalType": "bool",
          "name": "approved",
          "type": "bool"
        }
      ],
      "name": "ApprovalForAll",
      "type": "event"
    },
    {
      "anonymous": false,
      "inputs": [
        {
          "indexed": true,
          "internalType": "address",
          "name": "from",
          "type": "address"
        },
        {
          "indexed": true,
          "internalType": "address",
          "name": "to",
          "type": "address"
        },
        {
          "indexed": true,
          "internalType": "uint256",
          "name": "tokenId",
          "type": "uint256"
        }
      ],
      "name": "Transfer",
      "type": "event"
    },
    {
      "inputs": [
        {
          "internalType": "address",
          "name": "to",
          "type": "address"
        },
        {
          "internalType": "uint256",
          "name": "tokenId",
          "type": "uint256"
        }
      ],
      "name": "approve",
      "outputs": [],
      "stateMutability": "nonpayable",
      "type": "function"
    },
    {
      "inputs": [
        {
          "internalType": "address",
          "name": "owner",
          "type": "address"
        }
      ],
      "name": "balanceOf",
      "outputs": [
        {
          "internalType": "uint256",
          "name": "",
          "type": "uint256"
        }
      ],
      "stateMutability": "view",
      "type": "function"
    },
    {
      "inputs": [],
      "name": "burnToken",
      "outputs": [],
      "stateMutability": "nonpayable",
      "type": "function"
    },
    {
      "inputs": [
        {
          "internalType": "uint256",
          "name": "tokenId",
          "type": "uint256"
        }
      ],
      "name": "getApproved",
      "outputs": [
        {
          "internalType": "address",
          "name": "",
          "type": "address"
        }
      ],
      "stateMutability": "view",
      "type": "function"
    },
    {
      "inputs": [],
      "name": "getCurrentTokenId",
      "outputs": [
        {
          "internalType": "uint256",
          "name": "",
          "type": "uint256"
        }
      ],
      "stateMutability": "view",
      "type": "function"
    },
    {
      "inputs": [],
      "name": "getMintingPrice",
      "outputs": [
        {
          "internalType": "uint256",
          "name": "",
          "type": "uint256"
        }
      ],
      "stateMutability": "view",
      "type": "function"
    },
    {
      "inputs": [
        {
          "internalType": "uint256",
          "name": "tokenId",
          "type": "uint256"
        }
      ],
      "name": "getURI",
      "outputs": [
        {
          "internalType": "string",
          "name": "",
          "type": "string"
        }
      ],
      "stateMutability": "view",
      "type": "function"
    },
    {
      "inputs": [],
      "name": "getUpgradePrice",
      "outputs": [
        {
          "internalType": "uint256",
          "name": "",
          "type": "uint256"
        }
      ],
      "stateMutability": "view",
      "type": "function"
    },
    {
      "inputs": [
        {
          "internalType": "address",
          "name": "owner",
          "type": "address"
        },
        {
          "internalType": "address",
          "name": "operator",
          "type": "address"
        }
      ],
      "name": "isApprovedForAll",
      "outputs": [
        {
          "internalType": "bool",
          "name": "",
          "type": "bool"
        }
      ],
      "stateMutability": "view",
      "type": "function"
    },
    {
      "inputs": [],
      "name": "m_nBurnId",
      "outputs": [
        {
          "internalType": "uint256",
          "name": "",
          "type": "uint256"
        }
      ],
      "stateMutability": "view",
      "type": "function"
    },
    {
      "inputs": [
        {
          "internalType": "uint256",
          "name": "price",
          "type": "uint256"
        }
      ],
      "name": "mintToken",
      "outputs": [
        {
          "internalType": "uint256",
          "name": "",
          "type": "uint256"
        }
      ],
      "stateMutability": "nonpayable",
      "type": "function"
    },
    {
      "inputs": [],
      "name": "name",
      "outputs": [
        {
          "internalType": "string",
          "name": "",
          "type": "string"
        }
      ],
      "stateMutability": "view",
      "type": "function"
    },
    {
      "inputs": [
        {
          "internalType": "uint256",
          "name": "tokenId",
          "type": "uint256"
        }
      ],
      "name": "ownerOf",
      "outputs": [
        {
          "internalType": "address",
          "name": "",
          "type": "address"
        }
      ],
      "stateMutability": "view",
      "type": "function"
    },
    {
      "inputs": [
        {
          "internalType": "uint256",
          "name": "costs",
          "type": "uint256"
        }
      ],
      "name": "payWithCustomCoin",
      "outputs": [],
      "stateMutability": "nonpayable",
      "type": "function"
    },
    {
      "inputs": [],
      "name": "pop",
      "outputs": [],
      "stateMutability": "nonpayable",
      "type": "function"
    },
    {
      "inputs": [
        {
          "internalType": "address",
          "name": "from",
          "type": "address"
        },
        {
          "internalType": "address",
          "name": "to",
          "type": "address"
        },
        {
          "internalType": "uint256",
          "name": "tokenId",
          "type": "uint256"
        }
      ],
      "name": "safeTransferFrom",
      "outputs": [],
      "stateMutability": "nonpayable",
      "type": "function"
    },
    {
      "inputs": [
        {
          "internalType": "address",
          "name": "from",
          "type": "address"
        },
        {
          "internalType": "address",
          "name": "to",
          "type": "address"
        },
        {
          "internalType": "uint256",
          "name": "tokenId",
          "type": "uint256"
        },
        {
          "internalType": "bytes",
          "name": "_data",
          "type": "bytes"
        }
      ],
      "name": "safeTransferFrom",
      "outputs": [],
      "stateMutability": "nonpayable",
      "type": "function"
    },
    {
      "inputs": [
        {
          "internalType": "address",
          "name": "operator",
          "type": "address"
        },
        {
          "internalType": "bool",
          "name": "approved",
          "type": "bool"
        }
      ],
      "name": "setApprovalForAll",
      "outputs": [],
      "stateMutability": "nonpayable",
      "type": "function"
    },
    {
      "inputs": [
        {
          "internalType": "bytes4",
          "name": "interfaceId",
          "type": "bytes4"
        }
      ],
      "name": "supportsInterface",
      "outputs": [
        {
          "internalType": "bool",
          "name": "",
          "type": "bool"
        }
      ],
      "stateMutability": "view",
      "type": "function"
    },
    {
      "inputs": [],
      "name": "symbol",
      "outputs": [
        {
          "internalType": "string",
          "name": "",
          "type": "string"
        }
      ],
      "stateMutability": "view",
      "type": "function"
    },
    {
      "inputs": [
        {
          "internalType": "uint256",
          "name": "tokenId",
          "type": "uint256"
        }
      ],
      "name": "tokenURI",
      "outputs": [
        {
          "internalType": "string",
          "name": "",
          "type": "string"
        }
      ],
      "stateMutability": "view",
      "type": "function"
    },
    {
      "inputs": [
        {
          "internalType": "address",
          "name": "from",
          "type": "address"
        },
        {
          "internalType": "address",
          "name": "to",
          "type": "address"
        },
        {
          "internalType": "uint256",
          "name": "tokenId",
          "type": "uint256"
        }
      ],
      "name": "transferFrom",
      "outputs": [],
      "stateMutability": "nonpayable",
      "type": "function"
    }
  ],
  "bytecode": "0x60806040526516bcc41e9000600855650da475abf000600955610fa0600a5560405180608001604052806050815260200162003b0d60509139600f90805190602001906200004f929190620001ac565b503480156200005d57600080fd5b5060405162003b5d38038062003b5d833981810160405281019062000083919062000273565b6040518060400160405280600681526020017f4f7261636c6500000000000000000000000000000000000000000000000000008152506040518060400160405280600681526020017f4f5241434c450000000000000000000000000000000000000000000000000000815250816000908051906020019062000107929190620001ac565b50806001908051906020019062000120929190620001ac565b50505033600c60006101000a81548173ffffffffffffffffffffffffffffffffffffffff021916908373ffffffffffffffffffffffffffffffffffffffff16021790555080600b60006101000a81548173ffffffffffffffffffffffffffffffffffffffff021916908373ffffffffffffffffffffffffffffffffffffffff160217905550506200035d565b828054620001ba90620002d9565b90600052602060002090601f016020900481019282620001de57600085556200022a565b82601f10620001f957805160ff19168380011785556200022a565b828001600101855582156200022a579182015b82811115620002295782518255916020019190600101906200020c565b5b5090506200023991906200023d565b5090565b5b80821115620002585760008160009055506001016200023e565b5090565b6000815190506200026d8162000343565b92915050565b6000602082840312156200028c576200028b6200033e565b5b60006200029c848285016200025c565b91505092915050565b6000620002b282620002b9565b9050919050565b600073ffffffffffffffffffffffffffffffffffffffff82169050919050565b60006002820490506001821680620002f257607f821691505b602082108114156200030957620003086200030f565b5b50919050565b7f4e487b7100000000000000000000000000000000000000000000000000000000600052602260045260246000fd5b600080fd5b6200034e81620002a5565b81146200035a57600080fd5b50565b6137a0806200036d6000396000f3fe608060405234801561001057600080fd5b50600436106101425760003560e01c806370a08231116100b8578063a4ece52c1161007c578063a4ece52c14610377578063b88d4fde14610381578063c634d0321461039d578063c87b56dd146103cd578063e985e9c5146103fd578063faa0a2641461042d57610142565b806370a08231146102d157806377d247621461030157806395d89b411461031f5780639b9511911461033d578063a22cb4651461035b57610142565b806323b872dd1161010a57806323b872dd1461021157806334fec6ff1461022d57806342842e0e1461024b57806356189236146102675780636352211e1461028557806369c30eb6146102b557610142565b806301ffc9a71461014757806306fdde0314610177578063081812fc14610195578063095ea7b3146101c55780631aa347dc146101e1575b600080fd5b610161600480360381019061015c9190612580565b610437565b60405161016e9190612aab565b60405180910390f35b61017f610519565b60405161018c9190612ac6565b60405180910390f35b6101af60048036038101906101aa91906125da565b6105ab565b6040516101bc91906129e4565b60405180910390f35b6101df60048036038101906101da9190612513565b610630565b005b6101fb60048036038101906101f691906125da565b610748565b6040516102089190612ac6565b60405180910390f35b61022b600480360381019061022691906123fd565b61075a565b005b6102356107ba565b6040516102429190612d68565b60405180910390f35b610265600480360381019061026091906123fd565b6107c4565b005b61026f6107e4565b60405161027c9190612d68565b60405180910390f35b61029f600480360381019061029a91906125da565b6107f5565b6040516102ac91906129e4565b60405180910390f35b6102cf60048036038101906102ca91906125da565b6108a7565b005b6102eb60048036038101906102e69190612363565b610b9f565b6040516102f89190612d68565b60405180910390f35b610309610c57565b6040516103169190612d68565b60405180910390f35b610327610c61565b6040516103349190612ac6565b60405180910390f35b610345610cf3565b6040516103529190612d68565b60405180910390f35b610375600480360381019061037091906124d3565b610cf9565b005b61037f610e7a565b005b61039b60048036038101906103969190612450565b61105d565b005b6103b760048036038101906103b291906125da565b6110bf565b6040516103c49190612d68565b60405180910390f35b6103e760048036038101906103e291906125da565b6111d6565b6040516103f49190612ac6565b60405180910390f35b610417600480360381019061041291906123bd565b611328565b6040516104249190612aab565b60405180910390f35b6104356113bc565b005b60007f80ac58cd000000000000000000000000000000000000000000000000000000007bffffffffffffffffffffffffffffffffffffffffffffffffffffffff1916827bffffffffffffffffffffffffffffffffffffffffffffffffffffffff1916148061050257507f5b5e139f000000000000000000000000000000000000000000000000000000007bffffffffffffffffffffffffffffffffffffffffffffffffffffffff1916827bffffffffffffffffffffffffffffffffffffffffffffffffffffffff1916145b80610512575061051182611456565b5b9050919050565b60606000805461052890612f8d565b80601f016020809104026020016040519081016040528092919081815260200182805461055490612f8d565b80156105a15780601f10610576576101008083540402835291602001916105a1565b820191906000526020600020905b81548152906001019060200180831161058457829003601f168201915b5050505050905090565b60006105b6826114c0565b6105f5576040517f08c379a00000000000000000000000000000000000000000000000000000000081526004016105ec90612c68565b60405180910390fd5b6004600083815260200190815260200160002060009054906101000a900473ffffffffffffffffffffffffffffffffffffffff169050919050565b600061063b826107f5565b90508073ffffffffffffffffffffffffffffffffffffffff168373ffffffffffffffffffffffffffffffffffffffff1614156106ac576040517f08c379a00000000000000000000000000000000000000000000000000000000081526004016106a390612cc8565b60405180910390fd5b8073ffffffffffffffffffffffffffffffffffffffff166106cb61152c565b73ffffffffffffffffffffffffffffffffffffffff1614806106fa57506106f9816106f461152c565b611328565b5b610739576040517f08c379a000000000000000000000000000000000000000000000000000000000815260040161073090612ba8565b60405180910390fd5b6107438383611534565b505050565b6060610753826111d6565b9050919050565b61076b61076561152c565b826115ed565b6107aa576040517f08c379a00000000000000000000000000000000000000000000000000000000081526004016107a190612d08565b60405180910390fd5b6107b58383836116cb565b505050565b6000600954905090565b6107df8383836040518060200160405280600081525061105d565b505050565b60006107f06007611927565b905090565b6000806002600084815260200190815260200160002060009054906101000a900473ffffffffffffffffffffffffffffffffffffffff169050600073ffffffffffffffffffffffffffffffffffffffff168173ffffffffffffffffffffffffffffffffffffffff16141561089e576040517f08c379a000000000000000000000000000000000000000000000000000000000815260040161089590612be8565b60405180910390fd5b80915050919050565b6000600b60009054906101000a900473ffffffffffffffffffffffffffffffffffffffff1673ffffffffffffffffffffffffffffffffffffffff1663280aada76040518163ffffffff1660e01b815260040160206040518083038186803b15801561091157600080fd5b505afa158015610925573d6000803e3d6000fd5b505050506040513d601f19601f820116820180604052508101906109499190612390565b905060008173ffffffffffffffffffffffffffffffffffffffff1663dd62ed3e33306040518363ffffffff1660e01b81526004016109889291906129ff565b60206040518083038186803b1580156109a057600080fd5b505afa1580156109b4573d6000803e3d6000fd5b505050506040513d601f19601f820116820180604052508101906109d89190612607565b905082811015610a1d576040517f08c379a0000000000000000000000000000000000000000000000000000000008152600401610a1490612d48565b60405180910390fd5b828273ffffffffffffffffffffffffffffffffffffffff166370a08231336040518263ffffffff1660e01b8152600401610a5791906129e4565b60206040518083038186803b158015610a6f57600080fd5b505afa158015610a83573d6000803e3d6000fd5b505050506040513d601f19601f82011682018060405250810190610aa79190612607565b1015610ae8576040517f08c379a0000000000000000000000000000000000000000000000000000000008152600401610adf90612d28565b60405180910390fd5b8173ffffffffffffffffffffffffffffffffffffffff166323b872dd33600c60009054906101000a900473ffffffffffffffffffffffffffffffffffffffff16866040518463ffffffff1660e01b8152600401610b4793929190612a28565b602060405180830381600087803b158015610b6157600080fd5b505af1158015610b75573d6000803e3d6000fd5b505050506040513d601f19601f82011682018060405250810190610b999190612553565b50505050565b60008073ffffffffffffffffffffffffffffffffffffffff168273ffffffffffffffffffffffffffffffffffffffff161415610c10576040517f08c379a0000000000000000000000000000000000000000000000000000000008152600401610c0790612bc8565b60405180910390fd5b600360008373ffffffffffffffffffffffffffffffffffffffff1673ffffffffffffffffffffffffffffffffffffffff168152602001908152602001600020549050919050565b6000600854905090565b606060018054610c7090612f8d565b80601f0160208091040260200160405190810160405280929190818152602001828054610c9c90612f8d565b8015610ce95780601f10610cbe57610100808354040283529160200191610ce9565b820191906000526020600020905b815481529060010190602001808311610ccc57829003601f168201915b5050505050905090565b600d5481565b610d0161152c565b73ffffffffffffffffffffffffffffffffffffffff168273ffffffffffffffffffffffffffffffffffffffff161415610d6f576040517f08c379a0000000000000000000000000000000000000000000000000000000008152600401610d6690612b68565b60405180910390fd5b8060056000610d7c61152c565b73ffffffffffffffffffffffffffffffffffffffff1673ffffffffffffffffffffffffffffffffffffffff16815260200190815260200160002060008473ffffffffffffffffffffffffffffffffffffffff1673ffffffffffffffffffffffffffffffffffffffff16815260200190815260200160002060006101000a81548160ff0219169083151502179055508173ffffffffffffffffffffffffffffffffffffffff16610e2961152c565b73ffffffffffffffffffffffffffffffffffffffff167f17307eab39ab6107e8899845ad3d59bd9653f200f220920489ca2b5937696c3183604051610e6e9190612aab565b60405180910390a35050565b6000600e60003373ffffffffffffffffffffffffffffffffffffffff1673ffffffffffffffffffffffffffffffffffffffff168152602001908152602001600020805480602002602001604051908101604052809291908181526020018280548015610f0557602002820191906000526020600020905b815481526020019060010190808311610ef1575b50505050509050600081511115610f45578060018251610f259190612ea3565b81518110610f3657610f356130f7565b5b6020026020010151600d819055505b600060018251610f559190612ea3565b67ffffffffffffffff811115610f6e57610f6d613126565b5b604051908082528060200260200182016040528015610f9c5781602001602082028036833780820191505090505b50905060005b60018351610fb09190612ea3565b81101561100457828181518110610fca57610fc96130f7565b5b6020026020010151828281518110610fe557610fe46130f7565b5b6020026020010181815250508080610ffc90612ff0565b915050610fa2565b5080600e60003373ffffffffffffffffffffffffffffffffffffffff1673ffffffffffffffffffffffffffffffffffffffff168152602001908152602001600020908051906020019061105892919061211b565b505050565b61106e61106861152c565b836115ed565b6110ad576040517f08c379a00000000000000000000000000000000000000000000000000000000081526004016110a490612d08565b60405180910390fd5b6110b984848484611935565b50505050565b6000600a546110ce6007611927565b1061110e576040517f08c379a000000000000000000000000000000000000000000000000000000000815260040161110590612ce8565b60405180910390fd5b6111186007611991565b60006111246007611927565b905061113033826119a7565b6111c481600f805461114190612f8d565b80601f016020809104026020016040519081016040528092919081815260200182805461116d90612f8d565b80156111ba5780601f1061118f576101008083540402835291602001916111ba565b820191906000526020600020905b81548152906001019060200180831161119d57829003601f168201915b5050505050611b75565b6111cd836108a7565b80915050919050565b60606111e1826114c0565b611220576040517f08c379a000000000000000000000000000000000000000000000000000000000815260040161121790612c48565b60405180910390fd5b600060066000848152602001908152602001600020805461124090612f8d565b80601f016020809104026020016040519081016040528092919081815260200182805461126c90612f8d565b80156112b95780601f1061128e576101008083540402835291602001916112b9565b820191906000526020600020905b81548152906001019060200180831161129c57829003601f168201915b5050505050905060006112ca611be9565b90506000815114156112e0578192505050611323565b6000825111156113155780826040516020016112fd9291906129c0565b60405160208183030381529060405292505050611323565b61131e84611c00565b925050505b919050565b6000600560008473ffffffffffffffffffffffffffffffffffffffff1673ffffffffffffffffffffffffffffffffffffffff16815260200190815260200160002060008373ffffffffffffffffffffffffffffffffffffffff1673ffffffffffffffffffffffffffffffffffffffff16815260200190815260200160002060009054906101000a900460ff16905092915050565b6000600e60003373ffffffffffffffffffffffffffffffffffffffff1673ffffffffffffffffffffffffffffffffffffffff1681526020019081526020016000208054905011611441576040517f08c379a000000000000000000000000000000000000000000000000000000000815260040161143890612ae8565b60405180910390fd5b611449610e7a565b611454600d54611ca7565b565b60007f01ffc9a7000000000000000000000000000000000000000000000000000000007bffffffffffffffffffffffffffffffffffffffffffffffffffffffff1916827bffffffffffffffffffffffffffffffffffffffffffffffffffffffff1916149050919050565b60008073ffffffffffffffffffffffffffffffffffffffff166002600084815260200190815260200160002060009054906101000a900473ffffffffffffffffffffffffffffffffffffffff1673ffffffffffffffffffffffffffffffffffffffff1614159050919050565b600033905090565b816004600083815260200190815260200160002060006101000a81548173ffffffffffffffffffffffffffffffffffffffff021916908373ffffffffffffffffffffffffffffffffffffffff160217905550808273ffffffffffffffffffffffffffffffffffffffff166115a7836107f5565b73ffffffffffffffffffffffffffffffffffffffff167f8c5be1e5ebec7d5bd14f71427d1e84f3dd0314c0f7b2291e5b200ac8c7c3b92560405160405180910390a45050565b60006115f8826114c0565b611637576040517f08c379a000000000000000000000000000000000000000000000000000000000815260040161162e90612b88565b60405180910390fd5b6000611642836107f5565b90508073ffffffffffffffffffffffffffffffffffffffff168473ffffffffffffffffffffffffffffffffffffffff1614806116b157508373ffffffffffffffffffffffffffffffffffffffff16611699846105ab565b73ffffffffffffffffffffffffffffffffffffffff16145b806116c257506116c18185611328565b5b91505092915050565b8273ffffffffffffffffffffffffffffffffffffffff166116eb826107f5565b73ffffffffffffffffffffffffffffffffffffffff1614611741576040517f08c379a000000000000000000000000000000000000000000000000000000000815260040161173890612c88565b60405180910390fd5b600073ffffffffffffffffffffffffffffffffffffffff168273ffffffffffffffffffffffffffffffffffffffff1614156117b1576040517f08c379a00000000000000000000000000000000000000000000000000000000081526004016117a890612b48565b60405180910390fd5b6117bc838383611cfa565b6117c7600082611534565b6001600360008573ffffffffffffffffffffffffffffffffffffffff1673ffffffffffffffffffffffffffffffffffffffff16815260200190815260200160002060008282546118179190612ea3565b925050819055506001600360008473ffffffffffffffffffffffffffffffffffffffff1673ffffffffffffffffffffffffffffffffffffffff168152602001908152602001600020600082825461186e9190612e1c565b92505081905550816002600083815260200190815260200160002060006101000a81548173ffffffffffffffffffffffffffffffffffffffff021916908373ffffffffffffffffffffffffffffffffffffffff160217905550808273ffffffffffffffffffffffffffffffffffffffff168473ffffffffffffffffffffffffffffffffffffffff167fddf252ad1be2c89b69c2b068fc378daa952ba7f163c4a11628f55a4df523b3ef60405160405180910390a4505050565b600081600001549050919050565b6119408484846116cb565b61194c84848484611cff565b61198b576040517f08c379a000000000000000000000000000000000000000000000000000000000815260040161198290612b08565b60405180910390fd5b50505050565b6001816000016000828254019250508190555050565b600073ffffffffffffffffffffffffffffffffffffffff168273ffffffffffffffffffffffffffffffffffffffff161415611a17576040517f08c379a0000000000000000000000000000000000000000000000000000000008152600401611a0e90612c28565b60405180910390fd5b611a20816114c0565b15611a60576040517f08c379a0000000000000000000000000000000000000000000000000000000008152600401611a5790612b28565b60405180910390fd5b611a6c60008383611cfa565b6001600360008473ffffffffffffffffffffffffffffffffffffffff1673ffffffffffffffffffffffffffffffffffffffff1681526020019081526020016000206000828254611abc9190612e1c565b92505081905550816002600083815260200190815260200160002060006101000a81548173ffffffffffffffffffffffffffffffffffffffff021916908373ffffffffffffffffffffffffffffffffffffffff160217905550808273ffffffffffffffffffffffffffffffffffffffff16600073ffffffffffffffffffffffffffffffffffffffff167fddf252ad1be2c89b69c2b068fc378daa952ba7f163c4a11628f55a4df523b3ef60405160405180910390a45050565b611b7e826114c0565b611bbd576040517f08c379a0000000000000000000000000000000000000000000000000000000008152600401611bb490612c08565b60405180910390fd5b80600660008481526020019081526020016000209080519060200190611be4929190612168565b505050565b606060405180602001604052806000815250905090565b6060611c0b826114c0565b611c4a576040517f08c379a0000000000000000000000000000000000000000000000000000000008152600401611c4190612ca8565b60405180910390fd5b6000611c54611be9565b90506000815111611c745760405180602001604052806000815250611c9f565b80611c7e84611e96565b604051602001611c8f9291906129c0565b6040516020818303038152906040525b915050919050565b611cb081611ff7565b6000600660008381526020019081526020016000208054611cd090612f8d565b905014611cf757600660008281526020019081526020016000206000611cf691906121ee565b5b50565b505050565b6000611d208473ffffffffffffffffffffffffffffffffffffffff16612108565b15611e89578373ffffffffffffffffffffffffffffffffffffffff1663150b7a02611d4961152c565b8786866040518563ffffffff1660e01b8152600401611d6b9493929190612a5f565b602060405180830381600087803b158015611d8557600080fd5b505af1925050508015611db657506040513d601f19601f82011682018060405250810190611db391906125ad565b60015b611e39573d8060008114611de6576040519150601f19603f3d011682016040523d82523d6000602084013e611deb565b606091505b50600081511415611e31576040517f08c379a0000000000000000000000000000000000000000000000000000000008152600401611e2890612b08565b60405180910390fd5b805181602001fd5b63150b7a0260e01b7bffffffffffffffffffffffffffffffffffffffffffffffffffffffff1916817bffffffffffffffffffffffffffffffffffffffffffffffffffffffff191614915050611e8e565b600190505b949350505050565b60606000821415611ede576040518060400160405280600181526020017f30000000000000000000000000000000000000000000000000000000000000008152509050611ff2565b600082905060005b60008214611f10578080611ef990612ff0565b915050600a82611f099190612e72565b9150611ee6565b60008167ffffffffffffffff811115611f2c57611f2b613126565b5b6040519080825280601f01601f191660200182016040528015611f5e5781602001600182028036833780820191505090505b5090505b60008514611feb57600182611f779190612ea3565b9150600a85611f869190613039565b6030611f929190612e1c565b60f81b818381518110611fa857611fa76130f7565b5b60200101907effffffffffffffffffffffffffffffffffffffffffffffffffffffffffffff1916908160001a905350600a85611fe49190612e72565b9450611f62565b8093505050505b919050565b6000612002826107f5565b905061201081600084611cfa565b61201b600083611534565b6001600360008373ffffffffffffffffffffffffffffffffffffffff1673ffffffffffffffffffffffffffffffffffffffff168152602001908152602001600020600082825461206b9190612ea3565b925050819055506002600083815260200190815260200160002060006101000a81549073ffffffffffffffffffffffffffffffffffffffff021916905581600073ffffffffffffffffffffffffffffffffffffffff168273ffffffffffffffffffffffffffffffffffffffff167fddf252ad1be2c89b69c2b068fc378daa952ba7f163c4a11628f55a4df523b3ef60405160405180910390a45050565b600080823b905060008111915050919050565b828054828255906000526020600020908101928215612157579160200282015b8281111561215657825182559160200191906001019061213b565b5b509050612164919061222e565b5090565b82805461217490612f8d565b90600052602060002090601f01602090048101928261219657600085556121dd565b82601f106121af57805160ff19168380011785556121dd565b828001600101855582156121dd579182015b828111156121dc5782518255916020019190600101906121c1565b5b5090506121ea919061222e565b5090565b5080546121fa90612f8d565b6000825580601f1061220c575061222b565b601f01602090049060005260206000209081019061222a919061222e565b5b50565b5b8082111561224757600081600090555060010161222f565b5090565b600061225e61225984612da8565b612d83565b90508281526020810184848401111561227a5761227961315a565b5b612285848285612f4b565b509392505050565b60008135905061229c8161370e565b92915050565b6000815190506122b18161370e565b92915050565b6000813590506122c681613725565b92915050565b6000815190506122db81613725565b92915050565b6000813590506122f08161373c565b92915050565b6000815190506123058161373c565b92915050565b600082601f8301126123205761231f613155565b5b813561233084826020860161224b565b91505092915050565b60008135905061234881613753565b92915050565b60008151905061235d81613753565b92915050565b60006020828403121561237957612378613164565b5b60006123878482850161228d565b91505092915050565b6000602082840312156123a6576123a5613164565b5b60006123b4848285016122a2565b91505092915050565b600080604083850312156123d4576123d3613164565b5b60006123e28582860161228d565b92505060206123f38582860161228d565b9150509250929050565b60008060006060848603121561241657612415613164565b5b60006124248682870161228d565b93505060206124358682870161228d565b925050604061244686828701612339565b9150509250925092565b6000806000806080858703121561246a57612469613164565b5b60006124788782880161228d565b94505060206124898782880161228d565b935050604061249a87828801612339565b925050606085013567ffffffffffffffff8111156124bb576124ba61315f565b5b6124c78782880161230b565b91505092959194509250565b600080604083850312156124ea576124e9613164565b5b60006124f88582860161228d565b9250506020612509858286016122b7565b9150509250929050565b6000806040838503121561252a57612529613164565b5b60006125388582860161228d565b925050602061254985828601612339565b9150509250929050565b60006020828403121561256957612568613164565b5b6000612577848285016122cc565b91505092915050565b60006020828403121561259657612595613164565b5b60006125a4848285016122e1565b91505092915050565b6000602082840312156125c3576125c2613164565b5b60006125d1848285016122f6565b91505092915050565b6000602082840312156125f0576125ef613164565b5b60006125fe84828501612339565b91505092915050565b60006020828403121561261d5761261c613164565b5b600061262b8482850161234e565b91505092915050565b61263d81612ed7565b82525050565b61264c81612ee9565b82525050565b600061265d82612dd9565b6126678185612def565b9350612677818560208601612f5a565b61268081613169565b840191505092915050565b600061269682612de4565b6126a08185612e00565b93506126b0818560208601612f5a565b6126b981613169565b840191505092915050565b60006126cf82612de4565b6126d98185612e11565b93506126e9818560208601612f5a565b80840191505092915050565b6000612702601083612e00565b915061270d8261317a565b602082019050919050565b6000612725603283612e00565b9150612730826131a3565b604082019050919050565b6000612748601c83612e00565b9150612753826131f2565b602082019050919050565b600061276b602483612e00565b91506127768261321b565b604082019050919050565b600061278e601983612e00565b91506127998261326a565b602082019050919050565b60006127b1602c83612e00565b91506127bc82613293565b604082019050919050565b60006127d4603883612e00565b91506127df826132e2565b604082019050919050565b60006127f7602a83612e00565b915061280282613331565b604082019050919050565b600061281a602983612e00565b915061282582613380565b604082019050919050565b600061283d602e83612e00565b9150612848826133cf565b604082019050919050565b6000612860602083612e00565b915061286b8261341e565b602082019050919050565b6000612883603183612e00565b915061288e82613447565b604082019050919050565b60006128a6602c83612e00565b91506128b182613496565b604082019050919050565b60006128c9602983612e00565b91506128d4826134e5565b604082019050919050565b60006128ec602f83612e00565b91506128f782613534565b604082019050919050565b600061290f602183612e00565b915061291a82613583565b604082019050919050565b6000612932603583612e00565b915061293d826135d2565b604082019050919050565b6000612955603183612e00565b915061296082613621565b604082019050919050565b6000612978603083612e00565b915061298382613670565b604082019050919050565b600061299b602783612e00565b91506129a6826136bf565b604082019050919050565b6129ba81612f41565b82525050565b60006129cc82856126c4565b91506129d882846126c4565b91508190509392505050565b60006020820190506129f96000830184612634565b92915050565b6000604082019050612a146000830185612634565b612a216020830184612634565b9392505050565b6000606082019050612a3d6000830186612634565b612a4a6020830185612634565b612a5760408301846129b1565b949350505050565b6000608082019050612a746000830187612634565b612a816020830186612634565b612a8e60408301856129b1565b8181036060830152612aa08184612652565b905095945050505050565b6000602082019050612ac06000830184612643565b92915050565b60006020820190508181036000830152612ae0818461268b565b905092915050565b60006020820190508181036000830152612b01816126f5565b9050919050565b60006020820190508181036000830152612b2181612718565b9050919050565b60006020820190508181036000830152612b418161273b565b9050919050565b60006020820190508181036000830152612b618161275e565b9050919050565b60006020820190508181036000830152612b8181612781565b9050919050565b60006020820190508181036000830152612ba1816127a4565b9050919050565b60006020820190508181036000830152612bc1816127c7565b9050919050565b60006020820190508181036000830152612be1816127ea565b9050919050565b60006020820190508181036000830152612c018161280d565b9050919050565b60006020820190508181036000830152612c2181612830565b9050919050565b60006020820190508181036000830152612c4181612853565b9050919050565b60006020820190508181036000830152612c6181612876565b9050919050565b60006020820190508181036000830152612c8181612899565b9050919050565b60006020820190508181036000830152612ca1816128bc565b9050919050565b60006020820190508181036000830152612cc1816128df565b9050919050565b60006020820190508181036000830152612ce181612902565b9050919050565b60006020820190508181036000830152612d0181612925565b9050919050565b60006020820190508181036000830152612d2181612948565b9050919050565b60006020820190508181036000830152612d418161296b565b9050919050565b60006020820190508181036000830152612d618161298e565b9050919050565b6000602082019050612d7d60008301846129b1565b92915050565b6000612d8d612d9e565b9050612d998282612fbf565b919050565b6000604051905090565b600067ffffffffffffffff821115612dc357612dc2613126565b5b612dcc82613169565b9050602081019050919050565b600081519050919050565b600081519050919050565b600082825260208201905092915050565b600082825260208201905092915050565b600081905092915050565b6000612e2782612f41565b9150612e3283612f41565b9250827fffffffffffffffffffffffffffffffffffffffffffffffffffffffffffffffff03821115612e6757612e6661306a565b5b828201905092915050565b6000612e7d82612f41565b9150612e8883612f41565b925082612e9857612e97613099565b5b828204905092915050565b6000612eae82612f41565b9150612eb983612f41565b925082821015612ecc57612ecb61306a565b5b828203905092915050565b6000612ee282612f21565b9050919050565b60008115159050919050565b60007fffffffff0000000000000000000000000000000000000000000000000000000082169050919050565b600073ffffffffffffffffffffffffffffffffffffffff82169050919050565b6000819050919050565b82818337600083830152505050565b60005b83811015612f78578082015181840152602081019050612f5d565b83811115612f87576000848401525b50505050565b60006002820490506001821680612fa557607f821691505b60208210811415612fb957612fb86130c8565b5b50919050565b612fc882613169565b810181811067ffffffffffffffff82111715612fe757612fe6613126565b5b80604052505050565b6000612ffb82612f41565b91507fffffffffffffffffffffffffffffffffffffffffffffffffffffffffffffffff82141561302e5761302d61306a565b5b600182019050919050565b600061304482612f41565b915061304f83612f41565b92508261305f5761305e613099565b5b828206905092915050565b7f4e487b7100000000000000000000000000000000000000000000000000000000600052601160045260246000fd5b7f4e487b7100000000000000000000000000000000000000000000000000000000600052601260045260246000fd5b7f4e487b7100000000000000000000000000000000000000000000000000000000600052602260045260246000fd5b7f4e487b7100000000000000000000000000000000000000000000000000000000600052603260045260246000fd5b7f4e487b7100000000000000000000000000000000000000000000000000000000600052604160045260246000fd5b600080fd5b600080fd5b600080fd5b600080fd5b6000601f19601f8301169050919050565b7f62616c616e6365206973207a65726f2e00000000000000000000000000000000600082015250565b7f4552433732313a207472616e7366657220746f206e6f6e20455243373231526560008201527f63656976657220696d706c656d656e7465720000000000000000000000000000602082015250565b7f4552433732313a20746f6b656e20616c7265616479206d696e74656400000000600082015250565b7f4552433732313a207472616e7366657220746f20746865207a65726f2061646460008201527f7265737300000000000000000000000000000000000000000000000000000000602082015250565b7f4552433732313a20617070726f766520746f2063616c6c657200000000000000600082015250565b7f4552433732313a206f70657261746f7220717565727920666f72206e6f6e657860008201527f697374656e7420746f6b656e0000000000000000000000000000000000000000602082015250565b7f4552433732313a20617070726f76652063616c6c6572206973206e6f74206f7760008201527f6e6572206e6f7220617070726f76656420666f7220616c6c0000000000000000602082015250565b7f4552433732313a2062616c616e636520717565727920666f7220746865207a6560008201527f726f206164647265737300000000000000000000000000000000000000000000602082015250565b7f4552433732313a206f776e657220717565727920666f72206e6f6e657869737460008201527f656e7420746f6b656e0000000000000000000000000000000000000000000000602082015250565b7f45524337323155524953746f726167653a2055524920736574206f66206e6f6e60008201527f6578697374656e7420746f6b656e000000000000000000000000000000000000602082015250565b7f4552433732313a206d696e7420746f20746865207a65726f2061646472657373600082015250565b7f45524337323155524953746f726167653a2055524920717565727920666f722060008201527f6e6f6e6578697374656e7420746f6b656e000000000000000000000000000000602082015250565b7f4552433732313a20617070726f76656420717565727920666f72206e6f6e657860008201527f697374656e7420746f6b656e0000000000000000000000000000000000000000602082015250565b7f4552433732313a207472616e73666572206f6620746f6b656e2074686174206960008201527f73206e6f74206f776e0000000000000000000000000000000000000000000000602082015250565b7f4552433732314d657461646174613a2055524920717565727920666f72206e6f60008201527f6e6578697374656e7420746f6b656e0000000000000000000000000000000000602082015250565b7f4552433732313a20617070726f76616c20746f2063757272656e74206f776e6560008201527f7200000000000000000000000000000000000000000000000000000000000000602082015250565b7f546865206e756d626572206f662074686973204e465420746f6b656e73206f7660008201527f6572666c6f777320746f74616c20737570706c792e0000000000000000000000602082015250565b7f4552433732313a207472616e736665722063616c6c6572206973206e6f74206f60008201527f776e6572206e6f7220617070726f766564000000000000000000000000000000602082015250565b7f62616c616e636520697320746f6f20736d616c6c2c20796f752063616e27742060008201527f70617920666f72206d696e74696e672e00000000000000000000000000000000602082015250565b7f636f73742069732074686520736d616c6c6572207468616e20616c6c6f77656460008201527f20616d6f756e7400000000000000000000000000000000000000000000000000602082015250565b61371781612ed7565b811461372257600080fd5b50565b61372e81612ee9565b811461373957600080fd5b50565b61374581612ef5565b811461375057600080fd5b50565b61375c81612f41565b811461376757600080fd5b5056fea26469706673582212204fc62a220b00214936a5467d2e6f5a0958500e1871ed47ece098df1248727d6464736f6c6343000805003368747470733a2f2f676174657761792e70696e6174612e636c6f75642f697066732f516d4e72454d334e584562485a67704b4d59506576575759427a47656e5766467a4464686d7253423572664e7956",
  "linkReferences": {},
  "deployedLinkReferences": {}
}