{
  "_format": "hh-sol-artifact-1",
  "contractName": "NFTMarket",
  "sourceName": "contracts/NFTMarket.sol",
  "abi": [
    {
      "inputs": [],
      "stateMutability": "nonpayable",
      "type": "constructor"
    },
    {
      "anonymous": false,
      "inputs": [
        {
          "indexed": true,
          "internalType": "uint256",
          "name": "itemId",
          "type": "uint256"
        },
        {
          "indexed": true,
          "internalType": "address",
          "name": "nftContract",
          "type": "address"
        },
        {
          "indexed": true,
          "internalType": "uint256",
          "name": "tokenId",
          "type": "uint256"
        },
        {
          "indexed": false,
          "internalType": "uint256",
          "name": "collectionId",
          "type": "uint256"
        },
        {
          "indexed": false,
          "internalType": "address",
          "name": "seller",
          "type": "address"
        },
        {
          "indexed": false,
          "internalType": "address",
          "name": "owner",
          "type": "address"
        },
        {
          "indexed": false,
          "internalType": "uint256",
          "name": "price",
          "type": "uint256"
        },
        {
          "indexed": false,
          "internalType": "bool",
          "name": "sold",
          "type": "bool"
        }
      ],
      "name": "MarketItemCreated",
      "type": "event"
    },
    {
      "anonymous": false,
      "inputs": [
        {
          "indexed": false,
          "internalType": "address",
          "name": "player",
          "type": "address"
        }
      ],
      "name": "WhiteListAdded",
      "type": "event"
    },
    {
      "inputs": [
        {
          "internalType": "address[]",
          "name": "playerAddresses",
          "type": "address[]"
        }
      ],
      "name": "addCollectionToWhitelist",
      "outputs": [],
      "stateMutability": "nonpayable",
      "type": "function"
    },
    {
      "inputs": [
        {
          "internalType": "address",
          "name": "nftContract",
          "type": "address"
        },
        {
          "internalType": "uint256",
          "name": "itemId",
          "type": "uint256"
        }
      ],
      "name": "buyMarketSale",
      "outputs": [],
      "stateMutability": "nonpayable",
      "type": "function"
    },
    {
      "inputs": [
        {
          "internalType": "uint256",
          "name": "itemId",
          "type": "uint256"
        }
      ],
      "name": "buyingFee",
      "outputs": [
        {
          "internalType": "uint256",
          "name": "",
          "type": "uint256"
        }
      ],
      "stateMutability": "view",
      "type": "function"
    },
    {
      "inputs": [
        {
          "internalType": "uint256",
          "name": "itemId",
          "type": "uint256"
        }
      ],
      "name": "buyingPrice",
      "outputs": [
        {
          "internalType": "uint256",
          "name": "",
          "type": "uint256"
        }
      ],
      "stateMutability": "view",
      "type": "function"
    },
    {
      "inputs": [
        {
          "internalType": "address",
          "name": "nftContract",
          "type": "address"
        },
        {
          "internalType": "uint256",
          "name": "tokenId",
          "type": "uint256"
        },
        {
          "internalType": "uint256",
          "name": "collectionId",
          "type": "uint256"
        },
        {
          "internalType": "uint256",
          "name": "price",
          "type": "uint256"
        }
      ],
      "name": "createMarketItem",
      "outputs": [],
      "stateMutability": "nonpayable",
      "type": "function"
    },
    {
      "inputs": [
        {
          "internalType": "address",
          "name": "nftContract",
          "type": "address"
        },
        {
          "internalType": "uint256",
          "name": "itemId",
          "type": "uint256"
        },
        {
          "internalType": "uint256",
          "name": "price",
          "type": "uint256"
        }
      ],
      "name": "createMarketSale",
      "outputs": [],
      "stateMutability": "nonpayable",
      "type": "function"
    },
    {
      "inputs": [
        {
          "internalType": "uint256",
          "name": "collectionId",
          "type": "uint256"
        }
      ],
      "name": "fetchItemsCreated",
      "outputs": [
        {
          "components": [
            {
              "internalType": "uint256",
              "name": "itemId",
              "type": "uint256"
            },
            {
              "internalType": "address",
              "name": "nftContract",
              "type": "address"
            },
            {
              "internalType": "uint256",
              "name": "tokenId",
              "type": "uint256"
            },
            {
              "internalType": "uint256",
              "name": "collectionId",
              "type": "uint256"
            },
            {
              "internalType": "address payable",
              "name": "seller",
              "type": "address"
            },
            {
              "internalType": "address payable",
              "name": "owner",
              "type": "address"
            },
            {
              "internalType": "uint256",
              "name": "price",
              "type": "uint256"
            },
            {
              "internalType": "bool",
              "name": "sold",
              "type": "bool"
            }
          ],
          "internalType": "struct NFTMarket.MarketItem[]",
          "name": "",
          "type": "tuple[]"
        }
      ],
      "stateMutability": "view",
      "type": "function"
    },
    {
      "inputs": [
        {
          "internalType": "uint256",
          "name": "collectionId",
          "type": "uint256"
        }
      ],
      "name": "fetchMarketItems",
      "outputs": [
        {
          "components": [
            {
              "internalType": "uint256",
              "name": "itemId",
              "type": "uint256"
            },
            {
              "internalType": "address",
              "name": "nftContract",
              "type": "address"
            },
            {
              "internalType": "uint256",
              "name": "tokenId",
              "type": "uint256"
            },
            {
              "internalType": "uint256",
              "name": "collectionId",
              "type": "uint256"
            },
            {
              "internalType": "address payable",
              "name": "seller",
              "type": "address"
            },
            {
              "internalType": "address payable",
              "name": "owner",
              "type": "address"
            },
            {
              "internalType": "uint256",
              "name": "price",
              "type": "uint256"
            },
            {
              "internalType": "bool",
              "name": "sold",
              "type": "bool"
            }
          ],
          "internalType": "struct NFTMarket.MarketItem[]",
          "name": "",
          "type": "tuple[]"
        }
      ],
      "stateMutability": "view",
      "type": "function"
    },
    {
      "inputs": [
        {
          "internalType": "uint256",
          "name": "collectionId",
          "type": "uint256"
        }
      ],
      "name": "fetchMyNFTS",
      "outputs": [
        {
          "components": [
            {
              "internalType": "uint256",
              "name": "itemId",
              "type": "uint256"
            },
            {
              "internalType": "address",
              "name": "nftContract",
              "type": "address"
            },
            {
              "internalType": "uint256",
              "name": "tokenId",
              "type": "uint256"
            },
            {
              "internalType": "uint256",
              "name": "collectionId",
              "type": "uint256"
            },
            {
              "internalType": "address payable",
              "name": "seller",
              "type": "address"
            },
            {
              "internalType": "address payable",
              "name": "owner",
              "type": "address"
            },
            {
              "internalType": "uint256",
              "name": "price",
              "type": "uint256"
            },
            {
              "internalType": "bool",
              "name": "sold",
              "type": "bool"
            }
          ],
          "internalType": "struct NFTMarket.MarketItem[]",
          "name": "",
          "type": "tuple[]"
        }
      ],
      "stateMutability": "view",
      "type": "function"
    },
    {
      "inputs": [
        {
          "internalType": "uint256",
          "name": "collectionId",
          "type": "uint256"
        }
      ],
      "name": "getCreatedItemCountForCollection",
      "outputs": [
        {
          "internalType": "uint256",
          "name": "",
          "type": "uint256"
        }
      ],
      "stateMutability": "view",
      "type": "function"
    },
    {
      "inputs": [],
      "name": "getCurrentItemId",
      "outputs": [
        {
          "internalType": "uint256",
          "name": "",
          "type": "uint256"
        }
      ],
      "stateMutability": "view",
      "type": "function"
    },
    {
      "inputs": [
        {
          "internalType": "uint256",
          "name": "collectionId",
          "type": "uint256"
        }
      ],
      "name": "getItemCountOwnedByAccount",
      "outputs": [
        {
          "internalType": "uint256",
          "name": "",
          "type": "uint256"
        }
      ],
      "stateMutability": "view",
      "type": "function"
    },
    {
      "inputs": [],
      "name": "getListingPrice",
      "outputs": [
        {
          "internalType": "uint256",
          "name": "",
          "type": "uint256"
        }
      ],
      "stateMutability": "view",
      "type": "function"
    },
    {
      "inputs": [
        {
          "internalType": "address",
          "name": "player",
          "type": "address"
        },
        {
          "internalType": "uint256",
          "name": "collectionId",
          "type": "uint256"
        }
      ],
      "name": "isAllowed",
      "outputs": [
        {
          "internalType": "bool",
          "name": "",
          "type": "bool"
        }
      ],
      "stateMutability": "view",
      "type": "function"
    },
    {
      "inputs": [
        {
          "internalType": "uint256",
          "name": "tokenId",
          "type": "uint256"
        }
      ],
      "name": "isCreatedMarketItem",
      "outputs": [
        {
          "internalType": "bool",
          "name": "",
          "type": "bool"
        }
      ],
      "stateMutability": "view",
      "type": "function"
    },
    {
      "inputs": [],
      "name": "isSettedCollectionId",
      "outputs": [
        {
          "internalType": "bool",
          "name": "",
          "type": "bool"
        }
      ],
      "stateMutability": "view",
      "type": "function"
    },
    {
      "inputs": [
        {
          "internalType": "address",
          "name": "nftContract",
          "type": "address"
        },
        {
          "internalType": "uint256",
          "name": "itemId",
          "type": "uint256"
        }
      ],
      "name": "payBuyingFeeToAdmin",
      "outputs": [],
      "stateMutability": "nonpayable",
      "type": "function"
    },
    {
      "inputs": [
        {
          "internalType": "address",
          "name": "nftContract",
          "type": "address"
        },
        {
          "internalType": "address",
          "name": "to",
          "type": "address"
        },
        {
          "internalType": "uint256",
          "name": "costs",
          "type": "uint256"
        }
      ],
      "name": "payWithADMC",
      "outputs": [],
      "stateMutability": "nonpayable",
      "type": "function"
    },
    {
      "inputs": [
        {
          "internalType": "address",
          "name": "nftContract",
          "type": "address"
        },
        {
          "internalType": "address",
          "name": "to",
          "type": "address"
        },
        {
          "internalType": "uint256",
          "name": "costs",
          "type": "uint256"
        }
      ],
      "name": "sendToWallet",
      "outputs": [],
      "stateMutability": "nonpayable",
      "type": "function"
    },
    {
      "inputs": [
        {
          "internalType": "uint256",
          "name": "_collectionId",
          "type": "uint256"
        }
      ],
      "name": "setCollectionForWhitelist",
      "outputs": [],
      "stateMutability": "nonpayable",
      "type": "function"
    },
    {
      "inputs": [
        {
          "internalType": "uint256",
          "name": "price",
          "type": "uint256"
        }
      ],
      "name": "setListingPrice",
      "outputs": [],
      "stateMutability": "nonpayable",
      "type": "function"
    }
  ],
  "bytecode": "0x6080604052731fe35381e6fb8580b05bc297f82fd0da01cf75bd600360006101000a81548173ffffffffffffffffffffffffffffffffffffffff021916908373ffffffffffffffffffffffffffffffffffffffff1602179055506012600755600754600a6200006f91906200013a565b620186a06200007f919062000277565b6008553480156200008f57600080fd5b50600160008190555033600360006101000a81548173ffffffffffffffffffffffffffffffffffffffff021916908373ffffffffffffffffffffffffffffffffffffffff1602179055506200031e565b6000808291508390505b60018511156200013157808604811115620001095762000108620002e2565b5b6001851615620001195780820291505b8081029050620001298562000311565b9450620000e9565b94509492505050565b60006200014782620002d8565b91506200015483620002d8565b9250620001837fffffffffffffffffffffffffffffffffffffffffffffffffffffffffffffffff84846200018b565b905092915050565b6000826200019d576001905062000270565b81620001ad576000905062000270565b8160018114620001c65760028114620001d15762000207565b600191505062000270565b60ff841115620001e657620001e5620002e2565b5b8360020a9150848211156200020057620001ff620002e2565b5b5062000270565b5060208310610133831016604e8410600b8410161715620002415782820a9050838111156200023b576200023a620002e2565b5b62000270565b620002508484846001620000df565b925090508184048111156200026a5762000269620002e2565b5b81810290505b9392505050565b60006200028482620002d8565b91506200029183620002d8565b9250817fffffffffffffffffffffffffffffffffffffffffffffffffffffffffffffffff0483118215151615620002cd57620002cc620002e2565b5b828202905092915050565b6000819050919050565b7f4e487b7100000000000000000000000000000000000000000000000000000000600052601160045260246000fd5b60008160011c9050919050565b613b52806200032e6000396000f3fe608060405234801561001057600080fd5b50600436106101375760003560e01c80637c726b69116100b8578063bab595231161007c578063bab595231461035c578063bd3ecad114610378578063d10063d3146103a8578063f7395d34146103c6578063f8350ed0146103f6578063fda59f201461042657610137565b80637c726b69146102bc57806384b7a469146102d85780638cc65920146102f4578063925aca7e14610310578063aaa464b51461032c57610137565b8063315b3f5f116100ff578063315b3f5f146101f25780634275fb2c14610222578063442970e214610252578063599ba2341461028257806368eb49491461029e57610137565b80630442a9211461013c578063083aeb9c1461015857806312e855851461018857806321cf91ac146101a65780633155cd09146101c2575b600080fd5b61015660048036038101906101519190612a37565b610442565b005b610172600480360381019061016d9190612bf0565b6104d7565b60405161017f91906131d1565b60405180910390f35b61019061051a565b60405161019d91906131d1565b60405180910390f35b6101c060048036038101906101bb9190612a77565b610524565b005b6101dc60048036038101906101d79190612bf0565b6107e8565b6040516101e99190613014565b60405180910390f35b61020c60048036038101906102079190612bf0565b610af2565b6040516102199190613014565b60405180910390f35b61023c60048036038101906102379190612bf0565b610ebd565b60405161024991906131d1565b60405180910390f35b61026c60048036038101906102679190612bf0565b610f17565b6040516102799190613014565b60405180910390f35b61029c60048036038101906102979190612aca565b6112e2565b005b6102a66118ca565b6040516102b391906131d1565b60405180910390f35b6102d660048036038101906102d19190612bf0565b6118db565b005b6102f260048036038101906102ed91906129e4565b6119e4565b005b61030e600480360381019061030991906129e4565b611ca0565b005b61032a60048036038101906103259190612b31565b611e87565b005b61034660048036038101906103419190612bf0565b612142565b6040516103539190613036565b60405180910390f35b61037660048036038101906103719190612a37565b612173565b005b610392600480360381019061038d9190612bf0565b61258a565b60405161039f91906131d1565b60405180910390f35b6103b06125a7565b6040516103bd9190613036565b60405180910390f35b6103e060048036038101906103db9190612bf0565b6125b3565b6040516103ed91906131d1565b60405180910390f35b610410600480360381019061040b9190612a37565b6125eb565b60405161041d9190613036565b60405180910390f35b610440600480360381019061043b9190612bf0565b612655565b005b60026000541415610488576040517f08c379a000000000000000000000000000000000000000000000000000000000815260040161047f90613171565b60405180910390fd5b6002600081905550600061049b826104d7565b90506104ca83600360009054906101000a900473ffffffffffffffffffffffffffffffffffffffff16836119e4565b5060016000819055505050565b60008060096000848152602001908152602001600020600601549050600060026064836105049190613361565b61050e9190613361565b90508092505050919050565b6000600854905090565b6002600054141561056a576040517f08c379a000000000000000000000000000000000000000000000000000000000815260040161056190613171565b60405180910390fd5b6002600081905550600060096000848152602001908152602001600020600601549050600060096000858152602001908152602001600020600301549050828214156105eb576040517f08c379a00000000000000000000000000000000000000000000000000000000081526004016105e2906130f1565b60405180910390fd5b6064831161062e576040517f08c379a0000000000000000000000000000000000000000000000000000000008152600401610625906130d1565b60405180910390fd5b60006009600086815260200190815260200160002060050160006101000a81548173ffffffffffffffffffffffffffffffffffffffff021916908373ffffffffffffffffffffffffffffffffffffffff160217905550336009600086815260200190815260200160002060040160006101000a81548173ffffffffffffffffffffffffffffffffffffffff021916908373ffffffffffffffffffffffffffffffffffffffff16021790555060006009600086815260200190815260200160002060070160006101000a81548160ff021916908315150217905550600754600a61071791906133e5565b836107229190613503565b6009600086815260200190815260200160002060060181905550610746600261265f565b6001600b60003373ffffffffffffffffffffffffffffffffffffffff1673ffffffffffffffffffffffffffffffffffffffff168152602001908152602001600020600083815260200190815260200160002060008282546107a7919061355d565b925050819055506001600c600083815260200190815260200160002060008282546107d2919061330b565b9250508190555050506001600081905550505050565b606060006107f660016126bb565b9050600080600c60008681526020019081526020016000205467ffffffffffffffff81111561082857610827613725565b5b60405190808252806020026020018201604052801561086157816020015b61084e6126df565b8152602001906001900390816108465790505b50905060005b83811015610ae657600073ffffffffffffffffffffffffffffffffffffffff1660096000600184610898919061330b565b815260200190815260200160002060050160009054906101000a900473ffffffffffffffffffffffffffffffffffffffff1673ffffffffffffffffffffffffffffffffffffffff1614801561090e575085600960006001846108fa919061330b565b815260200190815260200160002060030154145b15610ad357600060096000600184610926919061330b565b815260200190815260200160002060000154905060006009600083815260200190815260200160002090508060405180610100016040529081600082015481526020016001820160009054906101000a900473ffffffffffffffffffffffffffffffffffffffff1673ffffffffffffffffffffffffffffffffffffffff1673ffffffffffffffffffffffffffffffffffffffff16815260200160028201548152602001600382015481526020016004820160009054906101000a900473ffffffffffffffffffffffffffffffffffffffff1673ffffffffffffffffffffffffffffffffffffffff1673ffffffffffffffffffffffffffffffffffffffff1681526020016005820160009054906101000a900473ffffffffffffffffffffffffffffffffffffffff1673ffffffffffffffffffffffffffffffffffffffff1673ffffffffffffffffffffffffffffffffffffffff168152602001600682015481526020016007820160009054906101000a900460ff161515151581525050848681518110610ab657610ab56136f6565b5b6020026020010181905250600185610ace919061330b565b945050505b8080610ade9061364f565b915050610867565b50809350505050919050565b60606000610b0060016126bb565b905060008060005b83811015610bd6573373ffffffffffffffffffffffffffffffffffffffff1660096000600184610b38919061330b565b815260200190815260200160002060050160009054906101000a900473ffffffffffffffffffffffffffffffffffffffff1673ffffffffffffffffffffffffffffffffffffffff16148015610bae57508560096000600184610b9a919061330b565b815260200190815260200160002060030154145b15610bc357600183610bc0919061330b565b92505b8080610bce9061364f565b915050610b08565b5060008267ffffffffffffffff811115610bf357610bf2613725565b5b604051908082528060200260200182016040528015610c2c57816020015b610c196126df565b815260200190600190039081610c115790505b50905060005b84811015610eb0573373ffffffffffffffffffffffffffffffffffffffff1660096000600184610c62919061330b565b815260200190815260200160002060050160009054906101000a900473ffffffffffffffffffffffffffffffffffffffff1673ffffffffffffffffffffffffffffffffffffffff16148015610cd857508660096000600184610cc4919061330b565b815260200190815260200160002060030154145b15610e9d57600060096000600184610cf0919061330b565b815260200190815260200160002060000154905060006009600083815260200190815260200160002090508060405180610100016040529081600082015481526020016001820160009054906101000a900473ffffffffffffffffffffffffffffffffffffffff1673ffffffffffffffffffffffffffffffffffffffff1673ffffffffffffffffffffffffffffffffffffffff16815260200160028201548152602001600382015481526020016004820160009054906101000a900473ffffffffffffffffffffffffffffffffffffffff1673ffffffffffffffffffffffffffffffffffffffff1673ffffffffffffffffffffffffffffffffffffffff1681526020016005820160009054906101000a900473ffffffffffffffffffffffffffffffffffffffff1673ffffffffffffffffffffffffffffffffffffffff1673ffffffffffffffffffffffffffffffffffffffff168152602001600682015481526020016007820160009054906101000a900460ff161515151581525050848681518110610e8057610e7f6136f6565b5b6020026020010181905250600185610e98919061330b565b945050505b8080610ea89061364f565b915050610c32565b5080945050505050919050565b6000600b60003373ffffffffffffffffffffffffffffffffffffffff1673ffffffffffffffffffffffffffffffffffffffff1681526020019081526020016000206000838152602001908152602001600020549050919050565b60606000610f2560016126bb565b905060008060005b83811015610ffb573373ffffffffffffffffffffffffffffffffffffffff1660096000600184610f5d919061330b565b815260200190815260200160002060040160009054906101000a900473ffffffffffffffffffffffffffffffffffffffff1673ffffffffffffffffffffffffffffffffffffffff16148015610fd357508560096000600184610fbf919061330b565b815260200190815260200160002060030154145b15610fe857600183610fe5919061330b565b92505b8080610ff39061364f565b915050610f2d565b5060008267ffffffffffffffff81111561101857611017613725565b5b60405190808252806020026020018201604052801561105157816020015b61103e6126df565b8152602001906001900390816110365790505b50905060005b848110156112d5573373ffffffffffffffffffffffffffffffffffffffff1660096000600184611087919061330b565b815260200190815260200160002060040160009054906101000a900473ffffffffffffffffffffffffffffffffffffffff1673ffffffffffffffffffffffffffffffffffffffff161480156110fd575086600960006001846110e9919061330b565b815260200190815260200160002060030154145b156112c257600060096000600184611115919061330b565b815260200190815260200160002060000154905060006009600083815260200190815260200160002090508060405180610100016040529081600082015481526020016001820160009054906101000a900473ffffffffffffffffffffffffffffffffffffffff1673ffffffffffffffffffffffffffffffffffffffff1673ffffffffffffffffffffffffffffffffffffffff16815260200160028201548152602001600382015481526020016004820160009054906101000a900473ffffffffffffffffffffffffffffffffffffffff1673ffffffffffffffffffffffffffffffffffffffff1673ffffffffffffffffffffffffffffffffffffffff1681526020016005820160009054906101000a900473ffffffffffffffffffffffffffffffffffffffff1673ffffffffffffffffffffffffffffffffffffffff1673ffffffffffffffffffffffffffffffffffffffff168152602001600682015481526020016007820160009054906101000a900460ff1615151515815250508486815181106112a5576112a46136f6565b5b60200260200101819052506001856112bd919061330b565b945050505b80806112cd9061364f565b915050611057565b5080945050505050919050565b60026000541415611328576040517f08c379a000000000000000000000000000000000000000000000000000000000815260040161131f90613171565b60405180910390fd5b600260008190555060008473ffffffffffffffffffffffffffffffffffffffff1663a6d7135a846040518263ffffffff1660e01b815260040161136b91906131d1565b60006040518083038186803b15801561138357600080fd5b505afa158015611397573d6000803e3d6000fd5b505050506040513d6000823e3d601f19601f820116820180604052508101906113c09190612ba7565b606001519050600080600a600087815260200190815260200160002054116113e8578261147b565b8573ffffffffffffffffffffffffffffffffffffffff1663a6d7135a856040518263ffffffff1660e01b815260040161142191906131d1565b60006040518083038186803b15801561143957600080fd5b505afa15801561144d573d6000803e3d6000fd5b505050506040513d6000823e3d601f19601f820116820180604052508101906114769190612ba7565b60a001515b905081600c60008681526020019081526020016000205411156114d3576040517f08c379a00000000000000000000000000000000000000000000000000000000081526004016114ca90613111565b60405180910390fd5b60648111611516576040517f08c379a000000000000000000000000000000000000000000000000000000000815260040161150d906130b1565b60405180910390fd5b61154586600360009054906101000a900473ffffffffffffffffffffffffffffffffffffffff166008546119e4565b61154f60016126c9565b600061155b60016126bb565b90506040518061010001604052808281526020018873ffffffffffffffffffffffffffffffffffffffff1681526020018781526020018681526020013373ffffffffffffffffffffffffffffffffffffffff168152602001600073ffffffffffffffffffffffffffffffffffffffff168152602001600754600a6115df91906133e5565b846115ea9190613503565b815260200160001515815250600960008381526020019081526020016000206000820151816000015560208201518160010160006101000a81548173ffffffffffffffffffffffffffffffffffffffff021916908373ffffffffffffffffffffffffffffffffffffffff160217905550604082015181600201556060820151816003015560808201518160040160006101000a81548173ffffffffffffffffffffffffffffffffffffffff021916908373ffffffffffffffffffffffffffffffffffffffff16021790555060a08201518160050160006101000a81548173ffffffffffffffffffffffffffffffffffffffff021916908373ffffffffffffffffffffffffffffffffffffffff16021790555060c0820151816006015560e08201518160070160006101000a81548160ff02191690831515021790555090505080600a6000888152602001908152602001600020819055508673ffffffffffffffffffffffffffffffffffffffff166323b872dd3330896040518463ffffffff1660e01b815260040161177e93929190612fb4565b600060405180830381600087803b15801561179857600080fd5b505af11580156117ac573d6000803e3d6000fd5b505050508673ffffffffffffffffffffffffffffffffffffffff166371e8069c876040518263ffffffff1660e01b81526004016117e991906131d1565b600060405180830381600087803b15801561180357600080fd5b505af1158015611817573d6000803e3d6000fd5b50505050858773ffffffffffffffffffffffffffffffffffffffff16827f79f8c05bb09c0956360a67fcd99d7cd58b143c2e5965443ccf2238950961eac588336000600754600a61186891906133e5565b896118739190613503565b60006040516118869594939291906131ec565b60405180910390a46001600c600087815260200190815260200160002060008282546118b2919061330b565b92505081905550505050600160008190555050505050565b60006118d660016126bb565b905090565b600360009054906101000a900473ffffffffffffffffffffffffffffffffffffffff1673ffffffffffffffffffffffffffffffffffffffff163373ffffffffffffffffffffffffffffffffffffffff161461196b576040517f08c379a000000000000000000000000000000000000000000000000000000000815260040161196290613131565b60405180910390fd5b600260005414156119b1576040517f08c379a00000000000000000000000000000000000000000000000000000000081526004016119a890613171565b60405180910390fd5b6002600081905550600754600a6119c891906133e5565b816119d39190613503565b600881905550600160008190555050565b60008373ffffffffffffffffffffffffffffffffffffffff1663280aada76040518163ffffffff1660e01b815260040160206040518083038186803b158015611a2c57600080fd5b505afa158015611a40573d6000803e3d6000fd5b505050506040513d601f19601f82011682018060405250810190611a6491906129b7565b9050600081905060008173ffffffffffffffffffffffffffffffffffffffff1663dd62ed3e33306040518363ffffffff1660e01b8152600401611aa8929190612f8b565b60206040518083038186803b158015611ac057600080fd5b505afa158015611ad4573d6000803e3d6000fd5b505050506040513d601f19601f82011682018060405250810190611af89190612c1d565b905083811015611b3d576040517f08c379a0000000000000000000000000000000000000000000000000000000008152600401611b34906131b1565b60405180910390fd5b838273ffffffffffffffffffffffffffffffffffffffff166370a08231336040518263ffffffff1660e01b8152600401611b779190612f70565b60206040518083038186803b158015611b8f57600080fd5b505afa158015611ba3573d6000803e3d6000fd5b505050506040513d601f19601f82011682018060405250810190611bc79190612c1d565b1015611c08576040517f08c379a0000000000000000000000000000000000000000000000000000000008152600401611bff90613151565b60405180910390fd5b8173ffffffffffffffffffffffffffffffffffffffff166323b872dd3387876040518463ffffffff1660e01b8152600401611c4593929190612fb4565b602060405180830381600087803b158015611c5f57600080fd5b505af1158015611c73573d6000803e3d6000fd5b505050506040513d601f19601f82011682018060405250810190611c979190612b7a565b50505050505050565b60008373ffffffffffffffffffffffffffffffffffffffff1663280aada76040518163ffffffff1660e01b815260040160206040518083038186803b158015611ce857600080fd5b505afa158015611cfc573d6000803e3d6000fd5b505050506040513d601f19601f82011682018060405250810190611d2091906129b7565b90506000819050828173ffffffffffffffffffffffffffffffffffffffff166370a08231306040518263ffffffff1660e01b8152600401611d619190612f70565b60206040518083038186803b158015611d7957600080fd5b505afa158015611d8d573d6000803e3d6000fd5b505050506040513d601f19601f82011682018060405250810190611db19190612c1d565b1015611df2576040517f08c379a0000000000000000000000000000000000000000000000000000000008152600401611de990613051565b60405180910390fd5b8073ffffffffffffffffffffffffffffffffffffffff1663a9059cbb85856040518363ffffffff1660e01b8152600401611e2d929190612feb565b602060405180830381600087803b158015611e4757600080fd5b505af1158015611e5b573d6000803e3d6000fd5b505050506040513d601f19601f82011682018060405250810190611e7f9190612b7a565b505050505050565b600360009054906101000a900473ffffffffffffffffffffffffffffffffffffffff1673ffffffffffffffffffffffffffffffffffffffff163373ffffffffffffffffffffffffffffffffffffffff1614611f17576040517f08c379a0000000000000000000000000000000000000000000000000000000008152600401611f0e90613131565b60405180910390fd5b60026000541415611f5d576040517f08c379a0000000000000000000000000000000000000000000000000000000008152600401611f5490613171565b60405180910390fd5b600260008190555060005b81518110156121365760056000838381518110611f8857611f876136f6565b5b602002602001015173ffffffffffffffffffffffffffffffffffffffff1673ffffffffffffffffffffffffffffffffffffffff16815260200190815260200160002060009054906101000a900460ff1615611fe257612123565b600160056000848481518110611ffb57611ffa6136f6565b5b602002602001015173ffffffffffffffffffffffffffffffffffffffff1673ffffffffffffffffffffffffffffffffffffffff16815260200190815260200160002060006101000a81548160ff0219169083151502179055506004828281518110612069576120686136f6565b5b60200260200101519080600181540180825580915050600190039060005260206000200160009091909190916101000a81548173ffffffffffffffffffffffffffffffffffffffff021916908373ffffffffffffffffffffffffffffffffffffffff1602179055507fbf309892cce19064e6d63ba3339f893b199c8cb5041fc6731702cb18e805d291828281518110612105576121046136f6565b5b602002602001015160405161211a9190612f70565b60405180910390a15b808061212e9061364f565b915050611f68565b50600160008190555050565b600080600090506000600a600085815260200190815260200160002054111561216a57600190505b80915050919050565b600260005414156121b9576040517f08c379a00000000000000000000000000000000000000000000000000000000081526004016121b090613171565b60405180910390fd5b600260008190555060006009600083815260200190815260200160002060060154905060006009600084815260200190815260200160002060030154905060006009600085815260200190815260200160002060020154905060008573ffffffffffffffffffffffffffffffffffffffff1663a6d7135a846040518263ffffffff1660e01b815260040161224d91906131d1565b60006040518083038186803b15801561226557600080fd5b505afa158015612279573d6000803e3d6000fd5b505050506040513d6000823e3d601f19601f820116820180604052508101906122a29190612ba7565b6080015190506122b233846125eb565b6122f1576040517f08c379a00000000000000000000000000000000000000000000000000000000081526004016122e890613091565b60405180910390fd5b80600b60003373ffffffffffffffffffffffffffffffffffffffff1673ffffffffffffffffffffffffffffffffffffffff1681526020019081526020016000206000858152602001908152602001600020541115612384576040517f08c379a000000000000000000000000000000000000000000000000000000000815260040161237b90613191565b60405180910390fd5b6123cd866009600088815260200190815260200160002060040160009054906101000a900473ffffffffffffffffffffffffffffffffffffffff166123c8886125b3565b6119e4565b8573ffffffffffffffffffffffffffffffffffffffff166323b872dd3033856040518463ffffffff1660e01b815260040161240a93929190612fb4565b600060405180830381600087803b15801561242457600080fd5b505af1158015612438573d6000803e3d6000fd5b50505050336009600087815260200190815260200160002060050160006101000a81548173ffffffffffffffffffffffffffffffffffffffff021916908373ffffffffffffffffffffffffffffffffffffffff16021790555060016009600087815260200190815260200160002060070160006101000a81548160ff0219169083151502179055506001600b60003373ffffffffffffffffffffffffffffffffffffffff1673ffffffffffffffffffffffffffffffffffffffff16815260200190815260200160002060008581526020019081526020016000206000828254612521919061330b565b925050819055506000600c6000858152602001908152602001600020541115612570576001600c60008581526020019081526020016000206000828254612568919061355d565b925050819055505b61257a60026126c9565b5050505060016000819055505050565b6000600c6000838152602001908152602001600020549050919050565b60008060065411905090565b600080600960008481526020019081526020016000206006015490506125d8836104d7565b816125e3919061355d565b915050919050565b600060065482146125ff576001905061264f565b600560008473ffffffffffffffffffffffffffffffffffffffff1673ffffffffffffffffffffffffffffffffffffffff16815260200190815260200160002060009054906101000a900460ff1690505b92915050565b8060068190555050565b600081600001549050600081116126ab576040517f08c379a00000000000000000000000000000000000000000000000000000000081526004016126a290613071565b60405180910390fd5b6001810382600001819055505050565b600081600001549050919050565b6001816000016000828254019250508190555050565b60405180610100016040528060008152602001600073ffffffffffffffffffffffffffffffffffffffff1681526020016000815260200160008152602001600073ffffffffffffffffffffffffffffffffffffffff168152602001600073ffffffffffffffffffffffffffffffffffffffff168152602001600081526020016000151581525090565b600061277b61277684613264565b61323f565b9050808382526020820190508285602086028201111561279e5761279d613763565b5b60005b858110156127ce57816127b4888261281a565b8452602084019350602083019250506001810190506127a1565b5050509392505050565b60006127eb6127e684613290565b61323f565b90508281526020810184848401111561280757612806613768565b5b6128128482856135eb565b509392505050565b60008135905061282981613ad7565b92915050565b60008151905061283e81613ad7565b92915050565b600082601f83011261285957612858613754565b5b8135612869848260208601612768565b91505092915050565b60008151905061288181613aee565b92915050565b600082601f83011261289c5761289b613754565b5b81516128ac8482602086016127d8565b91505092915050565b600060c082840312156128cb576128ca613759565b5b6128d560c061323f565b905060006128e5848285016129a2565b600083015250602082015167ffffffffffffffff8111156129095761290861375e565b5b61291584828501612887565b602083015250604082015167ffffffffffffffff8111156129395761293861375e565b5b61294584828501612887565b6040830152506060612959848285016129a2565b606083015250608061296d848285016129a2565b60808301525060a0612981848285016129a2565b60a08301525092915050565b60008135905061299c81613b05565b92915050565b6000815190506129b181613b05565b92915050565b6000602082840312156129cd576129cc613772565b5b60006129db8482850161282f565b91505092915050565b6000806000606084860312156129fd576129fc613772565b5b6000612a0b8682870161281a565b9350506020612a1c8682870161281a565b9250506040612a2d8682870161298d565b9150509250925092565b60008060408385031215612a4e57612a4d613772565b5b6000612a5c8582860161281a565b9250506020612a6d8582860161298d565b9150509250929050565b600080600060608486031215612a9057612a8f613772565b5b6000612a9e8682870161281a565b9350506020612aaf8682870161298d565b9250506040612ac08682870161298d565b9150509250925092565b60008060008060808587031215612ae457612ae3613772565b5b6000612af28782880161281a565b9450506020612b038782880161298d565b9350506040612b148782880161298d565b9250506060612b258782880161298d565b91505092959194509250565b600060208284031215612b4757612b46613772565b5b600082013567ffffffffffffffff811115612b6557612b6461376d565b5b612b7184828501612844565b91505092915050565b600060208284031215612b9057612b8f613772565b5b6000612b9e84828501612872565b91505092915050565b600060208284031215612bbd57612bbc613772565b5b600082015167ffffffffffffffff811115612bdb57612bda61376d565b5b612be7848285016128b5565b91505092915050565b600060208284031215612c0657612c05613772565b5b6000612c148482850161298d565b91505092915050565b600060208284031215612c3357612c32613772565b5b6000612c41848285016129a2565b91505092915050565b6000612c568383612eb0565b6101008301905092915050565b612c6c816135a3565b82525050565b612c7b81613591565b82525050565b612c8a81613591565b82525050565b6000612c9b826132d1565b612ca581856132e9565b9350612cb0836132c1565b8060005b83811015612ce1578151612cc88882612c4a565b9750612cd3836132dc565b925050600181019050612cb4565b5085935050505092915050565b612cf7816135b5565b82525050565b612d06816135b5565b82525050565b6000612d196039836132fa565b9150612d2482613795565b604082019050919050565b6000612d3c601b836132fa565b9150612d47826137e4565b602082019050919050565b6000612d5f602a836132fa565b9150612d6a8261380d565b604082019050919050565b6000612d82601f836132fa565b9150612d8d8261385c565b602082019050919050565b6000612da56026836132fa565b9150612db082613885565b604082019050919050565b6000612dc8602d836132fa565b9150612dd3826138d4565b604082019050919050565b6000612deb6044836132fa565b9150612df682613923565b606082019050919050565b6000612e0e6013836132fa565b9150612e1982613998565b602082019050919050565b6000612e316030836132fa565b9150612e3c826139c1565b604082019050919050565b6000612e54601f836132fa565b9150612e5f82613a10565b602082019050919050565b6000612e776033836132fa565b9150612e8282613a39565b604082019050919050565b6000612e9a6027836132fa565b9150612ea582613a88565b604082019050919050565b61010082016000820151612ec76000850182612f52565b506020820151612eda6020850182612c72565b506040820151612eed6040850182612f52565b506060820151612f006060850182612f52565b506080820151612f136080850182612c63565b5060a0820151612f2660a0850182612c63565b5060c0820151612f3960c0850182612f52565b5060e0820151612f4c60e0850182612cee565b50505050565b612f5b816135e1565b82525050565b612f6a816135e1565b82525050565b6000602082019050612f856000830184612c81565b92915050565b6000604082019050612fa06000830185612c81565b612fad6020830184612c81565b9392505050565b6000606082019050612fc96000830186612c81565b612fd66020830185612c81565b612fe36040830184612f61565b949350505050565b60006040820190506130006000830185612c81565b61300d6020830184612f61565b9392505050565b6000602082019050818103600083015261302e8184612c90565b905092915050565b600060208201905061304b6000830184612cfd565b92915050565b6000602082019050818103600083015261306a81612d0c565b9050919050565b6000602082019050818103600083015261308a81612d2f565b9050919050565b600060208201905081810360008301526130aa81612d52565b9050919050565b600060208201905081810360008301526130ca81612d75565b9050919050565b600060208201905081810360008301526130ea81612d98565b9050919050565b6000602082019050818103600083015261310a81612dbb565b9050919050565b6000602082019050818103600083015261312a81612dde565b9050919050565b6000602082019050818103600083015261314a81612e01565b9050919050565b6000602082019050818103600083015261316a81612e24565b9050919050565b6000602082019050818103600083015261318a81612e47565b9050919050565b600060208201905081810360008301526131aa81612e6a565b9050919050565b600060208201905081810360008301526131ca81612e8d565b9050919050565b60006020820190506131e66000830184612f61565b92915050565b600060a0820190506132016000830188612f61565b61320e6020830187612c81565b61321b6040830186612c81565b6132286060830185612f61565b6132356080830184612cfd565b9695505050505050565b600061324961325a565b9050613255828261361e565b919050565b6000604051905090565b600067ffffffffffffffff82111561327f5761327e613725565b5b602082029050602081019050919050565b600067ffffffffffffffff8211156132ab576132aa613725565b5b6132b482613777565b9050602081019050919050565b6000819050602082019050919050565b600081519050919050565b6000602082019050919050565b600082825260208201905092915050565b600082825260208201905092915050565b6000613316826135e1565b9150613321836135e1565b9250827fffffffffffffffffffffffffffffffffffffffffffffffffffffffffffffffff0382111561335657613355613698565b5b828201905092915050565b600061336c826135e1565b9150613377836135e1565b925082613387576133866136c7565b5b828204905092915050565b6000808291508390505b60018511156133dc578086048111156133b8576133b7613698565b5b60018516156133c75780820291505b80810290506133d585613788565b945061339c565b94509492505050565b60006133f0826135e1565b91506133fb836135e1565b92506134287fffffffffffffffffffffffffffffffffffffffffffffffffffffffffffffffff8484613430565b905092915050565b60008261344057600190506134fc565b8161344e57600090506134fc565b8160018114613464576002811461346e5761349d565b60019150506134fc565b60ff8411156134805761347f613698565b5b8360020a91508482111561349757613496613698565b5b506134fc565b5060208310610133831016604e8410600b84101617156134d25782820a9050838111156134cd576134cc613698565b5b6134fc565b6134df8484846001613392565b925090508184048111156134f6576134f5613698565b5b81810290505b9392505050565b600061350e826135e1565b9150613519836135e1565b9250817fffffffffffffffffffffffffffffffffffffffffffffffffffffffffffffffff048311821515161561355257613551613698565b5b828202905092915050565b6000613568826135e1565b9150613573836135e1565b92508282101561358657613585613698565b5b828203905092915050565b600061359c826135c1565b9050919050565b60006135ae826135c1565b9050919050565b60008115159050919050565b600073ffffffffffffffffffffffffffffffffffffffff82169050919050565b6000819050919050565b60005b838110156136095780820151818401526020810190506135ee565b83811115613618576000848401525b50505050565b61362782613777565b810181811067ffffffffffffffff8211171561364657613645613725565b5b80604052505050565b600061365a826135e1565b91507fffffffffffffffffffffffffffffffffffffffffffffffffffffffffffffffff82141561368d5761368c613698565b5b600182019050919050565b7f4e487b7100000000000000000000000000000000000000000000000000000000600052601160045260246000fd5b7f4e487b7100000000000000000000000000000000000000000000000000000000600052601260045260246000fd5b7f4e487b7100000000000000000000000000000000000000000000000000000000600052603260045260246000fd5b7f4e487b7100000000000000000000000000000000000000000000000000000000600052604160045260246000fd5b600080fd5b600080fd5b600080fd5b600080fd5b600080fd5b600080fd5b600080fd5b6000601f19601f8301169050919050565b60008160011c9050919050565b7f636f6e74726163742062616c616e636520697320746f6f20736d616c6c2c207960008201527f6f752063616e27742070617920666f72206d696e74696e672e00000000000000602082015250565b7f436f756e7465723a2064656372656d656e74206f766572666c6f770000000000600082015250565b7f73656e646572206973206e6f7420616c6c6f776564207769746820746869732060008201527f636f6c6c656374696f6e00000000000000000000000000000000000000000000602082015250565b7f5072696365206d757374206265206174206c65617374203130302041444d4300600082015250565b7f7072696365206d7573742062652073657420626967676572207468616e20313060008201527f302041444d430000000000000000000000000000000000000000000000000000602082015250565b7f75706461746564207072696365206d757374206265206e6f742073616d65207760008201527f697468206f6c6420707269636500000000000000000000000000000000000000602082015250565b7f546865206d696e74696e6720636f756e74206f766572666c6f777320746f746160008201527f6c20636f756e7420696e207468652063757272656e7420636f6c6c656374696f60208201527f6e20696400000000000000000000000000000000000000000000000000000000604082015250565b7f556e617574686f72697365642041636365737300000000000000000000000000600082015250565b7f62616c616e636520697320746f6f20736d616c6c2c20796f752063616e27742060008201527f70617920666f72206d696e74696e672e00000000000000000000000000000000602082015250565b7f5265656e7472616e637947756172643a207265656e7472616e742063616c6c00600082015250565b7f6974656d20636f756e74206f776e6564206279206f776e6572206973206f766560008201527f72666c6f77206c696d6974656420636f756e7400000000000000000000000000602082015250565b7f636f73742069732074686520736d616c6c6572207468616e20616c6c6f77656460008201527f20616d6f756e7400000000000000000000000000000000000000000000000000602082015250565b613ae081613591565b8114613aeb57600080fd5b50565b613af7816135b5565b8114613b0257600080fd5b50565b613b0e816135e1565b8114613b1957600080fd5b5056fea264697066735822122012226d989e9f8e2f58747699a92137f1a4f771231de12297393b8718672bd2ca64736f6c63430008050033",
  "linkReferences": {},
  "deployedLinkReferences": {}
}