{
  "_format": "hh-sol-artifact-1",
  "contractName": "NFT",
  "sourceName": "contracts/NFT.sol",
  "abi": [
    {
      "inputs": [
        {
          "internalType": "address",
          "name": "marketplaceAddress",
          "type": "address"
        }
      ],
      "stateMutability": "nonpayable",
      "type": "constructor"
    },
    {
      "anonymous": false,
      "inputs": [
        {
          "indexed": true,
          "internalType": "address",
          "name": "owner",
          "type": "address"
        },
        {
          "indexed": true,
          "internalType": "address",
          "name": "approved",
          "type": "address"
        },
        {
          "indexed": true,
          "internalType": "uint256",
          "name": "tokenId",
          "type": "uint256"
        }
      ],
      "name": "Approval",
      "type": "event"
    },
    {
      "anonymous": false,
      "inputs": [
        {
          "indexed": true,
          "internalType": "address",
          "name": "owner",
          "type": "address"
        },
        {
          "indexed": true,
          "internalType": "address",
          "name": "operator",
          "type": "address"
        },
        {
          "indexed": false,
          "internalType": "bool",
          "name": "approved",
          "type": "bool"
        }
      ],
      "name": "ApprovalForAll",
      "type": "event"
    },
    {
      "anonymous": false,
      "inputs": [
        {
          "indexed": true,
          "internalType": "uint256",
          "name": "id",
          "type": "uint256"
        },
        {
          "indexed": false,
          "internalType": "string",
          "name": "name",
          "type": "string"
        },
        {
          "indexed": false,
          "internalType": "string",
          "name": "collectionUri",
          "type": "string"
        },
        {
          "indexed": false,
          "internalType": "uint256",
          "name": "totalMints",
          "type": "uint256"
        },
        {
          "indexed": false,
          "internalType": "uint256",
          "name": "limits",
          "type": "uint256"
        },
        {
          "indexed": false,
          "internalType": "uint256",
          "name": "price",
          "type": "uint256"
        }
      ],
      "name": "CollectionCreated",
      "type": "event"
    },
    {
      "anonymous": false,
      "inputs": [
        {
          "indexed": false,
          "internalType": "uint256",
          "name": "_mintingPrice",
          "type": "uint256"
        }
      ],
      "name": "MintingPriceChanged",
      "type": "event"
    },
    {
      "anonymous": false,
      "inputs": [
        {
          "indexed": true,
          "internalType": "address",
          "name": "from",
          "type": "address"
        },
        {
          "indexed": true,
          "internalType": "address",
          "name": "to",
          "type": "address"
        },
        {
          "indexed": true,
          "internalType": "uint256",
          "name": "tokenId",
          "type": "uint256"
        }
      ],
      "name": "Transfer",
      "type": "event"
    },
    {
      "inputs": [
        {
          "internalType": "string",
          "name": "collectionName",
          "type": "string"
        },
        {
          "internalType": "string",
          "name": "uri",
          "type": "string"
        },
        {
          "internalType": "uint256",
          "name": "totalMints",
          "type": "uint256"
        },
        {
          "internalType": "uint256",
          "name": "limits",
          "type": "uint256"
        },
        {
          "internalType": "uint256",
          "name": "price",
          "type": "uint256"
        }
      ],
      "name": "addCollection",
      "outputs": [],
      "stateMutability": "nonpayable",
      "type": "function"
    },
    {
      "inputs": [
        {
          "internalType": "address",
          "name": "to",
          "type": "address"
        },
        {
          "internalType": "uint256",
          "name": "tokenId",
          "type": "uint256"
        }
      ],
      "name": "approve",
      "outputs": [],
      "stateMutability": "nonpayable",
      "type": "function"
    },
    {
      "inputs": [
        {
          "internalType": "address",
          "name": "owner",
          "type": "address"
        }
      ],
      "name": "balanceOf",
      "outputs": [
        {
          "internalType": "uint256",
          "name": "",
          "type": "uint256"
        }
      ],
      "stateMutability": "view",
      "type": "function"
    },
    {
      "inputs": [],
      "name": "fetchCollections",
      "outputs": [
        {
          "components": [
            {
              "internalType": "uint256",
              "name": "id",
              "type": "uint256"
            },
            {
              "internalType": "string",
              "name": "name",
              "type": "string"
            },
            {
              "internalType": "string",
              "name": "collectionUri",
              "type": "string"
            },
            {
              "internalType": "uint256",
              "name": "totalMints",
              "type": "uint256"
            },
            {
              "internalType": "uint256",
              "name": "limits",
              "type": "uint256"
            },
            {
              "internalType": "uint256",
              "name": "price",
              "type": "uint256"
            }
          ],
          "internalType": "struct NFT.CollectionInfo[]",
          "name": "",
          "type": "tuple[]"
        }
      ],
      "stateMutability": "view",
      "type": "function"
    },
    {
      "inputs": [
        {
          "internalType": "uint256",
          "name": "_collectionId",
          "type": "uint256"
        }
      ],
      "name": "fetchMyNFTS",
      "outputs": [
        {
          "components": [
            {
              "internalType": "uint256",
              "name": "collectionId",
              "type": "uint256"
            },
            {
              "internalType": "uint256",
              "name": "tokenId",
              "type": "uint256"
            },
            {
              "internalType": "address",
              "name": "tokenOwner",
              "type": "address"
            },
            {
              "internalType": "bool",
              "name": "sold",
              "type": "bool"
            }
          ],
          "internalType": "struct NFT.TokenInfo[]",
          "name": "",
          "type": "tuple[]"
        }
      ],
      "stateMutability": "view",
      "type": "function"
    },
    {
      "inputs": [
        {
          "internalType": "uint256",
          "name": "tokenId",
          "type": "uint256"
        }
      ],
      "name": "getApproved",
      "outputs": [
        {
          "internalType": "address",
          "name": "",
          "type": "address"
        }
      ],
      "stateMutability": "view",
      "type": "function"
    },
    {
      "inputs": [
        {
          "internalType": "uint256",
          "name": "collectionId",
          "type": "uint256"
        }
      ],
      "name": "getCollectionInfoByCid",
      "outputs": [
        {
          "components": [
            {
              "internalType": "uint256",
              "name": "id",
              "type": "uint256"
            },
            {
              "internalType": "string",
              "name": "name",
              "type": "string"
            },
            {
              "internalType": "string",
              "name": "collectionUri",
              "type": "string"
            },
            {
              "internalType": "uint256",
              "name": "totalMints",
              "type": "uint256"
            },
            {
              "internalType": "uint256",
              "name": "limits",
              "type": "uint256"
            },
            {
              "internalType": "uint256",
              "name": "price",
              "type": "uint256"
            }
          ],
          "internalType": "struct NFT.CollectionInfo",
          "name": "",
          "type": "tuple"
        }
      ],
      "stateMutability": "view",
      "type": "function"
    },
    {
      "inputs": [
        {
          "internalType": "uint256",
          "name": "tokenId",
          "type": "uint256"
        }
      ],
      "name": "getCollectionInfoByTid",
      "outputs": [
        {
          "components": [
            {
              "internalType": "uint256",
              "name": "id",
              "type": "uint256"
            },
            {
              "internalType": "string",
              "name": "name",
              "type": "string"
            },
            {
              "internalType": "string",
              "name": "collectionUri",
              "type": "string"
            },
            {
              "internalType": "uint256",
              "name": "totalMints",
              "type": "uint256"
            },
            {
              "internalType": "uint256",
              "name": "limits",
              "type": "uint256"
            },
            {
              "internalType": "uint256",
              "name": "price",
              "type": "uint256"
            }
          ],
          "internalType": "struct NFT.CollectionInfo",
          "name": "",
          "type": "tuple"
        }
      ],
      "stateMutability": "view",
      "type": "function"
    },
    {
      "inputs": [],
      "name": "getCurrentCollectionId",
      "outputs": [
        {
          "internalType": "uint256",
          "name": "",
          "type": "uint256"
        }
      ],
      "stateMutability": "view",
      "type": "function"
    },
    {
      "inputs": [
        {
          "internalType": "uint256",
          "name": "collectionId",
          "type": "uint256"
        }
      ],
      "name": "getCurrentCountForCollection",
      "outputs": [
        {
          "internalType": "uint256",
          "name": "",
          "type": "uint256"
        }
      ],
      "stateMutability": "view",
      "type": "function"
    },
    {
      "inputs": [],
      "name": "getCurrentTokenId",
      "outputs": [
        {
          "internalType": "uint256",
          "name": "",
          "type": "uint256"
        }
      ],
      "stateMutability": "view",
      "type": "function"
    },
    {
      "inputs": [],
      "name": "getMintingPrice",
      "outputs": [
        {
          "internalType": "uint256",
          "name": "",
          "type": "uint256"
        }
      ],
      "stateMutability": "view",
      "type": "function"
    },
    {
      "inputs": [],
      "name": "getOwner",
      "outputs": [
        {
          "internalType": "address",
          "name": "",
          "type": "address"
        }
      ],
      "stateMutability": "view",
      "type": "function"
    },
    {
      "inputs": [],
      "name": "getPayableCoin",
      "outputs": [
        {
          "internalType": "address",
          "name": "",
          "type": "address"
        }
      ],
      "stateMutability": "view",
      "type": "function"
    },
    {
      "inputs": [
        {
          "internalType": "uint256",
          "name": "tokenId",
          "type": "uint256"
        }
      ],
      "name": "getURI",
      "outputs": [
        {
          "internalType": "string",
          "name": "",
          "type": "string"
        }
      ],
      "stateMutability": "view",
      "type": "function"
    },
    {
      "inputs": [
        {
          "internalType": "address",
          "name": "owner",
          "type": "address"
        },
        {
          "internalType": "address",
          "name": "operator",
          "type": "address"
        }
      ],
      "name": "isApprovedForAll",
      "outputs": [
        {
          "internalType": "bool",
          "name": "",
          "type": "bool"
        }
      ],
      "stateMutability": "view",
      "type": "function"
    },
    {
      "inputs": [],
      "name": "m_addressPayCoin",
      "outputs": [
        {
          "internalType": "address",
          "name": "",
          "type": "address"
        }
      ],
      "stateMutability": "view",
      "type": "function"
    },
    {
      "inputs": [
        {
          "internalType": "uint256",
          "name": "collectionId",
          "type": "uint256"
        }
      ],
      "name": "mintToken",
      "outputs": [
        {
          "internalType": "uint256",
          "name": "",
          "type": "uint256"
        }
      ],
      "stateMutability": "nonpayable",
      "type": "function"
    },
    {
      "inputs": [],
      "name": "name",
      "outputs": [
        {
          "internalType": "string",
          "name": "",
          "type": "string"
        }
      ],
      "stateMutability": "view",
      "type": "function"
    },
    {
      "inputs": [
        {
          "internalType": "uint256",
          "name": "tokenId",
          "type": "uint256"
        }
      ],
      "name": "ownerOf",
      "outputs": [
        {
          "internalType": "address",
          "name": "",
          "type": "address"
        }
      ],
      "stateMutability": "view",
      "type": "function"
    },
    {
      "inputs": [
        {
          "internalType": "address",
          "name": "from",
          "type": "address"
        },
        {
          "internalType": "address",
          "name": "to",
          "type": "address"
        },
        {
          "internalType": "uint256",
          "name": "tokenId",
          "type": "uint256"
        }
      ],
      "name": "safeTransferFrom",
      "outputs": [],
      "stateMutability": "nonpayable",
      "type": "function"
    },
    {
      "inputs": [
        {
          "internalType": "address",
          "name": "from",
          "type": "address"
        },
        {
          "internalType": "address",
          "name": "to",
          "type": "address"
        },
        {
          "internalType": "uint256",
          "name": "tokenId",
          "type": "uint256"
        },
        {
          "internalType": "bytes",
          "name": "_data",
          "type": "bytes"
        }
      ],
      "name": "safeTransferFrom",
      "outputs": [],
      "stateMutability": "nonpayable",
      "type": "function"
    },
    {
      "inputs": [
        {
          "internalType": "address",
          "name": "operator",
          "type": "address"
        },
        {
          "internalType": "bool",
          "name": "approved",
          "type": "bool"
        }
      ],
      "name": "setApprovalForAll",
      "outputs": [],
      "stateMutability": "nonpayable",
      "type": "function"
    },
    {
      "inputs": [
        {
          "internalType": "uint256",
          "name": "mintingPrice",
          "type": "uint256"
        }
      ],
      "name": "setMintingPrice",
      "outputs": [],
      "stateMutability": "nonpayable",
      "type": "function"
    },
    {
      "inputs": [
        {
          "internalType": "uint256",
          "name": "tokenId",
          "type": "uint256"
        }
      ],
      "name": "setStatusForToken",
      "outputs": [],
      "stateMutability": "nonpayable",
      "type": "function"
    },
    {
      "inputs": [
        {
          "internalType": "uint256",
          "name": "tokenId",
          "type": "uint256"
        }
      ],
      "name": "statusForToken",
      "outputs": [
        {
          "internalType": "bool",
          "name": "",
          "type": "bool"
        }
      ],
      "stateMutability": "view",
      "type": "function"
    },
    {
      "inputs": [
        {
          "internalType": "bytes4",
          "name": "interfaceId",
          "type": "bytes4"
        }
      ],
      "name": "supportsInterface",
      "outputs": [
        {
          "internalType": "bool",
          "name": "",
          "type": "bool"
        }
      ],
      "stateMutability": "view",
      "type": "function"
    },
    {
      "inputs": [],
      "name": "symbol",
      "outputs": [
        {
          "internalType": "string",
          "name": "",
          "type": "string"
        }
      ],
      "stateMutability": "view",
      "type": "function"
    },
    {
      "inputs": [
        {
          "internalType": "uint256",
          "name": "tokenId",
          "type": "uint256"
        }
      ],
      "name": "tokenURI",
      "outputs": [
        {
          "internalType": "string",
          "name": "",
          "type": "string"
        }
      ],
      "stateMutability": "view",
      "type": "function"
    },
    {
      "inputs": [
        {
          "internalType": "address",
          "name": "from",
          "type": "address"
        },
        {
          "internalType": "address",
          "name": "to",
          "type": "address"
        },
        {
          "internalType": "uint256",
          "name": "tokenId",
          "type": "uint256"
        }
      ],
      "name": "transferFrom",
      "outputs": [],
      "stateMutability": "nonpayable",
      "type": "function"
    }
  ],
  "bytecode": "0x60806040526012600955600954600a6200001a919062000387565b620186a06200002a9190620004c4565b600a5573aede035c3c14ec50ddf8eaf9007a4699d261b5ae600b60006101000a81548173ffffffffffffffffffffffffffffffffffffffff021916908373ffffffffffffffffffffffffffffffffffffffff160217905550731fe35381e6fb8580b05bc297f82fd0da01cf75bd600c60006101000a81548173ffffffffffffffffffffffffffffffffffffffff021916908373ffffffffffffffffffffffffffffffffffffffff160217905550348015620000e457600080fd5b506040516200510f3803806200510f83398181016040528101906200010a9190620002fa565b6040518060400160405280601181526020017f4164616d616e74204368617261637465720000000000000000000000000000008152506040518060400160405280600581526020017f41444d434300000000000000000000000000000000000000000000000000000081525081600090805190602001906200018e92919062000233565b508060019080519060200190620001a792919062000233565b50505033600c60006101000a81548173ffffffffffffffffffffffffffffffffffffffff021916908373ffffffffffffffffffffffffffffffffffffffff16021790555080600d60006101000a81548173ffffffffffffffffffffffffffffffffffffffff021916908373ffffffffffffffffffffffffffffffffffffffff1602179055505062000623565b828054620002419062000563565b90600052602060002090601f016020900481019282620002655760008555620002b1565b82601f106200028057805160ff1916838001178555620002b1565b82800160010185558215620002b1579182015b82811115620002b057825182559160200191906001019062000293565b5b509050620002c09190620002c4565b5090565b5b80821115620002df576000816000905550600101620002c5565b5090565b600081519050620002f48162000609565b92915050565b600060208284031215620003135762000312620005f7565b5b60006200032384828501620002e3565b91505092915050565b6000808291508390505b60018511156200037e5780860481111562000356576200035562000599565b5b6001851615620003665780820291505b80810290506200037685620005fc565b945062000336565b94509492505050565b6000620003948262000559565b9150620003a18362000559565b9250620003d07fffffffffffffffffffffffffffffffffffffffffffffffffffffffffffffffff8484620003d8565b905092915050565b600082620003ea5760019050620004bd565b81620003fa5760009050620004bd565b81600181146200041357600281146200041e5762000454565b6001915050620004bd565b60ff84111562000433576200043262000599565b5b8360020a9150848211156200044d576200044c62000599565b5b50620004bd565b5060208310610133831016604e8410600b84101617156200048e5782820a90508381111562000488576200048762000599565b5b620004bd565b6200049d84848460016200032c565b92509050818404811115620004b757620004b662000599565b5b81810290505b9392505050565b6000620004d18262000559565b9150620004de8362000559565b9250817fffffffffffffffffffffffffffffffffffffffffffffffffffffffffffffffff04831182151516156200051a576200051962000599565b5b828202905092915050565b6000620005328262000539565b9050919050565b600073ffffffffffffffffffffffffffffffffffffffff82169050919050565b6000819050919050565b600060028204905060018216806200057c57607f821691505b60208210811415620005935762000592620005c8565b5b50919050565b7f4e487b7100000000000000000000000000000000000000000000000000000000600052601160045260246000fd5b7f4e487b7100000000000000000000000000000000000000000000000000000000600052602260045260246000fd5b600080fd5b60008160011c9050919050565b620006148162000525565b81146200062057600080fd5b50565b614adc80620006336000396000f3fe608060405234801561001057600080fd5b50600436106101da5760003560e01c806371e8069c11610104578063a6d7135a116100a2578063c87b56dd11610071578063c87b56dd146105a1578063d2ead4cb146105d1578063e985e9c5146105ef578063fa80f7ee1461061f576101da565b8063a6d7135a14610509578063b88d4fde14610539578063c43aecd114610555578063c634d03214610571576101da565b8063893d20e8116100de578063893d20e8146104935780638be39fe9146104b157806395d89b41146104cf578063a22cb465146104ed576101da565b806371e8069c1461043d57806377d24762146104595780638417b47f14610477576101da565b8063280aada71161017c578063561892361161014b578063561892361461038f5780636352211e146103ad57806366ef5639146103dd57806370a082311461040d576101da565b8063280aada7146102f55780632d8c97b414610313578063315b3f5f1461034357806342842e0e14610373576101da565b8063081812fc116101b8578063081812fc1461025d578063095ea7b31461028d5780631aa347dc146102a957806323b872dd146102d9576101da565b80630178327c146101df57806301ffc9a71461020f57806306fdde031461023f575b600080fd5b6101f960048036038101906101f491906131eb565b61063d565b6040516102069190613a20565b60405180910390f35b610229600480360381019061022491906130de565b610689565b6040516102369190613a20565b60405180910390f35b61024761076b565b6040516102549190613a3b565b60405180910390f35b610277600480360381019061027291906131eb565b6107fd565b6040516102849190613915565b60405180910390f35b6102a760048036038101906102a29190613071565b610882565b005b6102c360048036038101906102be91906131eb565b61099a565b6040516102d09190613a3b565b60405180910390f35b6102f360048036038101906102ee9190612f5b565b6109ac565b005b6102fd610a0c565b60405161030a9190613915565b60405180910390f35b61032d600480360381019061032891906131eb565b610a36565b60405161033a9190613da0565b60405180910390f35b61035d600480360381019061035891906131eb565b610a90565b60405161036a91906139fe565b60405180910390f35b61038d60048036038101906103889190612f5b565b610cc2565b005b610397610ce2565b6040516103a49190613da0565b60405180910390f35b6103c760048036038101906103c291906131eb565b610cf3565b6040516103d49190613915565b60405180910390f35b6103f760048036038101906103f291906131eb565b610da5565b6040516104049190613d7e565b60405180910390f35b61042760048036038101906104229190612eee565b610f37565b6040516104349190613da0565b60405180910390f35b610457600480360381019061045291906131eb565b610fef565b005b610461611059565b60405161046e9190613da0565b60405180910390f35b610491600480360381019061048c91906131eb565b611063565b005b61049b61114d565b6040516104a89190613915565b60405180910390f35b6104b9611177565b6040516104c69190613da0565b60405180910390f35b6104d7611188565b6040516104e49190613a3b565b60405180910390f35b61050760048036038101906105029190613031565b61121a565b005b610523600480360381019061051e91906131eb565b61139b565b6040516105309190613d7e565b60405180910390f35b610553600480360381019061054e9190612fae565b611514565b005b61056f600480360381019061056a9190613138565b611576565b005b61058b600480360381019061058691906131eb565b611699565b6040516105989190613da0565b60405180910390f35b6105bb60048036038101906105b691906131eb565b611ccf565b6040516105c89190613a3b565b60405180910390f35b6105d9611e21565b6040516105e691906139dc565b60405180910390f35b61060960048036038101906106049190612f1b565b612047565b6040516106169190613a20565b60405180910390f35b6106276120db565b6040516106349190613915565b60405180910390f35b600080600090506000600190505b6106556007612101565b811161067f578381141561066c576001915061067f565b8080610677906142a7565b91505061064b565b5080915050919050565b60007f80ac58cd000000000000000000000000000000000000000000000000000000007bffffffffffffffffffffffffffffffffffffffffffffffffffffffff1916827bffffffffffffffffffffffffffffffffffffffffffffffffffffffff1916148061075457507f5b5e139f000000000000000000000000000000000000000000000000000000007bffffffffffffffffffffffffffffffffffffffffffffffffffffffff1916827bffffffffffffffffffffffffffffffffffffffffffffffffffffffff1916145b8061076457506107638261210f565b5b9050919050565b60606000805461077a90614244565b80601f01602080910402602001604051908101604052809291908181526020018280546107a690614244565b80156107f35780601f106107c8576101008083540402835291602001916107f3565b820191906000526020600020905b8154815290600101906020018083116107d657829003601f168201915b5050505050905090565b600061080882612179565b610847576040517f08c379a000000000000000000000000000000000000000000000000000000000815260040161083e90613c9e565b60405180910390fd5b6004600083815260200190815260200160002060009054906101000a900473ffffffffffffffffffffffffffffffffffffffff169050919050565b600061088d82610cf3565b90508073ffffffffffffffffffffffffffffffffffffffff168373ffffffffffffffffffffffffffffffffffffffff1614156108fe576040517f08c379a00000000000000000000000000000000000000000000000000000000081526004016108f590613d1e565b60405180910390fd5b8073ffffffffffffffffffffffffffffffffffffffff1661091d6121e5565b73ffffffffffffffffffffffffffffffffffffffff16148061094c575061094b816109466121e5565b612047565b5b61098b576040517f08c379a000000000000000000000000000000000000000000000000000000000815260040161098290613bde565b60405180910390fd5b61099583836121ed565b505050565b60606109a582611ccf565b9050919050565b6109bd6109b76121e5565b826122a6565b6109fc576040517f08c379a00000000000000000000000000000000000000000000000000000000081526004016109f390613d3e565b60405180910390fd5b610a07838383612384565b505050565b6000600b60009054906101000a900473ffffffffffffffffffffffffffffffffffffffff16905090565b6000601160003373ffffffffffffffffffffffffffffffffffffffff1673ffffffffffffffffffffffffffffffffffffffff1681526020019081526020016000206000838152602001908152602001600020549050919050565b6060600080600190505b610aa46007612101565b8111610b17576010600082815260200190815260200160002060020160149054906101000a900460ff16158015610af05750836010600083815260200190815260200160002060000154145b15610b04578180610b00906142a7565b9250505b8080610b0f906142a7565b915050610a9a565b506000808267ffffffffffffffff811115610b3557610b346143dd565b5b604051908082528060200260200182016040528015610b6e57816020015b610b5b612c62565b815260200190600190039081610b535790505b5090506000600190505b610b826007612101565b8111610cb6576010600082815260200190815260200160002060020160149054906101000a900460ff16158015610bce5750856010600083815260200190815260200160002060000154145b15610ca3576010600082815260200190815260200160002060405180608001604052908160008201548152602001600182015481526020016002820160009054906101000a900473ffffffffffffffffffffffffffffffffffffffff1673ffffffffffffffffffffffffffffffffffffffff1673ffffffffffffffffffffffffffffffffffffffff1681526020016002820160149054906101000a900460ff161515151581525050828481518110610c8957610c886143ae565b5b60200260200101819052508280610c9f906142a7565b9350505b8080610cae906142a7565b915050610b78565b50809350505050919050565b610cdd83838360405180602001604052806000815250611514565b505050565b6000610cee6007612101565b905090565b6000806002600084815260200190815260200160002060009054906101000a900473ffffffffffffffffffffffffffffffffffffffff169050600073ffffffffffffffffffffffffffffffffffffffff168173ffffffffffffffffffffffffffffffffffffffff161415610d9c576040517f08c379a0000000000000000000000000000000000000000000000000000000008152600401610d9390613c1e565b60405180910390fd5b80915050919050565b610dad612ca2565b6000600f6000848152602001908152602001600020549050600e60008281526020019081526020016000206040518060c001604052908160008201548152602001600182018054610dfd90614244565b80601f0160208091040260200160405190810160405280929190818152602001828054610e2990614244565b8015610e765780601f10610e4b57610100808354040283529160200191610e76565b820191906000526020600020905b815481529060010190602001808311610e5957829003601f168201915b50505050508152602001600282018054610e8f90614244565b80601f0160208091040260200160405190810160405280929190818152602001828054610ebb90614244565b8015610f085780601f10610edd57610100808354040283529160200191610f08565b820191906000526020600020905b815481529060010190602001808311610eeb57829003601f168201915b505050505081526020016003820154815260200160048201548152602001600582015481525050915050919050565b60008073ffffffffffffffffffffffffffffffffffffffff168273ffffffffffffffffffffffffffffffffffffffff161415610fa8576040517f08c379a0000000000000000000000000000000000000000000000000000000008152600401610f9f90613bfe565b60405180910390fd5b600360008373ffffffffffffffffffffffffffffffffffffffff1673ffffffffffffffffffffffffffffffffffffffff168152602001908152602001600020549050919050565b6000600190505b6110006007612101565b811161105557818114156110425760016010600083815260200190815260200160002060020160146101000a81548160ff021916908315150217905550611055565b808061104d906142a7565b915050610ff6565b5050565b6000600a54905090565b600c60009054906101000a900473ffffffffffffffffffffffffffffffffffffffff1673ffffffffffffffffffffffffffffffffffffffff163373ffffffffffffffffffffffffffffffffffffffff16146110f3576040517f08c379a00000000000000000000000000000000000000000000000000000000081526004016110ea90613cfe565b60405180910390fd5b600954600a6111029190613fe2565b8161110d9190614100565b600a819055507fc1964616a7065e86f052b90db1a318ac253fc8e701b705f4eca06c0af34047e5816040516111429190613da0565b60405180910390a150565b6000600c60009054906101000a900473ffffffffffffffffffffffffffffffffffffffff16905090565b60006111836008612101565b905090565b60606001805461119790614244565b80601f01602080910402602001604051908101604052809291908181526020018280546111c390614244565b80156112105780601f106111e557610100808354040283529160200191611210565b820191906000526020600020905b8154815290600101906020018083116111f357829003601f168201915b5050505050905090565b6112226121e5565b73ffffffffffffffffffffffffffffffffffffffff168273ffffffffffffffffffffffffffffffffffffffff161415611290576040517f08c379a000000000000000000000000000000000000000000000000000000000815260040161128790613b7e565b60405180910390fd5b806005600061129d6121e5565b73ffffffffffffffffffffffffffffffffffffffff1673ffffffffffffffffffffffffffffffffffffffff16815260200190815260200160002060008473ffffffffffffffffffffffffffffffffffffffff1673ffffffffffffffffffffffffffffffffffffffff16815260200190815260200160002060006101000a81548160ff0219169083151502179055508173ffffffffffffffffffffffffffffffffffffffff1661134a6121e5565b73ffffffffffffffffffffffffffffffffffffffff167f17307eab39ab6107e8899845ad3d59bd9653f200f220920489ca2b5937696c318360405161138f9190613a20565b60405180910390a35050565b6113a3612ca2565b600e60008381526020019081526020016000206040518060c0016040529081600082015481526020016001820180546113db90614244565b80601f016020809104026020016040519081016040528092919081815260200182805461140790614244565b80156114545780601f1061142957610100808354040283529160200191611454565b820191906000526020600020905b81548152906001019060200180831161143757829003601f168201915b5050505050815260200160028201805461146d90614244565b80601f016020809104026020016040519081016040528092919081815260200182805461149990614244565b80156114e65780601f106114bb576101008083540402835291602001916114e6565b820191906000526020600020905b8154815290600101906020018083116114c957829003601f168201915b5050505050815260200160038201548152602001600482015481526020016005820154815250509050919050565b61152561151f6121e5565b836122a6565b611564576040517f08c379a000000000000000000000000000000000000000000000000000000000815260040161155b90613d3e565b60405180910390fd5b611570848484846125e0565b50505050565b611580600861263c565b600061158c6008612101565b90506040518060c00160405280828152602001878152602001868152602001858152602001848152602001633b9aca00846115c79190614100565b815250600e6000838152602001908152602001600020600082015181600001556020820151816001019080519060200190611603929190612cd8565b506040820151816002019080519060200190611620929190612cd8565b50606082015181600301556080820151816004015560a08201518160050155905050807feada35d938c270c25853d8dabedd0244753eb3db592834c69dd585067b028d3f87878787633b9aca00886116789190614100565b604051611689959493929190613a5d565b60405180910390a2505050505050565b600080600b60009054906101000a900473ffffffffffffffffffffffffffffffffffffffff1690506000600e600085815260200190815260200160002060050154905060008273ffffffffffffffffffffffffffffffffffffffff1663dd62ed3e33306040518363ffffffff1660e01b8152600401611719929190613930565b60206040518083038186803b15801561173157600080fd5b505afa158015611745573d6000803e3d6000fd5b505050506040513d601f19601f820116820180604052508101906117699190613218565b9050818110156117ae576040517f08c379a00000000000000000000000000000000000000000000000000000000081526004016117a590613abe565b60405180910390fd5b818373ffffffffffffffffffffffffffffffffffffffff166370a08231336040518263ffffffff1660e01b81526004016117e89190613915565b60206040518083038186803b15801561180057600080fd5b505afa158015611814573d6000803e3d6000fd5b505050506040513d601f19601f820116820180604052508101906118389190613218565b1015611879576040517f08c379a000000000000000000000000000000000000000000000000000000000815260040161187090613d5e565b60405180910390fd5b6118836008612101565b8511156118c5576040517f08c379a00000000000000000000000000000000000000000000000000000000081526004016118bc90613b3e565b60405180910390fd5b600e6000868152602001908152602001600020600301546118e66007612101565b10611926576040517f08c379a000000000000000000000000000000000000000000000000000000000815260040161191d90613ade565b60405180910390fd5b600e600086815260200190815260200160002060040154601160003373ffffffffffffffffffffffffffffffffffffffff1673ffffffffffffffffffffffffffffffffffffffff16815260200190815260200160002060008781526020019081526020016000205411156119cf576040517f08c379a00000000000000000000000000000000000000000000000000000000081526004016119c690613b9e565b60405180910390fd5b6119d9600761263c565b60006119e56007612101565b90506119f13382612652565b611a9981600e60008981526020019081526020016000206002018054611a1690614244565b80601f0160208091040260200160405190810160405280929190818152602001828054611a4290614244565b8015611a8f5780601f10611a6457610100808354040283529160200191611a8f565b820191906000526020600020905b815481529060010190602001808311611a7257829003601f168201915b5050505050612820565b611ac6600d60009054906101000a900473ffffffffffffffffffffffffffffffffffffffff16600161121a565b60405180608001604052808781526020018281526020013373ffffffffffffffffffffffffffffffffffffffff1681526020016000151581525060106000838152602001908152602001600020600082015181600001556020820151816001015560408201518160020160006101000a81548173ffffffffffffffffffffffffffffffffffffffff021916908373ffffffffffffffffffffffffffffffffffffffff16021790555060608201518160020160146101000a81548160ff02191690831515021790555090505085600f6000838152602001908152602001600020819055506001601160003373ffffffffffffffffffffffffffffffffffffffff1673ffffffffffffffffffffffffffffffffffffffff16815260200190815260200160002060008881526020019081526020016000206000828254611c0a9190613f08565b925050819055508373ffffffffffffffffffffffffffffffffffffffff166323b872dd33600c60009054906101000a900473ffffffffffffffffffffffffffffffffffffffff16866040518463ffffffff1660e01b8152600401611c7093929190613959565b602060405180830381600087803b158015611c8a57600080fd5b505af1158015611c9e573d6000803e3d6000fd5b505050506040513d601f19601f82011682018060405250810190611cc291906130b1565b5080945050505050919050565b6060611cda82612179565b611d19576040517f08c379a0000000000000000000000000000000000000000000000000000000008152600401611d1090613c7e565b60405180910390fd5b6000600660008481526020019081526020016000208054611d3990614244565b80601f0160208091040260200160405190810160405280929190818152602001828054611d6590614244565b8015611db25780601f10611d8757610100808354040283529160200191611db2565b820191906000526020600020905b815481529060010190602001808311611d9557829003601f168201915b505050505090506000611dc3612894565b9050600081511415611dd9578192505050611e1c565b600082511115611e0e578082604051602001611df69291906138f1565b60405160208183030381529060405292505050611e1c565b611e17846128ab565b925050505b919050565b60606000611e2f6008612101565b905060008167ffffffffffffffff811115611e4d57611e4c6143dd565b5b604051908082528060200260200182016040528015611e8657816020015b611e73612ca2565b815260200190600190039081611e6b5790505b5090506000600190505b82811161203e57600e60008281526020019081526020016000206040518060c001604052908160008201548152602001600182018054611ecf90614244565b80601f0160208091040260200160405190810160405280929190818152602001828054611efb90614244565b8015611f485780601f10611f1d57610100808354040283529160200191611f48565b820191906000526020600020905b815481529060010190602001808311611f2b57829003601f168201915b50505050508152602001600282018054611f6190614244565b80601f0160208091040260200160405190810160405280929190818152602001828054611f8d90614244565b8015611fda5780601f10611faf57610100808354040283529160200191611fda565b820191906000526020600020905b815481529060010190602001808311611fbd57829003601f168201915b5050505050815260200160038201548152602001600482015481526020016005820154815250508260018361200f919061415a565b815181106120205761201f6143ae565b5b60200260200101819052508080612036906142a7565b915050611e90565b50809250505090565b6000600560008473ffffffffffffffffffffffffffffffffffffffff1673ffffffffffffffffffffffffffffffffffffffff16815260200190815260200160002060008373ffffffffffffffffffffffffffffffffffffffff1673ffffffffffffffffffffffffffffffffffffffff16815260200190815260200160002060009054906101000a900460ff16905092915050565b600b60009054906101000a900473ffffffffffffffffffffffffffffffffffffffff1681565b600081600001549050919050565b60007f01ffc9a7000000000000000000000000000000000000000000000000000000007bffffffffffffffffffffffffffffffffffffffffffffffffffffffff1916827bffffffffffffffffffffffffffffffffffffffffffffffffffffffff1916149050919050565b60008073ffffffffffffffffffffffffffffffffffffffff166002600084815260200190815260200160002060009054906101000a900473ffffffffffffffffffffffffffffffffffffffff1673ffffffffffffffffffffffffffffffffffffffff1614159050919050565b600033905090565b816004600083815260200190815260200160002060006101000a81548173ffffffffffffffffffffffffffffffffffffffff021916908373ffffffffffffffffffffffffffffffffffffffff160217905550808273ffffffffffffffffffffffffffffffffffffffff1661226083610cf3565b73ffffffffffffffffffffffffffffffffffffffff167f8c5be1e5ebec7d5bd14f71427d1e84f3dd0314c0f7b2291e5b200ac8c7c3b92560405160405180910390a45050565b60006122b182612179565b6122f0576040517f08c379a00000000000000000000000000000000000000000000000000000000081526004016122e790613bbe565b60405180910390fd5b60006122fb83610cf3565b90508073ffffffffffffffffffffffffffffffffffffffff168473ffffffffffffffffffffffffffffffffffffffff16148061236a57508373ffffffffffffffffffffffffffffffffffffffff16612352846107fd565b73ffffffffffffffffffffffffffffffffffffffff16145b8061237b575061237a8185612047565b5b91505092915050565b8273ffffffffffffffffffffffffffffffffffffffff166123a482610cf3565b73ffffffffffffffffffffffffffffffffffffffff16146123fa576040517f08c379a00000000000000000000000000000000000000000000000000000000081526004016123f190613cbe565b60405180910390fd5b600073ffffffffffffffffffffffffffffffffffffffff168273ffffffffffffffffffffffffffffffffffffffff16141561246a576040517f08c379a000000000000000000000000000000000000000000000000000000000815260040161246190613b5e565b60405180910390fd5b612475838383612952565b6124806000826121ed565b6001600360008573ffffffffffffffffffffffffffffffffffffffff1673ffffffffffffffffffffffffffffffffffffffff16815260200190815260200160002060008282546124d0919061415a565b925050819055506001600360008473ffffffffffffffffffffffffffffffffffffffff1673ffffffffffffffffffffffffffffffffffffffff16815260200190815260200160002060008282546125279190613f08565b92505081905550816002600083815260200190815260200160002060006101000a81548173ffffffffffffffffffffffffffffffffffffffff021916908373ffffffffffffffffffffffffffffffffffffffff160217905550808273ffffffffffffffffffffffffffffffffffffffff168473ffffffffffffffffffffffffffffffffffffffff167fddf252ad1be2c89b69c2b068fc378daa952ba7f163c4a11628f55a4df523b3ef60405160405180910390a4505050565b6125eb848484612384565b6125f784848484612957565b612636576040517f08c379a000000000000000000000000000000000000000000000000000000000815260040161262d90613afe565b60405180910390fd5b50505050565b6001816000016000828254019250508190555050565b600073ffffffffffffffffffffffffffffffffffffffff168273ffffffffffffffffffffffffffffffffffffffff1614156126c2576040517f08c379a00000000000000000000000000000000000000000000000000000000081526004016126b990613c5e565b60405180910390fd5b6126cb81612179565b1561270b576040517f08c379a000000000000000000000000000000000000000000000000000000000815260040161270290613b1e565b60405180910390fd5b61271760008383612952565b6001600360008473ffffffffffffffffffffffffffffffffffffffff1673ffffffffffffffffffffffffffffffffffffffff16815260200190815260200160002060008282546127679190613f08565b92505081905550816002600083815260200190815260200160002060006101000a81548173ffffffffffffffffffffffffffffffffffffffff021916908373ffffffffffffffffffffffffffffffffffffffff160217905550808273ffffffffffffffffffffffffffffffffffffffff16600073ffffffffffffffffffffffffffffffffffffffff167fddf252ad1be2c89b69c2b068fc378daa952ba7f163c4a11628f55a4df523b3ef60405160405180910390a45050565b61282982612179565b612868576040517f08c379a000000000000000000000000000000000000000000000000000000000815260040161285f90613c3e565b60405180910390fd5b8060066000848152602001908152602001600020908051906020019061288f929190612cd8565b505050565b606060405180602001604052806000815250905090565b60606128b682612179565b6128f5576040517f08c379a00000000000000000000000000000000000000000000000000000000081526004016128ec90613cde565b60405180910390fd5b60006128ff612894565b9050600081511161291f576040518060200160405280600081525061294a565b8061292984612aee565b60405160200161293a9291906138f1565b6040516020818303038152906040525b915050919050565b505050565b60006129788473ffffffffffffffffffffffffffffffffffffffff16612c4f565b15612ae1578373ffffffffffffffffffffffffffffffffffffffff1663150b7a026129a16121e5565b8786866040518563ffffffff1660e01b81526004016129c39493929190613990565b602060405180830381600087803b1580156129dd57600080fd5b505af1925050508015612a0e57506040513d601f19601f82011682018060405250810190612a0b919061310b565b60015b612a91573d8060008114612a3e576040519150601f19603f3d011682016040523d82523d6000602084013e612a43565b606091505b50600081511415612a89576040517f08c379a0000000000000000000000000000000000000000000000000000000008152600401612a8090613afe565b60405180910390fd5b805181602001fd5b63150b7a0260e01b7bffffffffffffffffffffffffffffffffffffffffffffffffffffffff1916817bffffffffffffffffffffffffffffffffffffffffffffffffffffffff191614915050612ae6565b600190505b949350505050565b60606000821415612b36576040518060400160405280600181526020017f30000000000000000000000000000000000000000000000000000000000000008152509050612c4a565b600082905060005b60008214612b68578080612b51906142a7565b915050600a82612b619190613f5e565b9150612b3e565b60008167ffffffffffffffff811115612b8457612b836143dd565b5b6040519080825280601f01601f191660200182016040528015612bb65781602001600182028036833780820191505090505b5090505b60008514612c4357600182612bcf919061415a565b9150600a85612bde91906142f0565b6030612bea9190613f08565b60f81b818381518110612c0057612bff6143ae565b5b60200101907effffffffffffffffffffffffffffffffffffffffffffffffffffffffffffff1916908160001a905350600a85612c3c9190613f5e565b9450612bba565b8093505050505b919050565b600080823b905060008111915050919050565b60405180608001604052806000815260200160008152602001600073ffffffffffffffffffffffffffffffffffffffff1681526020016000151581525090565b6040518060c001604052806000815260200160608152602001606081526020016000815260200160008152602001600081525090565b828054612ce490614244565b90600052602060002090601f016020900481019282612d065760008555612d4d565b82601f10612d1f57805160ff1916838001178555612d4d565b82800160010185558215612d4d579182015b82811115612d4c578251825591602001919060010190612d31565b5b509050612d5a9190612d5e565b5090565b5b80821115612d77576000816000905550600101612d5f565b5090565b6000612d8e612d8984613de0565b613dbb565b905082815260208101848484011115612daa57612da9614411565b5b612db5848285614202565b509392505050565b6000612dd0612dcb84613e11565b613dbb565b905082815260208101848484011115612dec57612deb614411565b5b612df7848285614202565b509392505050565b600081359050612e0e81614a4a565b92915050565b600081359050612e2381614a61565b92915050565b600081519050612e3881614a61565b92915050565b600081359050612e4d81614a78565b92915050565b600081519050612e6281614a78565b92915050565b600082601f830112612e7d57612e7c61440c565b5b8135612e8d848260208601612d7b565b91505092915050565b600082601f830112612eab57612eaa61440c565b5b8135612ebb848260208601612dbd565b91505092915050565b600081359050612ed381614a8f565b92915050565b600081519050612ee881614a8f565b92915050565b600060208284031215612f0457612f0361441b565b5b6000612f1284828501612dff565b91505092915050565b60008060408385031215612f3257612f3161441b565b5b6000612f4085828601612dff565b9250506020612f5185828601612dff565b9150509250929050565b600080600060608486031215612f7457612f7361441b565b5b6000612f8286828701612dff565b9350506020612f9386828701612dff565b9250506040612fa486828701612ec4565b9150509250925092565b60008060008060808587031215612fc857612fc761441b565b5b6000612fd687828801612dff565b9450506020612fe787828801612dff565b9350506040612ff887828801612ec4565b925050606085013567ffffffffffffffff81111561301957613018614416565b5b61302587828801612e68565b91505092959194509250565b600080604083850312156130485761304761441b565b5b600061305685828601612dff565b925050602061306785828601612e14565b9150509250929050565b600080604083850312156130885761308761441b565b5b600061309685828601612dff565b92505060206130a785828601612ec4565b9150509250929050565b6000602082840312156130c7576130c661441b565b5b60006130d584828501612e29565b91505092915050565b6000602082840312156130f4576130f361441b565b5b600061310284828501612e3e565b91505092915050565b6000602082840312156131215761312061441b565b5b600061312f84828501612e53565b91505092915050565b600080600080600060a086880312156131545761315361441b565b5b600086013567ffffffffffffffff81111561317257613171614416565b5b61317e88828901612e96565b955050602086013567ffffffffffffffff81111561319f5761319e614416565b5b6131ab88828901612e96565b94505060406131bc88828901612ec4565b93505060606131cd88828901612ec4565b92505060806131de88828901612ec4565b9150509295509295909350565b6000602082840312156132015761320061441b565b5b600061320f84828501612ec4565b91505092915050565b60006020828403121561322e5761322d61441b565b5b600061323c84828501612ed9565b91505092915050565b6000613251838361375e565b905092915050565b6000613265838361387e565b60808301905092915050565b61327a8161418e565b82525050565b6132898161418e565b82525050565b600061329a82613e62565b6132a48185613ea8565b9350836020820285016132b685613e42565b8060005b858110156132f257848403895281516132d38582613245565b94506132de83613e8e565b925060208a019950506001810190506132ba565b50829750879550505050505092915050565b600061330f82613e6d565b6133198185613eb9565b935061332483613e52565b8060005b8381101561335557815161333c8882613259565b975061334783613e9b565b925050600181019050613328565b5085935050505092915050565b61336b816141a0565b82525050565b61337a816141a0565b82525050565b600061338b82613e78565b6133958185613eca565b93506133a5818560208601614211565b6133ae81614420565b840191505092915050565b60006133c482613e83565b6133ce8185613edb565b93506133de818560208601614211565b6133e781614420565b840191505092915050565b60006133fd82613e83565b6134078185613eec565b9350613417818560208601614211565b61342081614420565b840191505092915050565b600061343682613e83565b6134408185613efd565b9350613450818560208601614211565b80840191505092915050565b6000613469603083613eec565b91506134748261443e565b604082019050919050565b600061348c603483613eec565b91506134978261448d565b604082019050919050565b60006134af603283613eec565b91506134ba826144dc565b604082019050919050565b60006134d2601c83613eec565b91506134dd8261452b565b602082019050919050565b60006134f5601c83613eec565b915061350082614554565b602082019050919050565b6000613518602483613eec565b91506135238261457d565b604082019050919050565b600061353b601983613eec565b9150613546826145cc565b602082019050919050565b600061355e602783613eec565b9150613569826145f5565b604082019050919050565b6000613581602c83613eec565b915061358c82614644565b604082019050919050565b60006135a4603883613eec565b91506135af82614693565b604082019050919050565b60006135c7602a83613eec565b91506135d2826146e2565b604082019050919050565b60006135ea602983613eec565b91506135f582614731565b604082019050919050565b600061360d602e83613eec565b915061361882614780565b604082019050919050565b6000613630602083613eec565b915061363b826147cf565b602082019050919050565b6000613653603183613eec565b915061365e826147f8565b604082019050919050565b6000613676602c83613eec565b915061368182614847565b604082019050919050565b6000613699602983613eec565b91506136a482614896565b604082019050919050565b60006136bc602f83613eec565b91506136c7826148e5565b604082019050919050565b60006136df601383613eec565b91506136ea82614934565b602082019050919050565b6000613702602183613eec565b915061370d8261495d565b604082019050919050565b6000613725603183613eec565b9150613730826149ac565b604082019050919050565b6000613748603083613eec565b9150613753826149fb565b604082019050919050565b600060c08301600083015161377660008601826138d3565b506020830151848203602086015261378e82826133b9565b915050604083015184820360408601526137a882826133b9565b91505060608301516137bd60608601826138d3565b5060808301516137d060808601826138d3565b5060a08301516137e360a08601826138d3565b508091505092915050565b600060c08301600083015161380660008601826138d3565b506020830151848203602086015261381e82826133b9565b9150506040830151848203604086015261383882826133b9565b915050606083015161384d60608601826138d3565b50608083015161386060808601826138d3565b5060a083015161387360a08601826138d3565b508091505092915050565b60808201600082015161389460008501826138d3565b5060208201516138a760208501826138d3565b5060408201516138ba6040850182613271565b5060608201516138cd6060850182613362565b50505050565b6138dc816141f8565b82525050565b6138eb816141f8565b82525050565b60006138fd828561342b565b9150613909828461342b565b91508190509392505050565b600060208201905061392a6000830184613280565b92915050565b60006040820190506139456000830185613280565b6139526020830184613280565b9392505050565b600060608201905061396e6000830186613280565b61397b6020830185613280565b61398860408301846138e2565b949350505050565b60006080820190506139a56000830187613280565b6139b26020830186613280565b6139bf60408301856138e2565b81810360608301526139d18184613380565b905095945050505050565b600060208201905081810360008301526139f6818461328f565b905092915050565b60006020820190508181036000830152613a188184613304565b905092915050565b6000602082019050613a356000830184613371565b92915050565b60006020820190508181036000830152613a5581846133f2565b905092915050565b600060a0820190508181036000830152613a7781886133f2565b90508181036020830152613a8b81876133f2565b9050613a9a60408301866138e2565b613aa760608301856138e2565b613ab460808301846138e2565b9695505050505050565b60006020820190508181036000830152613ad78161345c565b9050919050565b60006020820190508181036000830152613af78161347f565b9050919050565b60006020820190508181036000830152613b17816134a2565b9050919050565b60006020820190508181036000830152613b37816134c5565b9050919050565b60006020820190508181036000830152613b57816134e8565b9050919050565b60006020820190508181036000830152613b778161350b565b9050919050565b60006020820190508181036000830152613b978161352e565b9050919050565b60006020820190508181036000830152613bb781613551565b9050919050565b60006020820190508181036000830152613bd781613574565b9050919050565b60006020820190508181036000830152613bf781613597565b9050919050565b60006020820190508181036000830152613c17816135ba565b9050919050565b60006020820190508181036000830152613c37816135dd565b9050919050565b60006020820190508181036000830152613c5781613600565b9050919050565b60006020820190508181036000830152613c7781613623565b9050919050565b60006020820190508181036000830152613c9781613646565b9050919050565b60006020820190508181036000830152613cb781613669565b9050919050565b60006020820190508181036000830152613cd78161368c565b9050919050565b60006020820190508181036000830152613cf7816136af565b9050919050565b60006020820190508181036000830152613d17816136d2565b9050919050565b60006020820190508181036000830152613d37816136f5565b9050919050565b60006020820190508181036000830152613d5781613718565b9050919050565b60006020820190508181036000830152613d778161373b565b9050919050565b60006020820190508181036000830152613d9881846137ee565b905092915050565b6000602082019050613db560008301846138e2565b92915050565b6000613dc5613dd6565b9050613dd18282614276565b919050565b6000604051905090565b600067ffffffffffffffff821115613dfb57613dfa6143dd565b5b613e0482614420565b9050602081019050919050565b600067ffffffffffffffff821115613e2c57613e2b6143dd565b5b613e3582614420565b9050602081019050919050565b6000819050602082019050919050565b6000819050602082019050919050565b600081519050919050565b600081519050919050565b600081519050919050565b600081519050919050565b6000602082019050919050565b6000602082019050919050565b600082825260208201905092915050565b600082825260208201905092915050565b600082825260208201905092915050565b600082825260208201905092915050565b600082825260208201905092915050565b600081905092915050565b6000613f13826141f8565b9150613f1e836141f8565b9250827fffffffffffffffffffffffffffffffffffffffffffffffffffffffffffffffff03821115613f5357613f52614321565b5b828201905092915050565b6000613f69826141f8565b9150613f74836141f8565b925082613f8457613f83614350565b5b828204905092915050565b6000808291508390505b6001851115613fd957808604811115613fb557613fb4614321565b5b6001851615613fc45780820291505b8081029050613fd285614431565b9450613f99565b94509492505050565b6000613fed826141f8565b9150613ff8836141f8565b92506140257fffffffffffffffffffffffffffffffffffffffffffffffffffffffffffffffff848461402d565b905092915050565b60008261403d57600190506140f9565b8161404b57600090506140f9565b8160018114614061576002811461406b5761409a565b60019150506140f9565b60ff84111561407d5761407c614321565b5b8360020a91508482111561409457614093614321565b5b506140f9565b5060208310610133831016604e8410600b84101617156140cf5782820a9050838111156140ca576140c9614321565b5b6140f9565b6140dc8484846001613f8f565b925090508184048111156140f3576140f2614321565b5b81810290505b9392505050565b600061410b826141f8565b9150614116836141f8565b9250817fffffffffffffffffffffffffffffffffffffffffffffffffffffffffffffffff048311821515161561414f5761414e614321565b5b828202905092915050565b6000614165826141f8565b9150614170836141f8565b92508282101561418357614182614321565b5b828203905092915050565b6000614199826141d8565b9050919050565b60008115159050919050565b60007fffffffff0000000000000000000000000000000000000000000000000000000082169050919050565b600073ffffffffffffffffffffffffffffffffffffffff82169050919050565b6000819050919050565b82818337600083830152505050565b60005b8381101561422f578082015181840152602081019050614214565b8381111561423e576000848401525b50505050565b6000600282049050600182168061425c57607f821691505b602082108114156142705761426f61437f565b5b50919050565b61427f82614420565b810181811067ffffffffffffffff8211171561429e5761429d6143dd565b5b80604052505050565b60006142b2826141f8565b91507fffffffffffffffffffffffffffffffffffffffffffffffffffffffffffffffff8214156142e5576142e4614321565b5b600182019050919050565b60006142fb826141f8565b9150614306836141f8565b92508261431657614315614350565b5b828206905092915050565b7f4e487b7100000000000000000000000000000000000000000000000000000000600052601160045260246000fd5b7f4e487b7100000000000000000000000000000000000000000000000000000000600052601260045260246000fd5b7f4e487b7100000000000000000000000000000000000000000000000000000000600052602260045260246000fd5b7f4e487b7100000000000000000000000000000000000000000000000000000000600052603260045260246000fd5b7f4e487b7100000000000000000000000000000000000000000000000000000000600052604160045260246000fd5b600080fd5b600080fd5b600080fd5b600080fd5b6000601f19601f8301169050919050565b60008160011c9050919050565b7f6d696e74696e672070726963652069732074686520736d616c6c65722074686160008201527f6e20616c6c6f77656420616d6f756e7400000000000000000000000000000000602082015250565b7f63757272656e74206d696e74696e6720636f756e74206f766572666c6f77732060008201527f746f74616c206d696e74696e6720636f756e742e000000000000000000000000602082015250565b7f4552433732313a207472616e7366657220746f206e6f6e20455243373231526560008201527f63656976657220696d706c656d656e7465720000000000000000000000000000602082015250565b7f4552433732313a20746f6b656e20616c7265616479206d696e74656400000000600082015250565b7f54686520636f6c6c656374696f6e206964206e6f206578697374732e00000000600082015250565b7f4552433732313a207472616e7366657220746f20746865207a65726f2061646460008201527f7265737300000000000000000000000000000000000000000000000000000000602082015250565b7f4552433732313a20617070726f766520746f2063616c6c657200000000000000600082015250565b7f457863656564656420746865206c696d69746564206e756d626572206f66206d60008201527f696e74696e672e00000000000000000000000000000000000000000000000000602082015250565b7f4552433732313a206f70657261746f7220717565727920666f72206e6f6e657860008201527f697374656e7420746f6b656e0000000000000000000000000000000000000000602082015250565b7f4552433732313a20617070726f76652063616c6c6572206973206e6f74206f7760008201527f6e6572206e6f7220617070726f76656420666f7220616c6c0000000000000000602082015250565b7f4552433732313a2062616c616e636520717565727920666f7220746865207a6560008201527f726f206164647265737300000000000000000000000000000000000000000000602082015250565b7f4552433732313a206f776e657220717565727920666f72206e6f6e657869737460008201527f656e7420746f6b656e0000000000000000000000000000000000000000000000602082015250565b7f45524337323155524953746f726167653a2055524920736574206f66206e6f6e60008201527f6578697374656e7420746f6b656e000000000000000000000000000000000000602082015250565b7f4552433732313a206d696e7420746f20746865207a65726f2061646472657373600082015250565b7f45524337323155524953746f726167653a2055524920717565727920666f722060008201527f6e6f6e6578697374656e7420746f6b656e000000000000000000000000000000602082015250565b7f4552433732313a20617070726f76656420717565727920666f72206e6f6e657860008201527f697374656e7420746f6b656e0000000000000000000000000000000000000000602082015250565b7f4552433732313a207472616e73666572206f6620746f6b656e2074686174206960008201527f73206e6f74206f776e0000000000000000000000000000000000000000000000602082015250565b7f4552433732314d657461646174613a2055524920717565727920666f72206e6f60008201527f6e6578697374656e7420746f6b656e0000000000000000000000000000000000602082015250565b7f556e617574686f72697365642041636365737300000000000000000000000000600082015250565b7f4552433732313a20617070726f76616c20746f2063757272656e74206f776e6560008201527f7200000000000000000000000000000000000000000000000000000000000000602082015250565b7f4552433732313a207472616e736665722063616c6c6572206973206e6f74206f60008201527f776e6572206e6f7220617070726f766564000000000000000000000000000000602082015250565b7f62616c616e636520697320746f6f20736d616c6c2c20796f752063616e27742060008201527f70617920666f72206d696e74696e672e00000000000000000000000000000000602082015250565b614a538161418e565b8114614a5e57600080fd5b50565b614a6a816141a0565b8114614a7557600080fd5b50565b614a81816141ac565b8114614a8c57600080fd5b50565b614a98816141f8565b8114614aa357600080fd5b5056fea26469706673582212200e3a2dc3decc503ceaa9c069517c60ee31a67499d8a0d0fcd86057ddc6910d6764736f6c63430008050033",
  "linkReferences": {},
  "deployedLinkReferences": {}
}