{
  "_format": "hh-sol-artifact-1",
  "contractName": "Master",
  "sourceName": "contracts/Master.sol",
  "abi": [
    {
      "inputs": [
        {
          "internalType": "address",
          "name": "addrPayCoin",
          "type": "address"
        }
      ],
      "stateMutability": "nonpayable",
      "type": "constructor"
    },
    {
      "anonymous": false,
      "inputs": [
        {
          "indexed": true,
          "internalType": "address",
          "name": "owner",
          "type": "address"
        },
        {
          "indexed": true,
          "internalType": "address",
          "name": "approved",
          "type": "address"
        },
        {
          "indexed": true,
          "internalType": "uint256",
          "name": "tokenId",
          "type": "uint256"
        }
      ],
      "name": "Approval",
      "type": "event"
    },
    {
      "anonymous": false,
      "inputs": [
        {
          "indexed": true,
          "internalType": "address",
          "name": "owner",
          "type": "address"
        },
        {
          "indexed": true,
          "internalType": "address",
          "name": "operator",
          "type": "address"
        },
        {
          "indexed": false,
          "internalType": "bool",
          "name": "approved",
          "type": "bool"
        }
      ],
      "name": "ApprovalForAll",
      "type": "event"
    },
    {
      "anonymous": false,
      "inputs": [
        {
          "indexed": true,
          "internalType": "address",
          "name": "from",
          "type": "address"
        },
        {
          "indexed": true,
          "internalType": "address",
          "name": "to",
          "type": "address"
        },
        {
          "indexed": true,
          "internalType": "uint256",
          "name": "tokenId",
          "type": "uint256"
        }
      ],
      "name": "Transfer",
      "type": "event"
    },
    {
      "inputs": [
        {
          "internalType": "address",
          "name": "to",
          "type": "address"
        },
        {
          "internalType": "uint256",
          "name": "tokenId",
          "type": "uint256"
        }
      ],
      "name": "approve",
      "outputs": [],
      "stateMutability": "nonpayable",
      "type": "function"
    },
    {
      "inputs": [
        {
          "internalType": "address",
          "name": "owner",
          "type": "address"
        }
      ],
      "name": "balanceOf",
      "outputs": [
        {
          "internalType": "uint256",
          "name": "",
          "type": "uint256"
        }
      ],
      "stateMutability": "view",
      "type": "function"
    },
    {
      "inputs": [],
      "name": "burnToken",
      "outputs": [],
      "stateMutability": "nonpayable",
      "type": "function"
    },
    {
      "inputs": [
        {
          "internalType": "uint256",
          "name": "tokenId",
          "type": "uint256"
        }
      ],
      "name": "getApproved",
      "outputs": [
        {
          "internalType": "address",
          "name": "",
          "type": "address"
        }
      ],
      "stateMutability": "view",
      "type": "function"
    },
    {
      "inputs": [],
      "name": "getCurrentTokenId",
      "outputs": [
        {
          "internalType": "uint256",
          "name": "",
          "type": "uint256"
        }
      ],
      "stateMutability": "view",
      "type": "function"
    },
    {
      "inputs": [],
      "name": "getMintingPrice",
      "outputs": [
        {
          "internalType": "uint256",
          "name": "",
          "type": "uint256"
        }
      ],
      "stateMutability": "view",
      "type": "function"
    },
    {
      "inputs": [],
      "name": "getPayableCoin",
      "outputs": [
        {
          "internalType": "address",
          "name": "",
          "type": "address"
        }
      ],
      "stateMutability": "view",
      "type": "function"
    },
    {
      "inputs": [
        {
          "internalType": "address",
          "name": "_account",
          "type": "address"
        }
      ],
      "name": "getTokens",
      "outputs": [
        {
          "internalType": "uint256[]",
          "name": "",
          "type": "uint256[]"
        }
      ],
      "stateMutability": "view",
      "type": "function"
    },
    {
      "inputs": [
        {
          "internalType": "uint256",
          "name": "tokenId",
          "type": "uint256"
        }
      ],
      "name": "getURI",
      "outputs": [
        {
          "internalType": "string",
          "name": "",
          "type": "string"
        }
      ],
      "stateMutability": "view",
      "type": "function"
    },
    {
      "inputs": [
        {
          "internalType": "address",
          "name": "owner",
          "type": "address"
        },
        {
          "internalType": "address",
          "name": "operator",
          "type": "address"
        }
      ],
      "name": "isApprovedForAll",
      "outputs": [
        {
          "internalType": "bool",
          "name": "",
          "type": "bool"
        }
      ],
      "stateMutability": "view",
      "type": "function"
    },
    {
      "inputs": [],
      "name": "mintToken",
      "outputs": [
        {
          "internalType": "uint256",
          "name": "",
          "type": "uint256"
        }
      ],
      "stateMutability": "nonpayable",
      "type": "function"
    },
    {
      "inputs": [],
      "name": "name",
      "outputs": [
        {
          "internalType": "string",
          "name": "",
          "type": "string"
        }
      ],
      "stateMutability": "view",
      "type": "function"
    },
    {
      "inputs": [
        {
          "internalType": "uint256",
          "name": "tokenId",
          "type": "uint256"
        }
      ],
      "name": "ownerOf",
      "outputs": [
        {
          "internalType": "address",
          "name": "",
          "type": "address"
        }
      ],
      "stateMutability": "view",
      "type": "function"
    },
    {
      "inputs": [
        {
          "internalType": "uint256",
          "name": "costs",
          "type": "uint256"
        }
      ],
      "name": "payWithCustomCoin",
      "outputs": [],
      "stateMutability": "nonpayable",
      "type": "function"
    },
    {
      "inputs": [],
      "name": "pop",
      "outputs": [],
      "stateMutability": "nonpayable",
      "type": "function"
    },
    {
      "inputs": [
        {
          "internalType": "address",
          "name": "from",
          "type": "address"
        },
        {
          "internalType": "address",
          "name": "to",
          "type": "address"
        },
        {
          "internalType": "uint256",
          "name": "tokenId",
          "type": "uint256"
        }
      ],
      "name": "safeTransferFrom",
      "outputs": [],
      "stateMutability": "nonpayable",
      "type": "function"
    },
    {
      "inputs": [
        {
          "internalType": "address",
          "name": "from",
          "type": "address"
        },
        {
          "internalType": "address",
          "name": "to",
          "type": "address"
        },
        {
          "internalType": "uint256",
          "name": "tokenId",
          "type": "uint256"
        },
        {
          "internalType": "bytes",
          "name": "_data",
          "type": "bytes"
        }
      ],
      "name": "safeTransferFrom",
      "outputs": [],
      "stateMutability": "nonpayable",
      "type": "function"
    },
    {
      "inputs": [
        {
          "internalType": "address",
          "name": "operator",
          "type": "address"
        },
        {
          "internalType": "bool",
          "name": "approved",
          "type": "bool"
        }
      ],
      "name": "setApprovalForAll",
      "outputs": [],
      "stateMutability": "nonpayable",
      "type": "function"
    },
    {
      "inputs": [
        {
          "internalType": "bytes4",
          "name": "interfaceId",
          "type": "bytes4"
        }
      ],
      "name": "supportsInterface",
      "outputs": [
        {
          "internalType": "bool",
          "name": "",
          "type": "bool"
        }
      ],
      "stateMutability": "view",
      "type": "function"
    },
    {
      "inputs": [],
      "name": "symbol",
      "outputs": [
        {
          "internalType": "string",
          "name": "",
          "type": "string"
        }
      ],
      "stateMutability": "view",
      "type": "function"
    },
    {
      "inputs": [
        {
          "internalType": "uint256",
          "name": "tokenId",
          "type": "uint256"
        }
      ],
      "name": "tokenURI",
      "outputs": [
        {
          "internalType": "string",
          "name": "",
          "type": "string"
        }
      ],
      "stateMutability": "view",
      "type": "function"
    },
    {
      "inputs": [
        {
          "internalType": "address",
          "name": "from",
          "type": "address"
        },
        {
          "internalType": "address",
          "name": "to",
          "type": "address"
        },
        {
          "internalType": "uint256",
          "name": "tokenId",
          "type": "uint256"
        }
      ],
      "name": "transferFrom",
      "outputs": [],
      "stateMutability": "nonpayable",
      "type": "function"
    }
  ],
  "bytecode": "0x60806040526509184e72a00060085561271060095560405180608001604052806050815260200162003c3b60509139600d908051906020019062000045929190620001a2565b503480156200005357600080fd5b5060405162003c8b38038062003c8b833981810160405281019062000079919062000269565b6040518060400160405280600681526020017f4d617374657200000000000000000000000000000000000000000000000000008152506040518060400160405280600681526020017f4d415354455200000000000000000000000000000000000000000000000000008152508160009080519060200190620000fd929190620001a2565b50806001908051906020019062000116929190620001a2565b50505033600b60006101000a81548173ffffffffffffffffffffffffffffffffffffffff021916908373ffffffffffffffffffffffffffffffffffffffff16021790555080600a60006101000a81548173ffffffffffffffffffffffffffffffffffffffff021916908373ffffffffffffffffffffffffffffffffffffffff1602179055505062000353565b828054620001b090620002cf565b90600052602060002090601f016020900481019282620001d4576000855562000220565b82601f10620001ef57805160ff191683800117855562000220565b8280016001018555821562000220579182015b828111156200021f57825182559160200191906001019062000202565b5b5090506200022f919062000233565b5090565b5b808211156200024e57600081600090555060010162000234565b5090565b600081519050620002638162000339565b92915050565b60006020828403121562000282576200028162000334565b5b6000620002928482850162000252565b91505092915050565b6000620002a882620002af565b9050919050565b600073ffffffffffffffffffffffffffffffffffffffff82169050919050565b60006002820490506001821680620002e857607f821691505b60208210811415620002ff57620002fe62000305565b5b50919050565b7f4e487b7100000000000000000000000000000000000000000000000000000000600052602260045260246000fd5b600080fd5b62000344816200029b565b81146200035057600080fd5b50565b6138d880620003636000396000f3fe608060405234801561001057600080fd5b50600436106101425760003560e01c80636352211e116100b8578063a22cb4651161007c578063a22cb4651461038b578063a4ece52c146103a7578063b88d4fde146103b1578063c87b56dd146103cd578063e985e9c5146103fd578063faa0a2641461042d57610142565b80636352211e146102d357806369c30eb61461030357806370a082311461031f57806377d247621461034f57806395d89b411461036d57610142565b80632004ffd91161010a5780632004ffd91461021157806323b872dd1461022f578063280aada71461024b57806342842e0e14610269578063450efe211461028557806356189236146102b557610142565b806301ffc9a71461014757806306fdde0314610177578063081812fc14610195578063095ea7b3146101c55780631aa347dc146101e1575b600080fd5b610161600480360381019061015c91906125d8565b610437565b60405161016e9190612baa565b60405180910390f35b61017f610519565b60405161018c9190612bc5565b60405180910390f35b6101af60048036038101906101aa9190612632565b6105ab565b6040516101bc9190612ac1565b60405180910390f35b6101df60048036038101906101da919061256b565b610630565b005b6101fb60048036038101906101f69190612632565b610748565b6040516102089190612bc5565b60405180910390f35b61021961075a565b6040516102269190612e67565b60405180910390f35b61024960048036038101906102449190612455565b6108d7565b005b610253610937565b6040516102609190612ac1565b60405180910390f35b610283600480360381019061027e9190612455565b610961565b005b61029f600480360381019061029a91906123e8565b610981565b6040516102ac9190612b88565b60405180910390f35b6102bd610a18565b6040516102ca9190612e67565b60405180910390f35b6102ed60048036038101906102e89190612632565b610a29565b6040516102fa9190612ac1565b60405180910390f35b61031d60048036038101906103189190612632565b610adb565b005b610339600480360381019061033491906123e8565b610d56565b6040516103469190612e67565b60405180910390f35b610357610e0e565b6040516103649190612e67565b60405180910390f35b610375610e18565b6040516103829190612bc5565b60405180910390f35b6103a560048036038101906103a0919061252b565b610eaa565b005b6103af61102b565b005b6103cb60048036038101906103c691906124a8565b61120e565b005b6103e760048036038101906103e29190612632565b611270565b6040516103f49190612bc5565b60405180910390f35b61041760048036038101906104129190612415565b6113c2565b6040516104249190612baa565b60405180910390f35b610435611456565b005b60007f80ac58cd000000000000000000000000000000000000000000000000000000007bffffffffffffffffffffffffffffffffffffffffffffffffffffffff1916827bffffffffffffffffffffffffffffffffffffffffffffffffffffffff1916148061050257507f5b5e139f000000000000000000000000000000000000000000000000000000007bffffffffffffffffffffffffffffffffffffffffffffffffffffffff1916827bffffffffffffffffffffffffffffffffffffffffffffffffffffffff1916145b806105125750610511826114f0565b5b9050919050565b606060008054610528906130c5565b80601f0160208091040260200160405190810160405280929190818152602001828054610554906130c5565b80156105a15780601f10610576576101008083540402835291602001916105a1565b820191906000526020600020905b81548152906001019060200180831161058457829003601f168201915b5050505050905090565b60006105b68261155a565b6105f5576040517f08c379a00000000000000000000000000000000000000000000000000000000081526004016105ec90612d67565b60405180910390fd5b6004600083815260200190815260200160002060009054906101000a900473ffffffffffffffffffffffffffffffffffffffff169050919050565b600061063b82610a29565b90508073ffffffffffffffffffffffffffffffffffffffff168373ffffffffffffffffffffffffffffffffffffffff1614156106ac576040517f08c379a00000000000000000000000000000000000000000000000000000000081526004016106a390612dc7565b60405180910390fd5b8073ffffffffffffffffffffffffffffffffffffffff166106cb6115c6565b73ffffffffffffffffffffffffffffffffffffffff1614806106fa57506106f9816106f46115c6565b6113c2565b5b610739576040517f08c379a000000000000000000000000000000000000000000000000000000000815260040161073090612ca7565b60405180910390fd5b61074383836115ce565b505050565b606061075382611270565b9050919050565b60006009546107696007611687565b106107a9576040517f08c379a00000000000000000000000000000000000000000000000000000000081526004016107a090612de7565b60405180910390fd5b6107b36007611695565b60006107bf6007611687565b90506107cb33826116ab565b61085f81600d80546107dc906130c5565b80601f0160208091040260200160405190810160405280929190818152602001828054610808906130c5565b80156108555780601f1061082a57610100808354040283529160200191610855565b820191906000526020600020905b81548152906001019060200180831161083857829003601f168201915b5050505050611879565b600c60003373ffffffffffffffffffffffffffffffffffffffff1673ffffffffffffffffffffffffffffffffffffffff1681526020019081526020016000208190806001815401808255809150506001900390600052602060002001600090919091909150556108d0600854610adb565b8091505090565b6108e86108e26115c6565b826118ed565b610927576040517f08c379a000000000000000000000000000000000000000000000000000000000815260040161091e90612e07565b60405180910390fd5b6109328383836119cb565b505050565b6000600a60009054906101000a900473ffffffffffffffffffffffffffffffffffffffff16905090565b61097c8383836040518060200160405280600081525061120e565b505050565b6060600c60008373ffffffffffffffffffffffffffffffffffffffff1673ffffffffffffffffffffffffffffffffffffffff168152602001908152602001600020805480602002602001604051908101604052809291908181526020018280548015610a0c57602002820191906000526020600020905b8154815260200190600101908083116109f8575b50505050509050919050565b6000610a246007611687565b905090565b6000806002600084815260200190815260200160002060009054906101000a900473ffffffffffffffffffffffffffffffffffffffff169050600073ffffffffffffffffffffffffffffffffffffffff168173ffffffffffffffffffffffffffffffffffffffff161415610ad2576040517f08c379a0000000000000000000000000000000000000000000000000000000008152600401610ac990612ce7565b60405180910390fd5b80915050919050565b6000600a60009054906101000a900473ffffffffffffffffffffffffffffffffffffffff16905060008173ffffffffffffffffffffffffffffffffffffffff1663dd62ed3e33306040518363ffffffff1660e01b8152600401610b3f929190612adc565b60206040518083038186803b158015610b5757600080fd5b505afa158015610b6b573d6000803e3d6000fd5b505050506040513d601f19601f82011682018060405250810190610b8f919061265f565b905082811015610bd4576040517f08c379a0000000000000000000000000000000000000000000000000000000008152600401610bcb90612e47565b60405180910390fd5b828273ffffffffffffffffffffffffffffffffffffffff166370a08231336040518263ffffffff1660e01b8152600401610c0e9190612ac1565b60206040518083038186803b158015610c2657600080fd5b505afa158015610c3a573d6000803e3d6000fd5b505050506040513d601f19601f82011682018060405250810190610c5e919061265f565b1015610c9f576040517f08c379a0000000000000000000000000000000000000000000000000000000008152600401610c9690612e27565b60405180910390fd5b8173ffffffffffffffffffffffffffffffffffffffff166323b872dd33600b60009054906101000a900473ffffffffffffffffffffffffffffffffffffffff16866040518463ffffffff1660e01b8152600401610cfe93929190612b05565b602060405180830381600087803b158015610d1857600080fd5b505af1158015610d2c573d6000803e3d6000fd5b505050506040513d601f19601f82011682018060405250810190610d5091906125ab565b50505050565b60008073ffffffffffffffffffffffffffffffffffffffff168273ffffffffffffffffffffffffffffffffffffffff161415610dc7576040517f08c379a0000000000000000000000000000000000000000000000000000000008152600401610dbe90612cc7565b60405180910390fd5b600360008373ffffffffffffffffffffffffffffffffffffffff1673ffffffffffffffffffffffffffffffffffffffff168152602001908152602001600020549050919050565b6000600854905090565b606060018054610e27906130c5565b80601f0160208091040260200160405190810160405280929190818152602001828054610e53906130c5565b8015610ea05780601f10610e7557610100808354040283529160200191610ea0565b820191906000526020600020905b815481529060010190602001808311610e8357829003601f168201915b5050505050905090565b610eb26115c6565b73ffffffffffffffffffffffffffffffffffffffff168273ffffffffffffffffffffffffffffffffffffffff161415610f20576040517f08c379a0000000000000000000000000000000000000000000000000000000008152600401610f1790612c67565b60405180910390fd5b8060056000610f2d6115c6565b73ffffffffffffffffffffffffffffffffffffffff1673ffffffffffffffffffffffffffffffffffffffff16815260200190815260200160002060008473ffffffffffffffffffffffffffffffffffffffff1673ffffffffffffffffffffffffffffffffffffffff16815260200190815260200160002060006101000a81548160ff0219169083151502179055508173ffffffffffffffffffffffffffffffffffffffff16610fda6115c6565b73ffffffffffffffffffffffffffffffffffffffff167f17307eab39ab6107e8899845ad3d59bd9653f200f220920489ca2b5937696c318360405161101f9190612baa565b60405180910390a35050565b6000600c60003373ffffffffffffffffffffffffffffffffffffffff1673ffffffffffffffffffffffffffffffffffffffff1681526020019081526020016000208054806020026020016040519081016040528092919081815260200182805480156110b657602002820191906000526020600020905b8154815260200190600101908083116110a2575b505050505090506000815111156110f65780600182516110d69190612fdb565b815181106110e7576110e661322f565b5b6020026020010151600e819055505b6000600182516111069190612fdb565b67ffffffffffffffff81111561111f5761111e61325e565b5b60405190808252806020026020018201604052801561114d5781602001602082028036833780820191505090505b50905060005b600183516111619190612fdb565b8110156111b55782818151811061117b5761117a61322f565b5b60200260200101518282815181106111965761119561322f565b5b60200260200101818152505080806111ad90613128565b915050611153565b5080600c60003373ffffffffffffffffffffffffffffffffffffffff1673ffffffffffffffffffffffffffffffffffffffff16815260200190815260200160002090805190602001906112099291906121b5565b505050565b61121f6112196115c6565b836118ed565b61125e576040517f08c379a000000000000000000000000000000000000000000000000000000000815260040161125590612e07565b60405180910390fd5b61126a84848484611c27565b50505050565b606061127b8261155a565b6112ba576040517f08c379a00000000000000000000000000000000000000000000000000000000081526004016112b190612d47565b60405180910390fd5b60006006600084815260200190815260200160002080546112da906130c5565b80601f0160208091040260200160405190810160405280929190818152602001828054611306906130c5565b80156113535780601f1061132857610100808354040283529160200191611353565b820191906000526020600020905b81548152906001019060200180831161133657829003601f168201915b505050505090506000611364611c83565b905060008151141561137a5781925050506113bd565b6000825111156113af578082604051602001611397929190612a9d565b604051602081830303815290604052925050506113bd565b6113b884611c9a565b925050505b919050565b6000600560008473ffffffffffffffffffffffffffffffffffffffff1673ffffffffffffffffffffffffffffffffffffffff16815260200190815260200160002060008373ffffffffffffffffffffffffffffffffffffffff1673ffffffffffffffffffffffffffffffffffffffff16815260200190815260200160002060009054906101000a900460ff16905092915050565b6000600c60003373ffffffffffffffffffffffffffffffffffffffff1673ffffffffffffffffffffffffffffffffffffffff16815260200190815260200160002080549050116114db576040517f08c379a00000000000000000000000000000000000000000000000000000000081526004016114d290612be7565b60405180910390fd5b6114e361102b565b6114ee600e54611d41565b565b60007f01ffc9a7000000000000000000000000000000000000000000000000000000007bffffffffffffffffffffffffffffffffffffffffffffffffffffffff1916827bffffffffffffffffffffffffffffffffffffffffffffffffffffffff1916149050919050565b60008073ffffffffffffffffffffffffffffffffffffffff166002600084815260200190815260200160002060009054906101000a900473ffffffffffffffffffffffffffffffffffffffff1673ffffffffffffffffffffffffffffffffffffffff1614159050919050565b600033905090565b816004600083815260200190815260200160002060006101000a81548173ffffffffffffffffffffffffffffffffffffffff021916908373ffffffffffffffffffffffffffffffffffffffff160217905550808273ffffffffffffffffffffffffffffffffffffffff1661164183610a29565b73ffffffffffffffffffffffffffffffffffffffff167f8c5be1e5ebec7d5bd14f71427d1e84f3dd0314c0f7b2291e5b200ac8c7c3b92560405160405180910390a45050565b600081600001549050919050565b6001816000016000828254019250508190555050565b600073ffffffffffffffffffffffffffffffffffffffff168273ffffffffffffffffffffffffffffffffffffffff16141561171b576040517f08c379a000000000000000000000000000000000000000000000000000000000815260040161171290612d27565b60405180910390fd5b6117248161155a565b15611764576040517f08c379a000000000000000000000000000000000000000000000000000000000815260040161175b90612c27565b60405180910390fd5b61177060008383611d94565b6001600360008473ffffffffffffffffffffffffffffffffffffffff1673ffffffffffffffffffffffffffffffffffffffff16815260200190815260200160002060008282546117c09190612f54565b92505081905550816002600083815260200190815260200160002060006101000a81548173ffffffffffffffffffffffffffffffffffffffff021916908373ffffffffffffffffffffffffffffffffffffffff160217905550808273ffffffffffffffffffffffffffffffffffffffff16600073ffffffffffffffffffffffffffffffffffffffff167fddf252ad1be2c89b69c2b068fc378daa952ba7f163c4a11628f55a4df523b3ef60405160405180910390a45050565b6118828261155a565b6118c1576040517f08c379a00000000000000000000000000000000000000000000000000000000081526004016118b890612d07565b60405180910390fd5b806006600084815260200190815260200160002090805190602001906118e8929190612202565b505050565b60006118f88261155a565b611937576040517f08c379a000000000000000000000000000000000000000000000000000000000815260040161192e90612c87565b60405180910390fd5b600061194283610a29565b90508073ffffffffffffffffffffffffffffffffffffffff168473ffffffffffffffffffffffffffffffffffffffff1614806119b157508373ffffffffffffffffffffffffffffffffffffffff16611999846105ab565b73ffffffffffffffffffffffffffffffffffffffff16145b806119c257506119c181856113c2565b5b91505092915050565b8273ffffffffffffffffffffffffffffffffffffffff166119eb82610a29565b73ffffffffffffffffffffffffffffffffffffffff1614611a41576040517f08c379a0000000000000000000000000000000000000000000000000000000008152600401611a3890612d87565b60405180910390fd5b600073ffffffffffffffffffffffffffffffffffffffff168273ffffffffffffffffffffffffffffffffffffffff161415611ab1576040517f08c379a0000000000000000000000000000000000000000000000000000000008152600401611aa890612c47565b60405180910390fd5b611abc838383611d94565b611ac76000826115ce565b6001600360008573ffffffffffffffffffffffffffffffffffffffff1673ffffffffffffffffffffffffffffffffffffffff1681526020019081526020016000206000828254611b179190612fdb565b925050819055506001600360008473ffffffffffffffffffffffffffffffffffffffff1673ffffffffffffffffffffffffffffffffffffffff1681526020019081526020016000206000828254611b6e9190612f54565b92505081905550816002600083815260200190815260200160002060006101000a81548173ffffffffffffffffffffffffffffffffffffffff021916908373ffffffffffffffffffffffffffffffffffffffff160217905550808273ffffffffffffffffffffffffffffffffffffffff168473ffffffffffffffffffffffffffffffffffffffff167fddf252ad1be2c89b69c2b068fc378daa952ba7f163c4a11628f55a4df523b3ef60405160405180910390a4505050565b611c328484846119cb565b611c3e84848484611d99565b611c7d576040517f08c379a0000000000000000000000000000000000000000000000000000000008152600401611c7490612c07565b60405180910390fd5b50505050565b606060405180602001604052806000815250905090565b6060611ca58261155a565b611ce4576040517f08c379a0000000000000000000000000000000000000000000000000000000008152600401611cdb90612da7565b60405180910390fd5b6000611cee611c83565b90506000815111611d0e5760405180602001604052806000815250611d39565b80611d1884611f30565b604051602001611d29929190612a9d565b6040516020818303038152906040525b915050919050565b611d4a81612091565b6000600660008381526020019081526020016000208054611d6a906130c5565b905014611d9157600660008281526020019081526020016000206000611d909190612288565b5b50565b505050565b6000611dba8473ffffffffffffffffffffffffffffffffffffffff166121a2565b15611f23578373ffffffffffffffffffffffffffffffffffffffff1663150b7a02611de36115c6565b8786866040518563ffffffff1660e01b8152600401611e059493929190612b3c565b602060405180830381600087803b158015611e1f57600080fd5b505af1925050508015611e5057506040513d601f19601f82011682018060405250810190611e4d9190612605565b60015b611ed3573d8060008114611e80576040519150601f19603f3d011682016040523d82523d6000602084013e611e85565b606091505b50600081511415611ecb576040517f08c379a0000000000000000000000000000000000000000000000000000000008152600401611ec290612c07565b60405180910390fd5b805181602001fd5b63150b7a0260e01b7bffffffffffffffffffffffffffffffffffffffffffffffffffffffff1916817bffffffffffffffffffffffffffffffffffffffffffffffffffffffff191614915050611f28565b600190505b949350505050565b60606000821415611f78576040518060400160405280600181526020017f3000000000000000000000000000000000000000000000000000000000000000815250905061208c565b600082905060005b60008214611faa578080611f9390613128565b915050600a82611fa39190612faa565b9150611f80565b60008167ffffffffffffffff811115611fc657611fc561325e565b5b6040519080825280601f01601f191660200182016040528015611ff85781602001600182028036833780820191505090505b5090505b60008514612085576001826120119190612fdb565b9150600a856120209190613171565b603061202c9190612f54565b60f81b8183815181106120425761204161322f565b5b60200101907effffffffffffffffffffffffffffffffffffffffffffffffffffffffffffff1916908160001a905350600a8561207e9190612faa565b9450611ffc565b8093505050505b919050565b600061209c82610a29565b90506120aa81600084611d94565b6120b56000836115ce565b6001600360008373ffffffffffffffffffffffffffffffffffffffff1673ffffffffffffffffffffffffffffffffffffffff16815260200190815260200160002060008282546121059190612fdb565b925050819055506002600083815260200190815260200160002060006101000a81549073ffffffffffffffffffffffffffffffffffffffff021916905581600073ffffffffffffffffffffffffffffffffffffffff168273ffffffffffffffffffffffffffffffffffffffff167fddf252ad1be2c89b69c2b068fc378daa952ba7f163c4a11628f55a4df523b3ef60405160405180910390a45050565b600080823b905060008111915050919050565b8280548282559060005260206000209081019282156121f1579160200282015b828111156121f05782518255916020019190600101906121d5565b5b5090506121fe91906122c8565b5090565b82805461220e906130c5565b90600052602060002090601f0160209004810192826122305760008555612277565b82601f1061224957805160ff1916838001178555612277565b82800160010185558215612277579182015b8281111561227657825182559160200191906001019061225b565b5b50905061228491906122c8565b5090565b508054612294906130c5565b6000825580601f106122a657506122c5565b601f0160209004906000526020600020908101906122c491906122c8565b5b50565b5b808211156122e15760008160009055506001016122c9565b5090565b60006122f86122f384612ea7565b612e82565b90508281526020810184848401111561231457612313613292565b5b61231f848285613083565b509392505050565b60008135905061233681613846565b92915050565b60008135905061234b8161385d565b92915050565b6000815190506123608161385d565b92915050565b60008135905061237581613874565b92915050565b60008151905061238a81613874565b92915050565b600082601f8301126123a5576123a461328d565b5b81356123b58482602086016122e5565b91505092915050565b6000813590506123cd8161388b565b92915050565b6000815190506123e28161388b565b92915050565b6000602082840312156123fe576123fd61329c565b5b600061240c84828501612327565b91505092915050565b6000806040838503121561242c5761242b61329c565b5b600061243a85828601612327565b925050602061244b85828601612327565b9150509250929050565b60008060006060848603121561246e5761246d61329c565b5b600061247c86828701612327565b935050602061248d86828701612327565b925050604061249e868287016123be565b9150509250925092565b600080600080608085870312156124c2576124c161329c565b5b60006124d087828801612327565b94505060206124e187828801612327565b93505060406124f2878288016123be565b925050606085013567ffffffffffffffff81111561251357612512613297565b5b61251f87828801612390565b91505092959194509250565b600080604083850312156125425761254161329c565b5b600061255085828601612327565b92505060206125618582860161233c565b9150509250929050565b600080604083850312156125825761258161329c565b5b600061259085828601612327565b92505060206125a1858286016123be565b9150509250929050565b6000602082840312156125c1576125c061329c565b5b60006125cf84828501612351565b91505092915050565b6000602082840312156125ee576125ed61329c565b5b60006125fc84828501612366565b91505092915050565b60006020828403121561261b5761261a61329c565b5b60006126298482850161237b565b91505092915050565b6000602082840312156126485761264761329c565b5b6000612656848285016123be565b91505092915050565b6000602082840312156126755761267461329c565b5b6000612683848285016123d3565b91505092915050565b60006126988383612a7f565b60208301905092915050565b6126ad8161300f565b82525050565b60006126be82612ee8565b6126c88185612f16565b93506126d383612ed8565b8060005b838110156127045781516126eb888261268c565b97506126f683612f09565b9250506001810190506126d7565b5085935050505092915050565b61271a81613021565b82525050565b600061272b82612ef3565b6127358185612f27565b9350612745818560208601613092565b61274e816132a1565b840191505092915050565b600061276482612efe565b61276e8185612f38565b935061277e818560208601613092565b612787816132a1565b840191505092915050565b600061279d82612efe565b6127a78185612f49565b93506127b7818560208601613092565b80840191505092915050565b60006127d0601083612f38565b91506127db826132b2565b602082019050919050565b60006127f3603283612f38565b91506127fe826132db565b604082019050919050565b6000612816601c83612f38565b91506128218261332a565b602082019050919050565b6000612839602483612f38565b915061284482613353565b604082019050919050565b600061285c601983612f38565b9150612867826133a2565b602082019050919050565b600061287f602c83612f38565b915061288a826133cb565b604082019050919050565b60006128a2603883612f38565b91506128ad8261341a565b604082019050919050565b60006128c5602a83612f38565b91506128d082613469565b604082019050919050565b60006128e8602983612f38565b91506128f3826134b8565b604082019050919050565b600061290b602e83612f38565b915061291682613507565b604082019050919050565b600061292e602083612f38565b915061293982613556565b602082019050919050565b6000612951603183612f38565b915061295c8261357f565b604082019050919050565b6000612974602c83612f38565b915061297f826135ce565b604082019050919050565b6000612997602983612f38565b91506129a28261361d565b604082019050919050565b60006129ba602f83612f38565b91506129c58261366c565b604082019050919050565b60006129dd602183612f38565b91506129e8826136bb565b604082019050919050565b6000612a00603583612f38565b9150612a0b8261370a565b604082019050919050565b6000612a23603183612f38565b9150612a2e82613759565b604082019050919050565b6000612a46603083612f38565b9150612a51826137a8565b604082019050919050565b6000612a69602783612f38565b9150612a74826137f7565b604082019050919050565b612a8881613079565b82525050565b612a9781613079565b82525050565b6000612aa98285612792565b9150612ab58284612792565b91508190509392505050565b6000602082019050612ad660008301846126a4565b92915050565b6000604082019050612af160008301856126a4565b612afe60208301846126a4565b9392505050565b6000606082019050612b1a60008301866126a4565b612b2760208301856126a4565b612b346040830184612a8e565b949350505050565b6000608082019050612b5160008301876126a4565b612b5e60208301866126a4565b612b6b6040830185612a8e565b8181036060830152612b7d8184612720565b905095945050505050565b60006020820190508181036000830152612ba281846126b3565b905092915050565b6000602082019050612bbf6000830184612711565b92915050565b60006020820190508181036000830152612bdf8184612759565b905092915050565b60006020820190508181036000830152612c00816127c3565b9050919050565b60006020820190508181036000830152612c20816127e6565b9050919050565b60006020820190508181036000830152612c4081612809565b9050919050565b60006020820190508181036000830152612c608161282c565b9050919050565b60006020820190508181036000830152612c808161284f565b9050919050565b60006020820190508181036000830152612ca081612872565b9050919050565b60006020820190508181036000830152612cc081612895565b9050919050565b60006020820190508181036000830152612ce0816128b8565b9050919050565b60006020820190508181036000830152612d00816128db565b9050919050565b60006020820190508181036000830152612d20816128fe565b9050919050565b60006020820190508181036000830152612d4081612921565b9050919050565b60006020820190508181036000830152612d6081612944565b9050919050565b60006020820190508181036000830152612d8081612967565b9050919050565b60006020820190508181036000830152612da08161298a565b9050919050565b60006020820190508181036000830152612dc0816129ad565b9050919050565b60006020820190508181036000830152612de0816129d0565b9050919050565b60006020820190508181036000830152612e00816129f3565b9050919050565b60006020820190508181036000830152612e2081612a16565b9050919050565b60006020820190508181036000830152612e4081612a39565b9050919050565b60006020820190508181036000830152612e6081612a5c565b9050919050565b6000602082019050612e7c6000830184612a8e565b92915050565b6000612e8c612e9d565b9050612e9882826130f7565b919050565b6000604051905090565b600067ffffffffffffffff821115612ec257612ec161325e565b5b612ecb826132a1565b9050602081019050919050565b6000819050602082019050919050565b600081519050919050565b600081519050919050565b600081519050919050565b6000602082019050919050565b600082825260208201905092915050565b600082825260208201905092915050565b600082825260208201905092915050565b600081905092915050565b6000612f5f82613079565b9150612f6a83613079565b9250827fffffffffffffffffffffffffffffffffffffffffffffffffffffffffffffffff03821115612f9f57612f9e6131a2565b5b828201905092915050565b6000612fb582613079565b9150612fc083613079565b925082612fd057612fcf6131d1565b5b828204905092915050565b6000612fe682613079565b9150612ff183613079565b925082821015613004576130036131a2565b5b828203905092915050565b600061301a82613059565b9050919050565b60008115159050919050565b60007fffffffff0000000000000000000000000000000000000000000000000000000082169050919050565b600073ffffffffffffffffffffffffffffffffffffffff82169050919050565b6000819050919050565b82818337600083830152505050565b60005b838110156130b0578082015181840152602081019050613095565b838111156130bf576000848401525b50505050565b600060028204905060018216806130dd57607f821691505b602082108114156130f1576130f0613200565b5b50919050565b613100826132a1565b810181811067ffffffffffffffff8211171561311f5761311e61325e565b5b80604052505050565b600061313382613079565b91507fffffffffffffffffffffffffffffffffffffffffffffffffffffffffffffffff821415613166576131656131a2565b5b600182019050919050565b600061317c82613079565b915061318783613079565b925082613197576131966131d1565b5b828206905092915050565b7f4e487b7100000000000000000000000000000000000000000000000000000000600052601160045260246000fd5b7f4e487b7100000000000000000000000000000000000000000000000000000000600052601260045260246000fd5b7f4e487b7100000000000000000000000000000000000000000000000000000000600052602260045260246000fd5b7f4e487b7100000000000000000000000000000000000000000000000000000000600052603260045260246000fd5b7f4e487b7100000000000000000000000000000000000000000000000000000000600052604160045260246000fd5b600080fd5b600080fd5b600080fd5b600080fd5b6000601f19601f8301169050919050565b7f62616c616e6365206973207a65726f2e00000000000000000000000000000000600082015250565b7f4552433732313a207472616e7366657220746f206e6f6e20455243373231526560008201527f63656976657220696d706c656d656e7465720000000000000000000000000000602082015250565b7f4552433732313a20746f6b656e20616c7265616479206d696e74656400000000600082015250565b7f4552433732313a207472616e7366657220746f20746865207a65726f2061646460008201527f7265737300000000000000000000000000000000000000000000000000000000602082015250565b7f4552433732313a20617070726f766520746f2063616c6c657200000000000000600082015250565b7f4552433732313a206f70657261746f7220717565727920666f72206e6f6e657860008201527f697374656e7420746f6b656e0000000000000000000000000000000000000000602082015250565b7f4552433732313a20617070726f76652063616c6c6572206973206e6f74206f7760008201527f6e6572206e6f7220617070726f76656420666f7220616c6c0000000000000000602082015250565b7f4552433732313a2062616c616e636520717565727920666f7220746865207a6560008201527f726f206164647265737300000000000000000000000000000000000000000000602082015250565b7f4552433732313a206f776e657220717565727920666f72206e6f6e657869737460008201527f656e7420746f6b656e0000000000000000000000000000000000000000000000602082015250565b7f45524337323155524953746f726167653a2055524920736574206f66206e6f6e60008201527f6578697374656e7420746f6b656e000000000000000000000000000000000000602082015250565b7f4552433732313a206d696e7420746f20746865207a65726f2061646472657373600082015250565b7f45524337323155524953746f726167653a2055524920717565727920666f722060008201527f6e6f6e6578697374656e7420746f6b656e000000000000000000000000000000602082015250565b7f4552433732313a20617070726f76656420717565727920666f72206e6f6e657860008201527f697374656e7420746f6b656e0000000000000000000000000000000000000000602082015250565b7f4552433732313a207472616e73666572206f6620746f6b656e2074686174206960008201527f73206e6f74206f776e0000000000000000000000000000000000000000000000602082015250565b7f4552433732314d657461646174613a2055524920717565727920666f72206e6f60008201527f6e6578697374656e7420746f6b656e0000000000000000000000000000000000602082015250565b7f4552433732313a20617070726f76616c20746f2063757272656e74206f776e6560008201527f7200000000000000000000000000000000000000000000000000000000000000602082015250565b7f546865206e756d626572206f662074686973204e465420746f6b656e73206f7660008201527f6572666c6f777320746f74616c20737570706c792e0000000000000000000000602082015250565b7f4552433732313a207472616e736665722063616c6c6572206973206e6f74206f60008201527f776e6572206e6f7220617070726f766564000000000000000000000000000000602082015250565b7f62616c616e636520697320746f6f20736d616c6c2c20796f752063616e27742060008201527f70617920666f72206d696e74696e672e00000000000000000000000000000000602082015250565b7f636f73742069732074686520736d616c6c6572207468616e20616c6c6f77656460008201527f20616d6f756e7400000000000000000000000000000000000000000000000000602082015250565b61384f8161300f565b811461385a57600080fd5b50565b61386681613021565b811461387157600080fd5b50565b61387d8161302d565b811461388857600080fd5b50565b61389481613079565b811461389f57600080fd5b5056fea264697066735822122078168ecfea1cd1e782c8175a866788e859c9336ab3c91fbce18fa5ab7d8dad6f64736f6c6343000805003368747470733a2f2f676174657761792e70696e6174612e636c6f75642f697066732f516d516e66417167777a4355626a397336446a6d31485747767852443841766838344e7535623171627258385147",
  "linkReferences": {},
  "deployedLinkReferences": {}
}