{
  "_format": "hh-sol-artifact-1",
  "contractName": "Adamant",
  "sourceName": "contracts/Adamant.sol",
  "abi": [
    {
      "inputs": [],
      "stateMutability": "nonpayable",
      "type": "constructor"
    },
    {
      "anonymous": false,
      "inputs": [
        {
          "indexed": true,
          "internalType": "address",
          "name": "owner",
          "type": "address"
        },
        {
          "indexed": true,
          "internalType": "address",
          "name": "spender",
          "type": "address"
        },
        {
          "indexed": false,
          "internalType": "uint256",
          "name": "value",
          "type": "uint256"
        }
      ],
      "name": "Approval",
      "type": "event"
    },
    {
      "anonymous": false,
      "inputs": [
        {
          "indexed": false,
          "internalType": "uint256",
          "name": "minTokensBeforeSwap",
          "type": "uint256"
        }
      ],
      "name": "MinTokensBeforeSwapUpdated",
      "type": "event"
    },
    {
      "anonymous": false,
      "inputs": [
        {
          "indexed": true,
          "internalType": "address",
          "name": "previousOwner",
          "type": "address"
        },
        {
          "indexed": true,
          "internalType": "address",
          "name": "newOwner",
          "type": "address"
        }
      ],
      "name": "OwnershipTransferred",
      "type": "event"
    },
    {
      "anonymous": false,
      "inputs": [
        {
          "indexed": false,
          "internalType": "uint256",
          "name": "tokensSwapped",
          "type": "uint256"
        },
        {
          "indexed": false,
          "internalType": "uint256",
          "name": "ethReceived",
          "type": "uint256"
        },
        {
          "indexed": false,
          "internalType": "uint256",
          "name": "tokensIntoLiqudity",
          "type": "uint256"
        }
      ],
      "name": "SwapAndLiquify",
      "type": "event"
    },
    {
      "anonymous": false,
      "inputs": [
        {
          "indexed": false,
          "internalType": "bool",
          "name": "enabled",
          "type": "bool"
        }
      ],
      "name": "SwapAndLiquifyEnabledUpdated",
      "type": "event"
    },
    {
      "anonymous": false,
      "inputs": [
        {
          "indexed": true,
          "internalType": "address",
          "name": "from",
          "type": "address"
        },
        {
          "indexed": true,
          "internalType": "address",
          "name": "to",
          "type": "address"
        },
        {
          "indexed": false,
          "internalType": "uint256",
          "name": "value",
          "type": "uint256"
        }
      ],
      "name": "Transfer",
      "type": "event"
    },
    {
      "anonymous": false,
      "inputs": [
        {
          "indexed": true,
          "internalType": "address",
          "name": "from",
          "type": "address"
        },
        {
          "indexed": true,
          "internalType": "address",
          "name": "burnAddress",
          "type": "address"
        },
        {
          "indexed": false,
          "internalType": "uint256",
          "name": "value",
          "type": "uint256"
        }
      ],
      "name": "TransferBurn",
      "type": "event"
    },
    {
      "inputs": [],
      "name": "_burnFee",
      "outputs": [
        {
          "internalType": "uint256",
          "name": "",
          "type": "uint256"
        }
      ],
      "stateMutability": "view",
      "type": "function"
    },
    {
      "inputs": [],
      "name": "_devWalletAddress",
      "outputs": [
        {
          "internalType": "address payable",
          "name": "",
          "type": "address"
        }
      ],
      "stateMutability": "view",
      "type": "function"
    },
    {
      "inputs": [],
      "name": "_holdersFee",
      "outputs": [
        {
          "internalType": "uint256",
          "name": "",
          "type": "uint256"
        }
      ],
      "stateMutability": "view",
      "type": "function"
    },
    {
      "inputs": [],
      "name": "_liquidityFee",
      "outputs": [
        {
          "internalType": "uint256",
          "name": "",
          "type": "uint256"
        }
      ],
      "stateMutability": "view",
      "type": "function"
    },
    {
      "inputs": [],
      "name": "_maxTxAmount",
      "outputs": [
        {
          "internalType": "uint256",
          "name": "",
          "type": "uint256"
        }
      ],
      "stateMutability": "view",
      "type": "function"
    },
    {
      "inputs": [],
      "name": "_previousBurnFee",
      "outputs": [
        {
          "internalType": "uint256",
          "name": "",
          "type": "uint256"
        }
      ],
      "stateMutability": "view",
      "type": "function"
    },
    {
      "inputs": [
        {
          "internalType": "address payable",
          "name": "devAddress",
          "type": "address"
        }
      ],
      "name": "_setCharityWallet",
      "outputs": [],
      "stateMutability": "nonpayable",
      "type": "function"
    },
    {
      "inputs": [
        {
          "internalType": "address",
          "name": "owner",
          "type": "address"
        },
        {
          "internalType": "address",
          "name": "spender",
          "type": "address"
        }
      ],
      "name": "allowance",
      "outputs": [
        {
          "internalType": "uint256",
          "name": "",
          "type": "uint256"
        }
      ],
      "stateMutability": "view",
      "type": "function"
    },
    {
      "inputs": [
        {
          "internalType": "address",
          "name": "spender",
          "type": "address"
        },
        {
          "internalType": "uint256",
          "name": "amount",
          "type": "uint256"
        }
      ],
      "name": "approve",
      "outputs": [
        {
          "internalType": "bool",
          "name": "",
          "type": "bool"
        }
      ],
      "stateMutability": "nonpayable",
      "type": "function"
    },
    {
      "inputs": [
        {
          "internalType": "address",
          "name": "account",
          "type": "address"
        }
      ],
      "name": "balanceOf",
      "outputs": [
        {
          "internalType": "uint256",
          "name": "",
          "type": "uint256"
        }
      ],
      "stateMutability": "view",
      "type": "function"
    },
    {
      "inputs": [],
      "name": "decimals",
      "outputs": [
        {
          "internalType": "uint8",
          "name": "",
          "type": "uint8"
        }
      ],
      "stateMutability": "view",
      "type": "function"
    },
    {
      "inputs": [
        {
          "internalType": "address",
          "name": "spender",
          "type": "address"
        },
        {
          "internalType": "uint256",
          "name": "subtractedValue",
          "type": "uint256"
        }
      ],
      "name": "decreaseAllowance",
      "outputs": [
        {
          "internalType": "bool",
          "name": "",
          "type": "bool"
        }
      ],
      "stateMutability": "nonpayable",
      "type": "function"
    },
    {
      "inputs": [
        {
          "internalType": "uint256",
          "name": "tAmount",
          "type": "uint256"
        }
      ],
      "name": "deliver",
      "outputs": [],
      "stateMutability": "nonpayable",
      "type": "function"
    },
    {
      "inputs": [
        {
          "internalType": "address",
          "name": "account",
          "type": "address"
        }
      ],
      "name": "excludeFromFee",
      "outputs": [],
      "stateMutability": "nonpayable",
      "type": "function"
    },
    {
      "inputs": [
        {
          "internalType": "address",
          "name": "account",
          "type": "address"
        }
      ],
      "name": "excludeFromReward",
      "outputs": [],
      "stateMutability": "nonpayable",
      "type": "function"
    },
    {
      "inputs": [],
      "name": "geUnlockTime",
      "outputs": [
        {
          "internalType": "uint256",
          "name": "",
          "type": "uint256"
        }
      ],
      "stateMutability": "view",
      "type": "function"
    },
    {
      "inputs": [
        {
          "internalType": "address",
          "name": "account",
          "type": "address"
        }
      ],
      "name": "includeInFee",
      "outputs": [],
      "stateMutability": "nonpayable",
      "type": "function"
    },
    {
      "inputs": [
        {
          "internalType": "address",
          "name": "account",
          "type": "address"
        }
      ],
      "name": "includeInReward",
      "outputs": [],
      "stateMutability": "nonpayable",
      "type": "function"
    },
    {
      "inputs": [
        {
          "internalType": "address",
          "name": "spender",
          "type": "address"
        },
        {
          "internalType": "uint256",
          "name": "addedValue",
          "type": "uint256"
        }
      ],
      "name": "increaseAllowance",
      "outputs": [
        {
          "internalType": "bool",
          "name": "",
          "type": "bool"
        }
      ],
      "stateMutability": "nonpayable",
      "type": "function"
    },
    {
      "inputs": [
        {
          "internalType": "address",
          "name": "account",
          "type": "address"
        }
      ],
      "name": "isExcludedFromFee",
      "outputs": [
        {
          "internalType": "bool",
          "name": "",
          "type": "bool"
        }
      ],
      "stateMutability": "view",
      "type": "function"
    },
    {
      "inputs": [
        {
          "internalType": "address",
          "name": "account",
          "type": "address"
        }
      ],
      "name": "isExcludedFromReward",
      "outputs": [
        {
          "internalType": "bool",
          "name": "",
          "type": "bool"
        }
      ],
      "stateMutability": "view",
      "type": "function"
    },
    {
      "inputs": [
        {
          "internalType": "uint256",
          "name": "time",
          "type": "uint256"
        }
      ],
      "name": "lock",
      "outputs": [],
      "stateMutability": "nonpayable",
      "type": "function"
    },
    {
      "inputs": [],
      "name": "m_addressPayCoin",
      "outputs": [
        {
          "internalType": "address",
          "name": "",
          "type": "address"
        }
      ],
      "stateMutability": "view",
      "type": "function"
    },
    {
      "inputs": [],
      "name": "name",
      "outputs": [
        {
          "internalType": "string",
          "name": "",
          "type": "string"
        }
      ],
      "stateMutability": "view",
      "type": "function"
    },
    {
      "inputs": [],
      "name": "owner",
      "outputs": [
        {
          "internalType": "address",
          "name": "",
          "type": "address"
        }
      ],
      "stateMutability": "view",
      "type": "function"
    },
    {
      "inputs": [
        {
          "internalType": "uint256",
          "name": "tAmount",
          "type": "uint256"
        },
        {
          "internalType": "bool",
          "name": "deductTransferFee",
          "type": "bool"
        }
      ],
      "name": "reflectionFromToken",
      "outputs": [
        {
          "internalType": "uint256",
          "name": "",
          "type": "uint256"
        }
      ],
      "stateMutability": "view",
      "type": "function"
    },
    {
      "inputs": [],
      "name": "renounceOwnership",
      "outputs": [],
      "stateMutability": "nonpayable",
      "type": "function"
    },
    {
      "inputs": [
        {
          "internalType": "uint256",
          "name": "burnFee",
          "type": "uint256"
        }
      ],
      "name": "setBurnFeePercent",
      "outputs": [],
      "stateMutability": "nonpayable",
      "type": "function"
    },
    {
      "inputs": [
        {
          "internalType": "uint256",
          "name": "holdersFee",
          "type": "uint256"
        }
      ],
      "name": "setHoldersFeePercent",
      "outputs": [],
      "stateMutability": "nonpayable",
      "type": "function"
    },
    {
      "inputs": [
        {
          "internalType": "uint256",
          "name": "liquidityFee",
          "type": "uint256"
        }
      ],
      "name": "setLiquidityFeePercent",
      "outputs": [],
      "stateMutability": "nonpayable",
      "type": "function"
    },
    {
      "inputs": [
        {
          "internalType": "uint256",
          "name": "maxTxPercent",
          "type": "uint256"
        }
      ],
      "name": "setMaxTxPercent",
      "outputs": [],
      "stateMutability": "nonpayable",
      "type": "function"
    },
    {
      "inputs": [
        {
          "internalType": "bool",
          "name": "_enabled",
          "type": "bool"
        }
      ],
      "name": "setSwapAndLiquifyEnabled",
      "outputs": [],
      "stateMutability": "nonpayable",
      "type": "function"
    },
    {
      "inputs": [],
      "name": "swapAndLiquifyEnabled",
      "outputs": [
        {
          "internalType": "bool",
          "name": "",
          "type": "bool"
        }
      ],
      "stateMutability": "view",
      "type": "function"
    },
    {
      "inputs": [],
      "name": "symbol",
      "outputs": [
        {
          "internalType": "string",
          "name": "",
          "type": "string"
        }
      ],
      "stateMutability": "view",
      "type": "function"
    },
    {
      "inputs": [
        {
          "internalType": "uint256",
          "name": "rAmount",
          "type": "uint256"
        }
      ],
      "name": "tokenFromReflection",
      "outputs": [
        {
          "internalType": "uint256",
          "name": "",
          "type": "uint256"
        }
      ],
      "stateMutability": "view",
      "type": "function"
    },
    {
      "inputs": [],
      "name": "totalFees",
      "outputs": [
        {
          "internalType": "uint256",
          "name": "",
          "type": "uint256"
        }
      ],
      "stateMutability": "view",
      "type": "function"
    },
    {
      "inputs": [],
      "name": "totalSupply",
      "outputs": [
        {
          "internalType": "uint256",
          "name": "",
          "type": "uint256"
        }
      ],
      "stateMutability": "view",
      "type": "function"
    },
    {
      "inputs": [
        {
          "internalType": "address",
          "name": "recipient",
          "type": "address"
        },
        {
          "internalType": "uint256",
          "name": "amount",
          "type": "uint256"
        }
      ],
      "name": "transfer",
      "outputs": [
        {
          "internalType": "bool",
          "name": "",
          "type": "bool"
        }
      ],
      "stateMutability": "nonpayable",
      "type": "function"
    },
    {
      "inputs": [
        {
          "internalType": "address",
          "name": "sender",
          "type": "address"
        },
        {
          "internalType": "address",
          "name": "recipient",
          "type": "address"
        },
        {
          "internalType": "uint256",
          "name": "amount",
          "type": "uint256"
        }
      ],
      "name": "transferFrom",
      "outputs": [
        {
          "internalType": "bool",
          "name": "",
          "type": "bool"
        }
      ],
      "stateMutability": "nonpayable",
      "type": "function"
    },
    {
      "inputs": [
        {
          "internalType": "address",
          "name": "newOwner",
          "type": "address"
        }
      ],
      "name": "transferOwnership",
      "outputs": [],
      "stateMutability": "nonpayable",
      "type": "function"
    },
    {
      "inputs": [],
      "name": "uniswapV2Pair",
      "outputs": [
        {
          "internalType": "address",
          "name": "",
          "type": "address"
        }
      ],
      "stateMutability": "view",
      "type": "function"
    },
    {
      "inputs": [],
      "name": "uniswapV2Router",
      "outputs": [
        {
          "internalType": "contract IUniswapV2Router02",
          "name": "",
          "type": "address"
        }
      ],
      "stateMutability": "view",
      "type": "function"
    },
    {
      "inputs": [],
      "name": "unlock",
      "outputs": [],
      "stateMutability": "nonpayable",
      "type": "function"
    },
    {
      "stateMutability": "payable",
      "type": "receive"
    }
  ],
  "bytecode": "0x60c0604052683635c9adc5dea00000600955600954600019620000239190620009d5565b60001962000032919062000926565b600a556040518060400160405280600781526020017f4164616d616e7400000000000000000000000000000000000000000000000000815250600c908051906020019062000082929190620007c1565b506040518060400160405280600481526020017f41444d4300000000000000000000000000000000000000000000000000000000815250600d9080519060200190620000d0929190620007c1565b506009600e60006101000a81548160ff021916908360ff1602179055506005600f55600f546010556002601155601154601255600360135560135460145561dead601660006101000a81548173ffffffffffffffffffffffffffffffffffffffff021916908373ffffffffffffffffffffffffffffffffffffffff1602179055506000601660156101000a81548160ff021916908315150217905550683635c9adc5dea000006017556706f05b59d3b2000060185573727aae5ea522cb0feb3e7983c7866881bb220a9f601960006101000a81548173ffffffffffffffffffffffffffffffffffffffff021916908373ffffffffffffffffffffffffffffffffffffffff160217905550348015620001e757600080fd5b506000620001fa6200079060201b60201c565b9050806000806101000a81548173ffffffffffffffffffffffffffffffffffffffff021916908373ffffffffffffffffffffffffffffffffffffffff1602179055508073ffffffffffffffffffffffffffffffffffffffff16600073ffffffffffffffffffffffffffffffffffffffff167f8be0079c531659141344cd1fd0a4f28419497f9722a3daafe3b4186f6b6457e060405160405180910390a350730a912a13a1297320d634f5a54bc3554e3a994545601560006101000a81548173ffffffffffffffffffffffffffffffffffffffff021916908373ffffffffffffffffffffffffffffffffffffffff160217905550600a5460036000620003046200079060201b60201c565b73ffffffffffffffffffffffffffffffffffffffff1673ffffffffffffffffffffffffffffffffffffffff168152602001908152602001600020819055506000737a250d5630b4cf539739df2c5dacb4c659f2488d90508073ffffffffffffffffffffffffffffffffffffffff1663c45a01556040518163ffffffff1660e01b815260040160206040518083038186803b158015620003a257600080fd5b505afa158015620003b7573d6000803e3d6000fd5b505050506040513d601f19601f82011682018060405250810190620003dd919062000888565b73ffffffffffffffffffffffffffffffffffffffff1663c9c65396308373ffffffffffffffffffffffffffffffffffffffff1663ad5c46486040518163ffffffff1660e01b815260040160206040518083038186803b1580156200044057600080fd5b505afa15801562000455573d6000803e3d6000fd5b505050506040513d601f19601f820116820180604052508101906200047b919062000888565b6040518363ffffffff1660e01b81526004016200049a929190620008dc565b602060405180830381600087803b158015620004b557600080fd5b505af1158015620004ca573d6000803e3d6000fd5b505050506040513d601f19601f82011682018060405250810190620004f0919062000888565b73ffffffffffffffffffffffffffffffffffffffff1660a08173ffffffffffffffffffffffffffffffffffffffff1660601b815250508073ffffffffffffffffffffffffffffffffffffffff1660808173ffffffffffffffffffffffffffffffffffffffff1660601b81525050600160066000620005736200079860201b60201c565b73ffffffffffffffffffffffffffffffffffffffff1673ffffffffffffffffffffffffffffffffffffffff16815260200190815260200160002060006101000a81548160ff0219169083151502179055506001600660003073ffffffffffffffffffffffffffffffffffffffff1673ffffffffffffffffffffffffffffffffffffffff16815260200190815260200160002060006101000a81548160ff021916908315150217905550600160066000601660009054906101000a900473ffffffffffffffffffffffffffffffffffffffff1673ffffffffffffffffffffffffffffffffffffffff1673ffffffffffffffffffffffffffffffffffffffff16815260200190815260200160002060006101000a81548160ff021916908315150217905550600160076000601660009054906101000a900473ffffffffffffffffffffffffffffffffffffffff1673ffffffffffffffffffffffffffffffffffffffff1673ffffffffffffffffffffffffffffffffffffffff16815260200190815260200160002060006101000a81548160ff021916908315150217905550620007206200079060201b60201c565b73ffffffffffffffffffffffffffffffffffffffff16600073ffffffffffffffffffffffffffffffffffffffff167fddf252ad1be2c89b69c2b068fc378daa952ba7f163c4a11628f55a4df523b3ef60095460405162000781919062000909565b60405180910390a35062000ab9565b600033905090565b60008060009054906101000a900473ffffffffffffffffffffffffffffffffffffffff16905090565b828054620007cf906200099f565b90600052602060002090601f016020900481019282620007f357600085556200083f565b82601f106200080e57805160ff19168380011785556200083f565b828001600101855582156200083f579182015b828111156200083e57825182559160200191906001019062000821565b5b5090506200084e919062000852565b5090565b5b808211156200086d57600081600090555060010162000853565b5090565b600081519050620008828162000a9f565b92915050565b600060208284031215620008a157620008a062000a9a565b5b6000620008b18482850162000871565b91505092915050565b620008c58162000961565b82525050565b620008d68162000995565b82525050565b6000604082019050620008f36000830185620008ba565b620009026020830184620008ba565b9392505050565b6000602082019050620009206000830184620008cb565b92915050565b6000620009338262000995565b9150620009408362000995565b92508282101562000956576200095562000a0d565b5b828203905092915050565b60006200096e8262000975565b9050919050565b600073ffffffffffffffffffffffffffffffffffffffff82169050919050565b6000819050919050565b60006002820490506001821680620009b857607f821691505b60208210811415620009cf57620009ce62000a6b565b5b50919050565b6000620009e28262000995565b9150620009ef8362000995565b92508262000a025762000a0162000a3c565b5b828206905092915050565b7f4e487b7100000000000000000000000000000000000000000000000000000000600052601160045260246000fd5b7f4e487b7100000000000000000000000000000000000000000000000000000000600052601260045260246000fd5b7f4e487b7100000000000000000000000000000000000000000000000000000000600052602260045260246000fd5b600080fd5b62000aaa8162000961565b811462000ab657600080fd5b50565b60805160601c60a05160601c615e1162000b0f600039600081816113710152612a8b015260008181610ae5015281816137310152818161382101528181613848015281816138e4015261390b0152615e116000f3fe6080604052600436106102605760003560e01c8063715018a611610144578063b6c52324116100b6578063d543dbeb1161007a578063d543dbeb1461091d578063dd46706414610946578063dd62ed3e1461096f578063ea2f0b37146109ac578063f2fde38b146109d5578063fa80f7ee146109fe57610267565b8063b6c523241461084c578063c0b0fda214610877578063c49b9a80146108a2578063cea26958146108cb578063d047e4b7146108f457610267565b80638ee88c53116101085780638ee88c531461073c57806395d89b4114610765578063a457c2d714610790578063a69df4b5146107cd578063a9059cbb146107e4578063b425bac31461082157610267565b8063715018a6146106695780637d1db4a51461068057806388d2e257146106ab57806388f82020146106d45780638da5cb5b1461071157610267565b80633685d419116101dd57806349bd5a5e116101a157806349bd5a5e146105455780634a74bb021461057057806352390c021461059b5780635342acb4146105c45780636bc87c3a1461060157806370a082311461062c57610267565b80633685d4191461045057806339509351146104795780633bd5d173146104b6578063437823ec146104df5780634549b0391461050857610267565b80631d158d5c116102245780631d158d5c1461035557806323b872dd1461038057806328b93a55146103bd5780632d838119146103e8578063313ce5671461042557610267565b806306fdde031461026c578063095ea7b31461029757806313114a9d146102d45780631694505e146102ff57806318160ddd1461032a57610267565b3661026757005b600080fd5b34801561027857600080fd5b50610281610a29565b60405161028e9190615232565b60405180910390f35b3480156102a357600080fd5b506102be60048036038101906102b99190614ce1565b610abb565b6040516102cb91906151fc565b60405180910390f35b3480156102e057600080fd5b506102e9610ad9565b6040516102f69190615454565b60405180910390f35b34801561030b57600080fd5b50610314610ae3565b6040516103219190615217565b60405180910390f35b34801561033657600080fd5b5061033f610b07565b60405161034c9190615454565b60405180910390f35b34801561036157600080fd5b5061036a610b11565b6040516103779190615454565b60405180910390f35b34801561038c57600080fd5b506103a760048036038101906103a29190614c8e565b610b17565b6040516103b491906151fc565b60405180910390f35b3480156103c957600080fd5b506103d2610bf0565b6040516103df9190615454565b60405180910390f35b3480156103f457600080fd5b5061040f600480360381019061040a9190614d4e565b610bf6565b60405161041c9190615454565b60405180910390f35b34801561043157600080fd5b5061043a610c64565b6040516104479190615500565b60405180910390f35b34801561045c57600080fd5b5061047760048036038101906104729190614bc7565b610c7b565b005b34801561048557600080fd5b506104a0600480360381019061049b9190614ce1565b610fca565b6040516104ad91906151fc565b60405180910390f35b3480156104c257600080fd5b506104dd60048036038101906104d89190614d4e565b61107d565b005b3480156104eb57600080fd5b5061050660048036038101906105019190614bc7565b6111f9565b005b34801561051457600080fd5b5061052f600480360381019061052a9190614d7b565b6112e9565b60405161053c9190615454565b60405180910390f35b34801561055157600080fd5b5061055a61136f565b6040516105679190615165565b60405180910390f35b34801561057c57600080fd5b50610585611393565b60405161059291906151fc565b60405180910390f35b3480156105a757600080fd5b506105c260048036038101906105bd9190614bc7565b6113a6565b005b3480156105d057600080fd5b506105eb60048036038101906105e69190614bc7565b61165a565b6040516105f891906151fc565b60405180910390f35b34801561060d57600080fd5b506106166116b0565b6040516106239190615454565b60405180910390f35b34801561063857600080fd5b50610653600480360381019061064e9190614bc7565b6116b6565b6040516106609190615454565b60405180910390f35b34801561067557600080fd5b5061067e6117a1565b005b34801561068c57600080fd5b506106956118f4565b6040516106a29190615454565b60405180910390f35b3480156106b757600080fd5b506106d260048036038101906106cd9190614d4e565b6118fa565b005b3480156106e057600080fd5b506106fb60048036038101906106f69190614bc7565b611999565b60405161070891906151fc565b60405180910390f35b34801561071d57600080fd5b506107266119ef565b6040516107339190615165565b60405180910390f35b34801561074857600080fd5b50610763600480360381019061075e9190614d4e565b611a18565b005b34801561077157600080fd5b5061077a611ab7565b6040516107879190615232565b60405180910390f35b34801561079c57600080fd5b506107b760048036038101906107b29190614ce1565b611b49565b6040516107c491906151fc565b60405180910390f35b3480156107d957600080fd5b506107e2611c16565b005b3480156107f057600080fd5b5061080b60048036038101906108069190614ce1565b611dea565b60405161081891906151fc565b60405180910390f35b34801561082d57600080fd5b50610836611e08565b6040516108439190615180565b60405180910390f35b34801561085857600080fd5b50610861611e2e565b60405161086e9190615454565b60405180910390f35b34801561088357600080fd5b5061088c611e38565b6040516108999190615454565b60405180910390f35b3480156108ae57600080fd5b506108c960048036038101906108c49190614d21565b611e3e565b005b3480156108d757600080fd5b506108f260048036038101906108ed9190614d4e565b611f27565b005b34801561090057600080fd5b5061091b60048036038101906109169190614c21565b611fc6565b005b34801561092957600080fd5b50610944600480360381019061093f9190614d4e565b61209f565b005b34801561095257600080fd5b5061096d60048036038101906109689190614d4e565b612165565b005b34801561097b57600080fd5b5061099660048036038101906109919190614c4e565b61232c565b6040516109a39190615454565b60405180910390f35b3480156109b857600080fd5b506109d360048036038101906109ce9190614bc7565b6123b3565b005b3480156109e157600080fd5b506109fc60048036038101906109f79190614bc7565b6124a3565b005b348015610a0a57600080fd5b50610a13612665565b604051610a209190615165565b60405180910390f35b6060600c8054610a3890615755565b80601f0160208091040260200160405190810160405280929190818152602001828054610a6490615755565b8015610ab15780601f10610a8657610100808354040283529160200191610ab1565b820191906000526020600020905b815481529060010190602001808311610a9457829003601f168201915b5050505050905090565b6000610acf610ac861268b565b8484612693565b6001905092915050565b6000600b54905090565b7f000000000000000000000000000000000000000000000000000000000000000081565b6000600954905090565b60115481565b6000610b2484848461285e565b610be584610b3061268b565b610be085604051806060016040528060288152602001615d8f60289139600560008b73ffffffffffffffffffffffffffffffffffffffff1673ffffffffffffffffffffffffffffffffffffffff1681526020019081526020016000206000610b9661268b565b73ffffffffffffffffffffffffffffffffffffffff1673ffffffffffffffffffffffffffffffffffffffff16815260200190815260200160002054612bcb9092919063ffffffff16565b612693565b600190509392505050565b60145481565b6000600a54821115610c3d576040517f08c379a0000000000000000000000000000000000000000000000000000000008152600401610c3490615274565b60405180910390fd5b6000610c47612c2f565b9050610c5c8184612c5a90919063ffffffff16565b915050919050565b6000600e60009054906101000a900460ff16905090565b610c8361268b565b73ffffffffffffffffffffffffffffffffffffffff1660008054906101000a900473ffffffffffffffffffffffffffffffffffffffff1673ffffffffffffffffffffffffffffffffffffffff1614610d10576040517f08c379a0000000000000000000000000000000000000000000000000000000008152600401610d0790615374565b60405180910390fd5b600760008273ffffffffffffffffffffffffffffffffffffffff1673ffffffffffffffffffffffffffffffffffffffff16815260200190815260200160002060009054906101000a900460ff16610d9c576040517f08c379a0000000000000000000000000000000000000000000000000000000008152600401610d93906152f4565b60405180910390fd5b60005b600880549050811015610fc6578173ffffffffffffffffffffffffffffffffffffffff1660088281548110610dd757610dd661588c565b5b9060005260206000200160009054906101000a900473ffffffffffffffffffffffffffffffffffffffff1673ffffffffffffffffffffffffffffffffffffffff161415610fb35760086001600880549050610e329190615651565b81548110610e4357610e4261588c565b5b9060005260206000200160009054906101000a900473ffffffffffffffffffffffffffffffffffffffff1660088281548110610e8257610e8161588c565b5b9060005260206000200160006101000a81548173ffffffffffffffffffffffffffffffffffffffff021916908373ffffffffffffffffffffffffffffffffffffffff1602179055506000600460008473ffffffffffffffffffffffffffffffffffffffff1673ffffffffffffffffffffffffffffffffffffffff168152602001908152602001600020819055506000600760008473ffffffffffffffffffffffffffffffffffffffff1673ffffffffffffffffffffffffffffffffffffffff16815260200190815260200160002060006101000a81548160ff0219169083151502179055506008805480610f7957610f7861585d565b5b6001900381819060005260206000200160006101000a81549073ffffffffffffffffffffffffffffffffffffffff02191690559055610fc6565b8080610fbe90615787565b915050610d9f565b5050565b6000611073610fd761268b565b8461106e8560056000610fe861268b565b73ffffffffffffffffffffffffffffffffffffffff1673ffffffffffffffffffffffffffffffffffffffff16815260200190815260200160002060008973ffffffffffffffffffffffffffffffffffffffff1673ffffffffffffffffffffffffffffffffffffffff16815260200190815260200160002054612ca490919063ffffffff16565b612693565b6001905092915050565b600061108761268b565b9050600760008273ffffffffffffffffffffffffffffffffffffffff1673ffffffffffffffffffffffffffffffffffffffff16815260200190815260200160002060009054906101000a900460ff1615611116576040517f08c379a000000000000000000000000000000000000000000000000000000000815260040161110d90615414565b60405180910390fd5b600061112183612d02565b505050505050905061117b81600360008573ffffffffffffffffffffffffffffffffffffffff1673ffffffffffffffffffffffffffffffffffffffff16815260200190815260200160002054612d6a90919063ffffffff16565b600360008473ffffffffffffffffffffffffffffffffffffffff1673ffffffffffffffffffffffffffffffffffffffff168152602001908152602001600020819055506111d381600a54612d6a90919063ffffffff16565b600a819055506111ee83600b54612ca490919063ffffffff16565b600b81905550505050565b61120161268b565b73ffffffffffffffffffffffffffffffffffffffff1660008054906101000a900473ffffffffffffffffffffffffffffffffffffffff1673ffffffffffffffffffffffffffffffffffffffff161461128e576040517f08c379a000000000000000000000000000000000000000000000000000000000815260040161128590615374565b60405180910390fd5b6001600660008373ffffffffffffffffffffffffffffffffffffffff1673ffffffffffffffffffffffffffffffffffffffff16815260200190815260200160002060006101000a81548160ff02191690831515021790555050565b6000600954831115611330576040517f08c379a000000000000000000000000000000000000000000000000000000000815260040161132790615314565b60405180910390fd5b8161135157600061134084612d02565b505050505050905080915050611369565b600061135c84612d02565b5050505050915050809150505b92915050565b7f000000000000000000000000000000000000000000000000000000000000000081565b601660159054906101000a900460ff1681565b6113ae61268b565b73ffffffffffffffffffffffffffffffffffffffff1660008054906101000a900473ffffffffffffffffffffffffffffffffffffffff1673ffffffffffffffffffffffffffffffffffffffff161461143b576040517f08c379a000000000000000000000000000000000000000000000000000000000815260040161143290615374565b60405180910390fd5b600760008273ffffffffffffffffffffffffffffffffffffffff1673ffffffffffffffffffffffffffffffffffffffff16815260200190815260200160002060009054906101000a900460ff16156114c8576040517f08c379a00000000000000000000000000000000000000000000000000000000081526004016114bf906152f4565b60405180910390fd5b6000600360008373ffffffffffffffffffffffffffffffffffffffff1673ffffffffffffffffffffffffffffffffffffffff16815260200190815260200160002054111561159c57611558600360008373ffffffffffffffffffffffffffffffffffffffff1673ffffffffffffffffffffffffffffffffffffffff16815260200190815260200160002054610bf6565b600460008373ffffffffffffffffffffffffffffffffffffffff1673ffffffffffffffffffffffffffffffffffffffff168152602001908152602001600020819055505b6001600760008373ffffffffffffffffffffffffffffffffffffffff1673ffffffffffffffffffffffffffffffffffffffff16815260200190815260200160002060006101000a81548160ff0219169083151502179055506008819080600181540180825580915050600190039060005260206000200160009091909190916101000a81548173ffffffffffffffffffffffffffffffffffffffff021916908373ffffffffffffffffffffffffffffffffffffffff16021790555050565b6000600660008373ffffffffffffffffffffffffffffffffffffffff1673ffffffffffffffffffffffffffffffffffffffff16815260200190815260200160002060009054906101000a900460ff169050919050565b600f5481565b6000600760008373ffffffffffffffffffffffffffffffffffffffff1673ffffffffffffffffffffffffffffffffffffffff16815260200190815260200160002060009054906101000a900460ff161561175157600460008373ffffffffffffffffffffffffffffffffffffffff1673ffffffffffffffffffffffffffffffffffffffff16815260200190815260200160002054905061179c565b611799600360008473ffffffffffffffffffffffffffffffffffffffff1673ffffffffffffffffffffffffffffffffffffffff16815260200190815260200160002054610bf6565b90505b919050565b6117a961268b565b73ffffffffffffffffffffffffffffffffffffffff1660008054906101000a900473ffffffffffffffffffffffffffffffffffffffff1673ffffffffffffffffffffffffffffffffffffffff1614611836576040517f08c379a000000000000000000000000000000000000000000000000000000000815260040161182d90615374565b60405180910390fd5b600073ffffffffffffffffffffffffffffffffffffffff1660008054906101000a900473ffffffffffffffffffffffffffffffffffffffff1673ffffffffffffffffffffffffffffffffffffffff167f8be0079c531659141344cd1fd0a4f28419497f9722a3daafe3b4186f6b6457e060405160405180910390a360008060006101000a81548173ffffffffffffffffffffffffffffffffffffffff021916908373ffffffffffffffffffffffffffffffffffffffff160217905550565b60175481565b61190261268b565b73ffffffffffffffffffffffffffffffffffffffff1660008054906101000a900473ffffffffffffffffffffffffffffffffffffffff1673ffffffffffffffffffffffffffffffffffffffff161461198f576040517f08c379a000000000000000000000000000000000000000000000000000000000815260040161198690615374565b60405180910390fd5b8060118190555050565b6000600760008373ffffffffffffffffffffffffffffffffffffffff1673ffffffffffffffffffffffffffffffffffffffff16815260200190815260200160002060009054906101000a900460ff169050919050565b60008060009054906101000a900473ffffffffffffffffffffffffffffffffffffffff16905090565b611a2061268b565b73ffffffffffffffffffffffffffffffffffffffff1660008054906101000a900473ffffffffffffffffffffffffffffffffffffffff1673ffffffffffffffffffffffffffffffffffffffff1614611aad576040517f08c379a0000000000000000000000000000000000000000000000000000000008152600401611aa490615374565b60405180910390fd5b80600f8190555050565b6060600d8054611ac690615755565b80601f0160208091040260200160405190810160405280929190818152602001828054611af290615755565b8015611b3f5780601f10611b1457610100808354040283529160200191611b3f565b820191906000526020600020905b815481529060010190602001808311611b2257829003601f168201915b5050505050905090565b6000611c0c611b5661268b565b84611c0785604051806060016040528060258152602001615db76025913960056000611b8061268b565b73ffffffffffffffffffffffffffffffffffffffff1673ffffffffffffffffffffffffffffffffffffffff16815260200190815260200160002060008a73ffffffffffffffffffffffffffffffffffffffff1673ffffffffffffffffffffffffffffffffffffffff16815260200190815260200160002054612bcb9092919063ffffffff16565b612693565b6001905092915050565b3373ffffffffffffffffffffffffffffffffffffffff16600160009054906101000a900473ffffffffffffffffffffffffffffffffffffffff1673ffffffffffffffffffffffffffffffffffffffff1614611ca6576040517f08c379a0000000000000000000000000000000000000000000000000000000008152600401611c9d90615434565b60405180910390fd5b6002544211611cea576040517f08c379a0000000000000000000000000000000000000000000000000000000008152600401611ce1906153f4565b60405180910390fd5b600160009054906101000a900473ffffffffffffffffffffffffffffffffffffffff1673ffffffffffffffffffffffffffffffffffffffff1660008054906101000a900473ffffffffffffffffffffffffffffffffffffffff1673ffffffffffffffffffffffffffffffffffffffff167f8be0079c531659141344cd1fd0a4f28419497f9722a3daafe3b4186f6b6457e060405160405180910390a3600160009054906101000a900473ffffffffffffffffffffffffffffffffffffffff166000806101000a81548173ffffffffffffffffffffffffffffffffffffffff021916908373ffffffffffffffffffffffffffffffffffffffff160217905550565b6000611dfe611df761268b565b848461285e565b6001905092915050565b601560009054906101000a900473ffffffffffffffffffffffffffffffffffffffff1681565b6000600254905090565b60135481565b611e4661268b565b73ffffffffffffffffffffffffffffffffffffffff1660008054906101000a900473ffffffffffffffffffffffffffffffffffffffff1673ffffffffffffffffffffffffffffffffffffffff1614611ed3576040517f08c379a0000000000000000000000000000000000000000000000000000000008152600401611eca90615374565b60405180910390fd5b80601660156101000a81548160ff0219169083151502179055507f53726dfcaf90650aa7eb35524f4d3220f07413c8d6cb404cc8c18bf5591bc15981604051611f1c91906151fc565b60405180910390a150565b611f2f61268b565b73ffffffffffffffffffffffffffffffffffffffff1660008054906101000a900473ffffffffffffffffffffffffffffffffffffffff1673ffffffffffffffffffffffffffffffffffffffff1614611fbc576040517f08c379a0000000000000000000000000000000000000000000000000000000008152600401611fb390615374565b60405180910390fd5b8060138190555050565b611fce61268b565b73ffffffffffffffffffffffffffffffffffffffff1660008054906101000a900473ffffffffffffffffffffffffffffffffffffffff1673ffffffffffffffffffffffffffffffffffffffff161461205b576040517f08c379a000000000000000000000000000000000000000000000000000000000815260040161205290615374565b60405180910390fd5b80601560006101000a81548173ffffffffffffffffffffffffffffffffffffffff021916908373ffffffffffffffffffffffffffffffffffffffff16021790555050565b6120a761268b565b73ffffffffffffffffffffffffffffffffffffffff1660008054906101000a900473ffffffffffffffffffffffffffffffffffffffff1673ffffffffffffffffffffffffffffffffffffffff1614612134576040517f08c379a000000000000000000000000000000000000000000000000000000000815260040161212b90615374565b60405180910390fd5b61215c606461214e83600954612db490919063ffffffff16565b612c5a90919063ffffffff16565b60178190555050565b61216d61268b565b73ffffffffffffffffffffffffffffffffffffffff1660008054906101000a900473ffffffffffffffffffffffffffffffffffffffff1673ffffffffffffffffffffffffffffffffffffffff16146121fa576040517f08c379a00000000000000000000000000000000000000000000000000000000081526004016121f190615374565b60405180910390fd5b60008054906101000a900473ffffffffffffffffffffffffffffffffffffffff16600160006101000a81548173ffffffffffffffffffffffffffffffffffffffff021916908373ffffffffffffffffffffffffffffffffffffffff16021790555060008060006101000a81548173ffffffffffffffffffffffffffffffffffffffff021916908373ffffffffffffffffffffffffffffffffffffffff16021790555080426122a89190615570565b600281905550600073ffffffffffffffffffffffffffffffffffffffff1660008054906101000a900473ffffffffffffffffffffffffffffffffffffffff1673ffffffffffffffffffffffffffffffffffffffff167f8be0079c531659141344cd1fd0a4f28419497f9722a3daafe3b4186f6b6457e060405160405180910390a350565b6000600560008473ffffffffffffffffffffffffffffffffffffffff1673ffffffffffffffffffffffffffffffffffffffff16815260200190815260200160002060008373ffffffffffffffffffffffffffffffffffffffff1673ffffffffffffffffffffffffffffffffffffffff16815260200190815260200160002054905092915050565b6123bb61268b565b73ffffffffffffffffffffffffffffffffffffffff1660008054906101000a900473ffffffffffffffffffffffffffffffffffffffff1673ffffffffffffffffffffffffffffffffffffffff1614612448576040517f08c379a000000000000000000000000000000000000000000000000000000000815260040161243f90615374565b60405180910390fd5b6000600660008373ffffffffffffffffffffffffffffffffffffffff1673ffffffffffffffffffffffffffffffffffffffff16815260200190815260200160002060006101000a81548160ff02191690831515021790555050565b6124ab61268b565b73ffffffffffffffffffffffffffffffffffffffff1660008054906101000a900473ffffffffffffffffffffffffffffffffffffffff1673ffffffffffffffffffffffffffffffffffffffff1614612538576040517f08c379a000000000000000000000000000000000000000000000000000000000815260040161252f90615374565b60405180910390fd5b600073ffffffffffffffffffffffffffffffffffffffff168173ffffffffffffffffffffffffffffffffffffffff1614156125a8576040517f08c379a000000000000000000000000000000000000000000000000000000000815260040161259f90615294565b60405180910390fd5b8073ffffffffffffffffffffffffffffffffffffffff1660008054906101000a900473ffffffffffffffffffffffffffffffffffffffff1673ffffffffffffffffffffffffffffffffffffffff167f8be0079c531659141344cd1fd0a4f28419497f9722a3daafe3b4186f6b6457e060405160405180910390a3806000806101000a81548173ffffffffffffffffffffffffffffffffffffffff021916908373ffffffffffffffffffffffffffffffffffffffff16021790555050565b601960009054906101000a900473ffffffffffffffffffffffffffffffffffffffff1681565b600033905090565b600073ffffffffffffffffffffffffffffffffffffffff168373ffffffffffffffffffffffffffffffffffffffff161415612703576040517f08c379a00000000000000000000000000000000000000000000000000000000081526004016126fa906153d4565b60405180910390fd5b600073ffffffffffffffffffffffffffffffffffffffff168273ffffffffffffffffffffffffffffffffffffffff161415612773576040517f08c379a000000000000000000000000000000000000000000000000000000000815260040161276a906152b4565b60405180910390fd5b80600560008573ffffffffffffffffffffffffffffffffffffffff1673ffffffffffffffffffffffffffffffffffffffff16815260200190815260200160002060008473ffffffffffffffffffffffffffffffffffffffff1673ffffffffffffffffffffffffffffffffffffffff168152602001908152602001600020819055508173ffffffffffffffffffffffffffffffffffffffff168373ffffffffffffffffffffffffffffffffffffffff167f8c5be1e5ebec7d5bd14f71427d1e84f3dd0314c0f7b2291e5b200ac8c7c3b925836040516128519190615454565b60405180910390a3505050565b600073ffffffffffffffffffffffffffffffffffffffff168373ffffffffffffffffffffffffffffffffffffffff1614156128ce576040517f08c379a00000000000000000000000000000000000000000000000000000000081526004016128c5906153b4565b60405180910390fd5b600073ffffffffffffffffffffffffffffffffffffffff168273ffffffffffffffffffffffffffffffffffffffff16141561293e576040517f08c379a000000000000000000000000000000000000000000000000000000000815260040161293590615254565b60405180910390fd5b60008111612981576040517f08c379a000000000000000000000000000000000000000000000000000000000815260040161297890615394565b60405180910390fd5b6129896119ef565b73ffffffffffffffffffffffffffffffffffffffff168373ffffffffffffffffffffffffffffffffffffffff16141580156129f757506129c76119ef565b73ffffffffffffffffffffffffffffffffffffffff168273ffffffffffffffffffffffffffffffffffffffff1614155b15612a4257601754811115612a41576040517f08c379a0000000000000000000000000000000000000000000000000000000008152600401612a3890615334565b60405180910390fd5b5b6000612a4d306116b6565b90506017548110612a5e5760175490505b60006018548210159050808015612a825750601660149054906101000a900460ff16155b8015612ada57507f000000000000000000000000000000000000000000000000000000000000000073ffffffffffffffffffffffffffffffffffffffff168573ffffffffffffffffffffffffffffffffffffffff1614155b8015612af25750601660159054906101000a900460ff165b15612b06576018549150612b0582612e2f565b5b600060019050600660008773ffffffffffffffffffffffffffffffffffffffff1673ffffffffffffffffffffffffffffffffffffffff16815260200190815260200160002060009054906101000a900460ff1680612bad5750600660008673ffffffffffffffffffffffffffffffffffffffff1673ffffffffffffffffffffffffffffffffffffffff16815260200190815260200160002060009054906101000a900460ff165b15612bb757600090505b612bc386868684612f38565b505050505050565b6000838311158290612c13576040517f08c379a0000000000000000000000000000000000000000000000000000000008152600401612c0a9190615232565b60405180910390fd5b5060008385612c229190615651565b9050809150509392505050565b6000806000612c3c613249565b91509150612c538183612c5a90919063ffffffff16565b9250505090565b6000612c9c83836040518060400160405280601a81526020017f536166654d6174683a206469766973696f6e206279207a65726f0000000000008152506134fc565b905092915050565b6000808284612cb39190615570565b905083811015612cf8576040517f08c379a0000000000000000000000000000000000000000000000000000000008152600401612cef906152d4565b60405180910390fd5b8091505092915050565b6000806000806000806000806000806000612d1c8c61355f565b93509350935093506000806000612d3d8f878688612d38612c2f565b6135de565b925092509250828282898989899d509d509d509d509d509d509d5050505050505050919395979092949650565b6000612dac83836040518060400160405280601e81526020017f536166654d6174683a207375627472616374696f6e206f766572666c6f770000815250612bcb565b905092915050565b600080831415612dc75760009050612e29565b60008284612dd591906155f7565b9050828482612de491906155c6565b14612e24576040517f08c379a0000000000000000000000000000000000000000000000000000000008152600401612e1b90615354565b60405180910390fd5b809150505b92915050565b6001601660146101000a81548160ff0219169083151502179055506000612e60600283612c5a90919063ffffffff16565b90506000612e778284612d6a90919063ffffffff16565b90506000612ea082612e928587612d6a90919063ffffffff16565b612d6a90919063ffffffff16565b90506000479050612eb084613692565b6000612ec58247612d6a90919063ffffffff16565b9050612ed184826138de565b612eda836139ce565b7f17bbfb9a6069321b6ded73bd96327c9e6b7212a5cd51ff219cd61370acafb561858286604051612f0d939291906154c9565b60405180910390a150505050506000601660146101000a81548160ff02191690831515021790555050565b80612f4657612f45613a43565b5b600760008573ffffffffffffffffffffffffffffffffffffffff1673ffffffffffffffffffffffffffffffffffffffff16815260200190815260200160002060009054906101000a900460ff168015612fe95750600760008473ffffffffffffffffffffffffffffffffffffffff1673ffffffffffffffffffffffffffffffffffffffff16815260200190815260200160002060009054906101000a900460ff16155b15612ffe57612ff9848484613a97565b613235565b600760008573ffffffffffffffffffffffffffffffffffffffff1673ffffffffffffffffffffffffffffffffffffffff16815260200190815260200160002060009054906101000a900460ff161580156130a15750600760008473ffffffffffffffffffffffffffffffffffffffff1673ffffffffffffffffffffffffffffffffffffffff16815260200190815260200160002060009054906101000a900460ff165b156130b6576130b1848484613d8c565b613234565b600760008573ffffffffffffffffffffffffffffffffffffffff1673ffffffffffffffffffffffffffffffffffffffff16815260200190815260200160002060009054906101000a900460ff1615801561315a5750600760008473ffffffffffffffffffffffffffffffffffffffff1673ffffffffffffffffffffffffffffffffffffffff16815260200190815260200160002060009054906101000a900460ff16155b1561316f5761316a848484614081565b613233565b600760008573ffffffffffffffffffffffffffffffffffffffff1673ffffffffffffffffffffffffffffffffffffffff16815260200190815260200160002060009054906101000a900460ff1680156132115750600760008473ffffffffffffffffffffffffffffffffffffffff1673ffffffffffffffffffffffffffffffffffffffff16815260200190815260200160002060009054906101000a900460ff165b15613226576132218484846142e1565b613232565b613231848484614081565b5b5b5b5b806132435761324261466b565b5b50505050565b6000806000600a5490506000600954905060005b6008805490508110156134bf578260036000600884815481106132835761328261588c565b5b9060005260206000200160009054906101000a900473ffffffffffffffffffffffffffffffffffffffff1673ffffffffffffffffffffffffffffffffffffffff1673ffffffffffffffffffffffffffffffffffffffff16815260200190815260200160002054118061337157508160046000600884815481106133095761330861588c565b5b9060005260206000200160009054906101000a900473ffffffffffffffffffffffffffffffffffffffff1673ffffffffffffffffffffffffffffffffffffffff1673ffffffffffffffffffffffffffffffffffffffff16815260200190815260200160002054115b1561338857600a54600954945094505050506134f8565b61341860036000600884815481106133a3576133a261588c565b5b9060005260206000200160009054906101000a900473ffffffffffffffffffffffffffffffffffffffff1673ffffffffffffffffffffffffffffffffffffffff1673ffffffffffffffffffffffffffffffffffffffff1681526020019081526020016000205484612d6a90919063ffffffff16565b92506134aa60046000600884815481106134355761343461588c565b5b9060005260206000200160009054906101000a900473ffffffffffffffffffffffffffffffffffffffff1673ffffffffffffffffffffffffffffffffffffffff1673ffffffffffffffffffffffffffffffffffffffff1681526020019081526020016000205483612d6a90919063ffffffff16565b915080806134b790615787565b91505061325d565b506134d7600954600a54612c5a90919063ffffffff16565b8210156134ef57600a546009549350935050506134f8565b81819350935050505b9091565b60008083118290613543576040517f08c379a000000000000000000000000000000000000000000000000000000000815260040161353a9190615232565b60405180910390fd5b506000838561355291906155c6565b9050809150509392505050565b600080600080600061357086614688565b9050600061357d876146b9565b9050600061358a886146ea565b905060006135c5826135b7856135a9888e612d6a90919063ffffffff16565b612d6a90919063ffffffff16565b612d6a90919063ffffffff16565b9050808484849750975097509750505050509193509193565b6000806000806135f7858a612db490919063ffffffff16565b9050600061360e868a612db490919063ffffffff16565b905060006136258789612db490919063ffffffff16565b9050600061363c888b612db490919063ffffffff16565b90506000613677826136698561365b888a612d6a90919063ffffffff16565b612d6a90919063ffffffff16565b612d6a90919063ffffffff16565b90508481859750975097505050505050955095509592505050565b6000600267ffffffffffffffff8111156136af576136ae6158bb565b5b6040519080825280602002602001820160405280156136dd5781602001602082028036833780820191505090505b50905030816000815181106136f5576136f461588c565b5b602002602001019073ffffffffffffffffffffffffffffffffffffffff16908173ffffffffffffffffffffffffffffffffffffffff16815250507f000000000000000000000000000000000000000000000000000000000000000073ffffffffffffffffffffffffffffffffffffffff1663ad5c46486040518163ffffffff1660e01b815260040160206040518083038186803b15801561379557600080fd5b505afa1580156137a9573d6000803e3d6000fd5b505050506040513d601f19601f820116820180604052508101906137cd9190614bf4565b816001815181106137e1576137e061588c565b5b602002602001019073ffffffffffffffffffffffffffffffffffffffff16908173ffffffffffffffffffffffffffffffffffffffff1681525050613846307f000000000000000000000000000000000000000000000000000000000000000084612693565b7f000000000000000000000000000000000000000000000000000000000000000073ffffffffffffffffffffffffffffffffffffffff1663791ac9478360008430426040518663ffffffff1660e01b81526004016138a895949392919061546f565b600060405180830381600087803b1580156138c257600080fd5b505af11580156138d6573d6000803e3d6000fd5b505050505050565b613909307f000000000000000000000000000000000000000000000000000000000000000084612693565b7f000000000000000000000000000000000000000000000000000000000000000073ffffffffffffffffffffffffffffffffffffffff1663f305d7198230856000806139536119ef565b426040518863ffffffff1660e01b81526004016139759695949392919061519b565b6060604051808303818588803b15801561398e57600080fd5b505af11580156139a2573d6000803e3d6000fd5b50505050506040513d601f19601f820116820180604052508101906139c79190614dbb565b5050505050565b6139d781613692565b601560009054906101000a900473ffffffffffffffffffffffffffffffffffffffff1673ffffffffffffffffffffffffffffffffffffffff166108fc479081150290604051600060405180830381858888f19350505050158015613a3f573d6000803e3d6000fd5b5050565b6000601154148015613a5757506000600f54145b15613a6157613a95565b601154601281905550600f5460108190555060135460148190555060006011819055506000600f8190555060006013819055505b565b6000806000806000806000613aab88612d02565b9650965096509650965096509650613b0b88600460008d73ffffffffffffffffffffffffffffffffffffffff1673ffffffffffffffffffffffffffffffffffffffff16815260200190815260200160002054612d6a90919063ffffffff16565b600460008c73ffffffffffffffffffffffffffffffffffffffff1673ffffffffffffffffffffffffffffffffffffffff16815260200190815260200160002081905550613ba087600360008d73ffffffffffffffffffffffffffffffffffffffff1673ffffffffffffffffffffffffffffffffffffffff16815260200190815260200160002054612d6a90919063ffffffff16565b600360008c73ffffffffffffffffffffffffffffffffffffffff1673ffffffffffffffffffffffffffffffffffffffff16815260200190815260200160002081905550613c3586600360008c73ffffffffffffffffffffffffffffffffffffffff1673ffffffffffffffffffffffffffffffffffffffff16815260200190815260200160002054612ca490919063ffffffff16565b600360008b73ffffffffffffffffffffffffffffffffffffffff1673ffffffffffffffffffffffffffffffffffffffff16815260200190815260200160002081905550613c818161471b565b613c8a8261496a565b613c948584614b0f565b601660009054906101000a900473ffffffffffffffffffffffffffffffffffffffff1673ffffffffffffffffffffffffffffffffffffffff168a73ffffffffffffffffffffffffffffffffffffffff167f61a114146810c6557dedd314dae835429358ca71b5ffdccc4ef651238ae0f7d483604051613d139190615454565b60405180910390a38873ffffffffffffffffffffffffffffffffffffffff168a73ffffffffffffffffffffffffffffffffffffffff167fddf252ad1be2c89b69c2b068fc378daa952ba7f163c4a11628f55a4df523b3ef86604051613d789190615454565b60405180910390a350505050505050505050565b6000806000806000806000613da088612d02565b9650965096509650965096509650613e0087600360008d73ffffffffffffffffffffffffffffffffffffffff1673ffffffffffffffffffffffffffffffffffffffff16815260200190815260200160002054612d6a90919063ffffffff16565b600360008c73ffffffffffffffffffffffffffffffffffffffff1673ffffffffffffffffffffffffffffffffffffffff16815260200190815260200160002081905550613e9584600460008c73ffffffffffffffffffffffffffffffffffffffff1673ffffffffffffffffffffffffffffffffffffffff16815260200190815260200160002054612ca490919063ffffffff16565b600460008b73ffffffffffffffffffffffffffffffffffffffff1673ffffffffffffffffffffffffffffffffffffffff16815260200190815260200160002081905550613f2a86600360008c73ffffffffffffffffffffffffffffffffffffffff1673ffffffffffffffffffffffffffffffffffffffff16815260200190815260200160002054612ca490919063ffffffff16565b600360008b73ffffffffffffffffffffffffffffffffffffffff1673ffffffffffffffffffffffffffffffffffffffff16815260200190815260200160002081905550613f768161471b565b613f7f8261496a565b613f898584614b0f565b601660009054906101000a900473ffffffffffffffffffffffffffffffffffffffff1673ffffffffffffffffffffffffffffffffffffffff168a73ffffffffffffffffffffffffffffffffffffffff167f61a114146810c6557dedd314dae835429358ca71b5ffdccc4ef651238ae0f7d4836040516140089190615454565b60405180910390a38873ffffffffffffffffffffffffffffffffffffffff168a73ffffffffffffffffffffffffffffffffffffffff167fddf252ad1be2c89b69c2b068fc378daa952ba7f163c4a11628f55a4df523b3ef8660405161406d9190615454565b60405180910390a350505050505050505050565b600080600080600080600061409588612d02565b96509650965096509650965096506140f587600360008d73ffffffffffffffffffffffffffffffffffffffff1673ffffffffffffffffffffffffffffffffffffffff16815260200190815260200160002054612d6a90919063ffffffff16565b600360008c73ffffffffffffffffffffffffffffffffffffffff1673ffffffffffffffffffffffffffffffffffffffff1681526020019081526020016000208190555061418a86600360008c73ffffffffffffffffffffffffffffffffffffffff1673ffffffffffffffffffffffffffffffffffffffff16815260200190815260200160002054612ca490919063ffffffff16565b600360008b73ffffffffffffffffffffffffffffffffffffffff1673ffffffffffffffffffffffffffffffffffffffff168152602001908152602001600020819055506141d68161471b565b6141df8261496a565b6141e98584614b0f565b601660009054906101000a900473ffffffffffffffffffffffffffffffffffffffff1673ffffffffffffffffffffffffffffffffffffffff168a73ffffffffffffffffffffffffffffffffffffffff167f61a114146810c6557dedd314dae835429358ca71b5ffdccc4ef651238ae0f7d4836040516142689190615454565b60405180910390a38873ffffffffffffffffffffffffffffffffffffffff168a73ffffffffffffffffffffffffffffffffffffffff167fddf252ad1be2c89b69c2b068fc378daa952ba7f163c4a11628f55a4df523b3ef866040516142cd9190615454565b60405180910390a350505050505050505050565b60008060008060008060006142f588612d02565b965096509650965096509650965061435588600460008d73ffffffffffffffffffffffffffffffffffffffff1673ffffffffffffffffffffffffffffffffffffffff16815260200190815260200160002054612d6a90919063ffffffff16565b600460008c73ffffffffffffffffffffffffffffffffffffffff1673ffffffffffffffffffffffffffffffffffffffff168152602001908152602001600020819055506143ea87600360008d73ffffffffffffffffffffffffffffffffffffffff1673ffffffffffffffffffffffffffffffffffffffff16815260200190815260200160002054612d6a90919063ffffffff16565b600360008c73ffffffffffffffffffffffffffffffffffffffff1673ffffffffffffffffffffffffffffffffffffffff1681526020019081526020016000208190555061447f84600460008c73ffffffffffffffffffffffffffffffffffffffff1673ffffffffffffffffffffffffffffffffffffffff16815260200190815260200160002054612ca490919063ffffffff16565b600460008b73ffffffffffffffffffffffffffffffffffffffff1673ffffffffffffffffffffffffffffffffffffffff1681526020019081526020016000208190555061451486600360008c73ffffffffffffffffffffffffffffffffffffffff1673ffffffffffffffffffffffffffffffffffffffff16815260200190815260200160002054612ca490919063ffffffff16565b600360008b73ffffffffffffffffffffffffffffffffffffffff1673ffffffffffffffffffffffffffffffffffffffff168152602001908152602001600020819055506145608161471b565b6145698261496a565b6145738584614b0f565b601660009054906101000a900473ffffffffffffffffffffffffffffffffffffffff1673ffffffffffffffffffffffffffffffffffffffff168a73ffffffffffffffffffffffffffffffffffffffff167f61a114146810c6557dedd314dae835429358ca71b5ffdccc4ef651238ae0f7d4836040516145f29190615454565b60405180910390a38873ffffffffffffffffffffffffffffffffffffffff168a73ffffffffffffffffffffffffffffffffffffffff167fddf252ad1be2c89b69c2b068fc378daa952ba7f163c4a11628f55a4df523b3ef866040516146579190615454565b60405180910390a350505050505050505050565b601254601181905550601054600f81905550601454601381905550565b60006146b260646146a460115485612db490919063ffffffff16565b612c5a90919063ffffffff16565b9050919050565b60006146e360646146d5600f5485612db490919063ffffffff16565b612c5a90919063ffffffff16565b9050919050565b6000614714606461470660135485612db490919063ffffffff16565b612c5a90919063ffffffff16565b9050919050565b6000614725612c2f565b9050600061473c8284612db490919063ffffffff16565b90506147b28160036000601660009054906101000a900473ffffffffffffffffffffffffffffffffffffffff1673ffffffffffffffffffffffffffffffffffffffff1673ffffffffffffffffffffffffffffffffffffffff16815260200190815260200160002054612ca490919063ffffffff16565b60036000601660009054906101000a900473ffffffffffffffffffffffffffffffffffffffff1673ffffffffffffffffffffffffffffffffffffffff1673ffffffffffffffffffffffffffffffffffffffff1681526020019081526020016000208190555060076000601660009054906101000a900473ffffffffffffffffffffffffffffffffffffffff1673ffffffffffffffffffffffffffffffffffffffff1673ffffffffffffffffffffffffffffffffffffffff16815260200190815260200160002060009054906101000a900460ff1615614965576148ff8360046000601660009054906101000a900473ffffffffffffffffffffffffffffffffffffffff1673ffffffffffffffffffffffffffffffffffffffff1673ffffffffffffffffffffffffffffffffffffffff16815260200190815260200160002054612ca490919063ffffffff16565b60046000601660009054906101000a900473ffffffffffffffffffffffffffffffffffffffff1673ffffffffffffffffffffffffffffffffffffffff1673ffffffffffffffffffffffffffffffffffffffff168152602001908152602001600020819055505b505050565b6000614974612c2f565b9050600061498b8284612db490919063ffffffff16565b90506149df81600360003073ffffffffffffffffffffffffffffffffffffffff1673ffffffffffffffffffffffffffffffffffffffff16815260200190815260200160002054612ca490919063ffffffff16565b600360003073ffffffffffffffffffffffffffffffffffffffff1673ffffffffffffffffffffffffffffffffffffffff16815260200190815260200160002081905550600760003073ffffffffffffffffffffffffffffffffffffffff1673ffffffffffffffffffffffffffffffffffffffff16815260200190815260200160002060009054906101000a900460ff1615614b0a57614ac683600460003073ffffffffffffffffffffffffffffffffffffffff1673ffffffffffffffffffffffffffffffffffffffff16815260200190815260200160002054612ca490919063ffffffff16565b600460003073ffffffffffffffffffffffffffffffffffffffff1673ffffffffffffffffffffffffffffffffffffffff168152602001908152602001600020819055505b505050565b614b2482600a54612d6a90919063ffffffff16565b600a81905550614b3f81600b54612ca490919063ffffffff16565b600b819055505050565b600081359050614b5881615d32565b92915050565b600081519050614b6d81615d32565b92915050565b600081359050614b8281615d49565b92915050565b600081359050614b9781615d60565b92915050565b600081359050614bac81615d77565b92915050565b600081519050614bc181615d77565b92915050565b600060208284031215614bdd57614bdc6158ea565b5b6000614beb84828501614b49565b91505092915050565b600060208284031215614c0a57614c096158ea565b5b6000614c1884828501614b5e565b91505092915050565b600060208284031215614c3757614c366158ea565b5b6000614c4584828501614b73565b91505092915050565b60008060408385031215614c6557614c646158ea565b5b6000614c7385828601614b49565b9250506020614c8485828601614b49565b9150509250929050565b600080600060608486031215614ca757614ca66158ea565b5b6000614cb586828701614b49565b9350506020614cc686828701614b49565b9250506040614cd786828701614b9d565b9150509250925092565b60008060408385031215614cf857614cf76158ea565b5b6000614d0685828601614b49565b9250506020614d1785828601614b9d565b9150509250929050565b600060208284031215614d3757614d366158ea565b5b6000614d4584828501614b88565b91505092915050565b600060208284031215614d6457614d636158ea565b5b6000614d7284828501614b9d565b91505092915050565b60008060408385031215614d9257614d916158ea565b5b6000614da085828601614b9d565b9250506020614db185828601614b88565b9150509250929050565b600080600060608486031215614dd457614dd36158ea565b5b6000614de286828701614bb2565b9350506020614df386828701614bb2565b9250506040614e0486828701614bb2565b9150509250925092565b6000614e1a8383614e35565b60208301905092915050565b614e2f81615697565b82525050565b614e3e81615685565b82525050565b614e4d81615685565b82525050565b6000614e5e8261552b565b614e68818561554e565b9350614e738361551b565b8060005b83811015614ea4578151614e8b8882614e0e565b9750614e9683615541565b925050600181019050614e77565b5085935050505092915050565b614eba816156a9565b82525050565b614ec9816156ec565b82525050565b614ed881615710565b82525050565b6000614ee982615536565b614ef3818561555f565b9350614f03818560208601615722565b614f0c816158ef565b840191505092915050565b6000614f2460238361555f565b9150614f2f82615900565b604082019050919050565b6000614f47602a8361555f565b9150614f528261594f565b604082019050919050565b6000614f6a60268361555f565b9150614f758261599e565b604082019050919050565b6000614f8d60228361555f565b9150614f98826159ed565b604082019050919050565b6000614fb0601b8361555f565b9150614fbb82615a3c565b602082019050919050565b6000614fd3601b8361555f565b9150614fde82615a65565b602082019050919050565b6000614ff6601f8361555f565b915061500182615a8e565b602082019050919050565b600061501960288361555f565b915061502482615ab7565b604082019050919050565b600061503c60218361555f565b915061504782615b06565b604082019050919050565b600061505f60208361555f565b915061506a82615b55565b602082019050919050565b600061508260298361555f565b915061508d82615b7e565b604082019050919050565b60006150a560258361555f565b91506150b082615bcd565b604082019050919050565b60006150c860248361555f565b91506150d382615c1c565b604082019050919050565b60006150eb601f8361555f565b91506150f682615c6b565b602082019050919050565b600061510e602c8361555f565b915061511982615c94565b604082019050919050565b600061513160238361555f565b915061513c82615ce3565b604082019050919050565b615150816156d5565b82525050565b61515f816156df565b82525050565b600060208201905061517a6000830184614e44565b92915050565b60006020820190506151956000830184614e26565b92915050565b600060c0820190506151b06000830189614e44565b6151bd6020830188615147565b6151ca6040830187614ecf565b6151d76060830186614ecf565b6151e46080830185614e44565b6151f160a0830184615147565b979650505050505050565b60006020820190506152116000830184614eb1565b92915050565b600060208201905061522c6000830184614ec0565b92915050565b6000602082019050818103600083015261524c8184614ede565b905092915050565b6000602082019050818103600083015261526d81614f17565b9050919050565b6000602082019050818103600083015261528d81614f3a565b9050919050565b600060208201905081810360008301526152ad81614f5d565b9050919050565b600060208201905081810360008301526152cd81614f80565b9050919050565b600060208201905081810360008301526152ed81614fa3565b9050919050565b6000602082019050818103600083015261530d81614fc6565b9050919050565b6000602082019050818103600083015261532d81614fe9565b9050919050565b6000602082019050818103600083015261534d8161500c565b9050919050565b6000602082019050818103600083015261536d8161502f565b9050919050565b6000602082019050818103600083015261538d81615052565b9050919050565b600060208201905081810360008301526153ad81615075565b9050919050565b600060208201905081810360008301526153cd81615098565b9050919050565b600060208201905081810360008301526153ed816150bb565b9050919050565b6000602082019050818103600083015261540d816150de565b9050919050565b6000602082019050818103600083015261542d81615101565b9050919050565b6000602082019050818103600083015261544d81615124565b9050919050565b60006020820190506154696000830184615147565b92915050565b600060a0820190506154846000830188615147565b6154916020830187614ecf565b81810360408301526154a38186614e53565b90506154b26060830185614e44565b6154bf6080830184615147565b9695505050505050565b60006060820190506154de6000830186615147565b6154eb6020830185615147565b6154f86040830184615147565b949350505050565b60006020820190506155156000830184615156565b92915050565b6000819050602082019050919050565b600081519050919050565b600081519050919050565b6000602082019050919050565b600082825260208201905092915050565b600082825260208201905092915050565b600061557b826156d5565b9150615586836156d5565b9250827fffffffffffffffffffffffffffffffffffffffffffffffffffffffffffffffff038211156155bb576155ba6157d0565b5b828201905092915050565b60006155d1826156d5565b91506155dc836156d5565b9250826155ec576155eb6157ff565b5b828204905092915050565b6000615602826156d5565b915061560d836156d5565b9250817fffffffffffffffffffffffffffffffffffffffffffffffffffffffffffffffff0483118215151615615646576156456157d0565b5b828202905092915050565b600061565c826156d5565b9150615667836156d5565b92508282101561567a576156796157d0565b5b828203905092915050565b6000615690826156b5565b9050919050565b60006156a2826156b5565b9050919050565b60008115159050919050565b600073ffffffffffffffffffffffffffffffffffffffff82169050919050565b6000819050919050565b600060ff82169050919050565b60006156f7826156fe565b9050919050565b6000615709826156b5565b9050919050565b600061571b826156d5565b9050919050565b60005b83811015615740578082015181840152602081019050615725565b8381111561574f576000848401525b50505050565b6000600282049050600182168061576d57607f821691505b602082108114156157815761578061582e565b5b50919050565b6000615792826156d5565b91507fffffffffffffffffffffffffffffffffffffffffffffffffffffffffffffffff8214156157c5576157c46157d0565b5b600182019050919050565b7f4e487b7100000000000000000000000000000000000000000000000000000000600052601160045260246000fd5b7f4e487b7100000000000000000000000000000000000000000000000000000000600052601260045260246000fd5b7f4e487b7100000000000000000000000000000000000000000000000000000000600052602260045260246000fd5b7f4e487b7100000000000000000000000000000000000000000000000000000000600052603160045260246000fd5b7f4e487b7100000000000000000000000000000000000000000000000000000000600052603260045260246000fd5b7f4e487b7100000000000000000000000000000000000000000000000000000000600052604160045260246000fd5b600080fd5b6000601f19601f8301169050919050565b7f45524332303a207472616e7366657220746f20746865207a65726f206164647260008201527f6573730000000000000000000000000000000000000000000000000000000000602082015250565b7f416d6f756e74206d757374206265206c657373207468616e20746f74616c207260008201527f65666c656374696f6e7300000000000000000000000000000000000000000000602082015250565b7f4f776e61626c653a206e6577206f776e657220697320746865207a65726f206160008201527f6464726573730000000000000000000000000000000000000000000000000000602082015250565b7f45524332303a20617070726f766520746f20746865207a65726f20616464726560008201527f7373000000000000000000000000000000000000000000000000000000000000602082015250565b7f536166654d6174683a206164646974696f6e206f766572666c6f770000000000600082015250565b7f4163636f756e7420697320616c7265616479206578636c756465640000000000600082015250565b7f416d6f756e74206d757374206265206c657373207468616e20737570706c7900600082015250565b7f5472616e7366657220616d6f756e74206578636565647320746865206d61785460008201527f78416d6f756e742e000000000000000000000000000000000000000000000000602082015250565b7f536166654d6174683a206d756c7469706c69636174696f6e206f766572666c6f60008201527f7700000000000000000000000000000000000000000000000000000000000000602082015250565b7f4f776e61626c653a2063616c6c6572206973206e6f7420746865206f776e6572600082015250565b7f5472616e7366657220616d6f756e74206d75737420626520677265617465722060008201527f7468616e207a65726f0000000000000000000000000000000000000000000000602082015250565b7f45524332303a207472616e736665722066726f6d20746865207a65726f20616460008201527f6472657373000000000000000000000000000000000000000000000000000000602082015250565b7f45524332303a20617070726f76652066726f6d20746865207a65726f2061646460008201527f7265737300000000000000000000000000000000000000000000000000000000602082015250565b7f436f6e7472616374206973206c6f636b656420756e74696c2037206461797300600082015250565b7f4578636c75646564206164647265737365732063616e6e6f742063616c6c207460008201527f6869732066756e6374696f6e0000000000000000000000000000000000000000602082015250565b7f596f7520646f6e27742068617665207065726d697373696f6e20746f20756e6c60008201527f6f636b0000000000000000000000000000000000000000000000000000000000602082015250565b615d3b81615685565b8114615d4657600080fd5b50565b615d5281615697565b8114615d5d57600080fd5b50565b615d69816156a9565b8114615d7457600080fd5b50565b615d80816156d5565b8114615d8b57600080fd5b5056fe45524332303a207472616e7366657220616d6f756e74206578636565647320616c6c6f77616e636545524332303a2064656372656173656420616c6c6f77616e63652062656c6f77207a65726fa2646970667358221220cc315846cdc8fc7565111645dfbfe0facb23705b9cfff9e06c2fc6595ad005cd64736f6c63430008050033",
  "linkReferences": {},
  "deployedLinkReferences": {}
}